{
	"WHO/who.sol": {
		"ContractHealthCenter": {
			"abi": [
				{
					"inputs": [
						{
							"internalType": "address",
							"name": "_address",
							"type": "address"
						}
					],
					"stateMutability": "nonpayable",
					"type": "constructor"
				},
				{
					"anonymous": false,
					"inputs": [
						{
							"indexed": false,
							"internalType": "bool",
							"name": "",
							"type": "bool"
						},
						{
							"indexed": false,
							"internalType": "string",
							"name": "",
							"type": "string"
						}
					],
					"name": "newResult",
					"type": "event"
				},
				{
					"inputs": [
						{
							"internalType": "string",
							"name": "_idPerson",
							"type": "string"
						},
						{
							"internalType": "bool",
							"name": "_COVIDresult",
							"type": "bool"
						},
						{
							"internalType": "string",
							"name": "_IPFScode",
							"type": "string"
						}
					],
					"name": "CovidTestResults",
					"outputs": [],
					"stateMutability": "nonpayable",
					"type": "function"
				},
				{
					"inputs": [],
					"name": "HealthCenter_contract",
					"outputs": [
						{
							"internalType": "address",
							"name": "",
							"type": "address"
						}
					],
					"stateMutability": "view",
					"type": "function"
				},
				{
					"inputs": [],
					"name": "contractAddress",
					"outputs": [
						{
							"internalType": "address",
							"name": "",
							"type": "address"
						}
					],
					"stateMutability": "view",
					"type": "function"
				},
				{
					"inputs": [
						{
							"internalType": "string",
							"name": "_idPerson",
							"type": "string"
						}
					],
					"name": "viewResults",
					"outputs": [
						{
							"internalType": "string",
							"name": "",
							"type": "string"
						},
						{
							"internalType": "string",
							"name": "",
							"type": "string"
						}
					],
					"stateMutability": "view",
					"type": "function"
				}
			],
			"devdoc": {
				"kind": "dev",
				"methods": {},
				"version": 1
			},
			"evm": {
				"assembly": "    /* \"WHO/who.sol\":1941:3537  contract ContractHealthCenter{... */\n  mstore(0x40, 0x80)\n    /* \"WHO/who.sol\":2056:2175  constructor(address _address){... */\n  callvalue\n  dup1\n  iszero\n  tag_1\n  jumpi\n  0x00\n  dup1\n  revert\ntag_1:\n  pop\n  mload(0x40)\n  sub(codesize, bytecodeSize)\n  dup1\n  bytecodeSize\n  dup4\n  codecopy\n  dup2\n  dup2\n  add\n  0x40\n  mstore\n  dup2\n  add\n  swap1\n  tag_2\n  swap2\n  swap1\n  tag_3\n  jump\t// in\ntag_2:\n    /* \"WHO/who.sol\":2119:2127  _address */\n  dup1\n    /* \"WHO/who.sol\":2095:2116  HealthCenter_contract */\n  0x00\n  dup1\n    /* \"WHO/who.sol\":2095:2127  HealthCenter_contract = _address */\n  0x0100\n  exp\n  dup2\n  sload\n  dup2\n  0xffffffffffffffffffffffffffffffffffffffff\n  mul\n  not\n  and\n  swap1\n  dup4\n  0xffffffffffffffffffffffffffffffffffffffff\n  and\n  mul\n  or\n  swap1\n  sstore\n  pop\n    /* \"WHO/who.sol\":2163:2167  this */\n  address\n    /* \"WHO/who.sol\":2137:2152  contractAddress */\n  0x01\n  0x00\n    /* \"WHO/who.sol\":2137:2168  contractAddress = address(this) */\n  0x0100\n  exp\n  dup2\n  sload\n  dup2\n  0xffffffffffffffffffffffffffffffffffffffff\n  mul\n  not\n  and\n  swap1\n  dup4\n  0xffffffffffffffffffffffffffffffffffffffff\n  and\n  mul\n  or\n  swap1\n  sstore\n  pop\n    /* \"WHO/who.sol\":2056:2175  constructor(address _address){... */\n  pop\n    /* \"WHO/who.sol\":1941:3537  contract ContractHealthCenter{... */\n  jump(tag_6)\n    /* \"#utility.yul\":88:205   */\ntag_8:\n    /* \"#utility.yul\":197:198   */\n  0x00\n    /* \"#utility.yul\":194:195   */\n  dup1\n    /* \"#utility.yul\":187:199   */\n  revert\n    /* \"#utility.yul\":334:460   */\ntag_10:\n    /* \"#utility.yul\":371:378   */\n  0x00\n    /* \"#utility.yul\":411:453   */\n  0xffffffffffffffffffffffffffffffffffffffff\n    /* \"#utility.yul\":404:409   */\n  dup3\n    /* \"#utility.yul\":400:454   */\n  and\n    /* \"#utility.yul\":389:454   */\n  swap1\n  pop\n    /* \"#utility.yul\":334:460   */\n  swap2\n  swap1\n  pop\n  jump\t// out\n    /* \"#utility.yul\":466:562   */\ntag_11:\n    /* \"#utility.yul\":503:510   */\n  0x00\n    /* \"#utility.yul\":532:556   */\n  tag_20\n    /* \"#utility.yul\":550:555   */\n  dup3\n    /* \"#utility.yul\":532:556   */\n  tag_10\n  jump\t// in\ntag_20:\n    /* \"#utility.yul\":521:556   */\n  swap1\n  pop\n    /* \"#utility.yul\":466:562   */\n  swap2\n  swap1\n  pop\n  jump\t// out\n    /* \"#utility.yul\":568:690   */\ntag_12:\n    /* \"#utility.yul\":641:665   */\n  tag_22\n    /* \"#utility.yul\":659:664   */\n  dup2\n    /* \"#utility.yul\":641:665   */\n  tag_11\n  jump\t// in\ntag_22:\n    /* \"#utility.yul\":634:639   */\n  dup2\n    /* \"#utility.yul\":631:666   */\n  eq\n    /* \"#utility.yul\":621:684   */\n  tag_23\n  jumpi\n    /* \"#utility.yul\":680:681   */\n  0x00\n    /* \"#utility.yul\":677:678   */\n  dup1\n    /* \"#utility.yul\":670:682   */\n  revert\n    /* \"#utility.yul\":621:684   */\ntag_23:\n    /* \"#utility.yul\":568:690   */\n  pop\n  jump\t// out\n    /* \"#utility.yul\":696:839   */\ntag_13:\n    /* \"#utility.yul\":753:758   */\n  0x00\n    /* \"#utility.yul\":784:790   */\n  dup2\n    /* \"#utility.yul\":778:791   */\n  mload\n    /* \"#utility.yul\":769:791   */\n  swap1\n  pop\n    /* \"#utility.yul\":800:833   */\n  tag_25\n    /* \"#utility.yul\":827:832   */\n  dup2\n    /* \"#utility.yul\":800:833   */\n  tag_12\n  jump\t// in\ntag_25:\n    /* \"#utility.yul\":696:839   */\n  swap3\n  swap2\n  pop\n  pop\n  jump\t// out\n    /* \"#utility.yul\":845:1196   */\ntag_3:\n    /* \"#utility.yul\":915:921   */\n  0x00\n    /* \"#utility.yul\":964:966   */\n  0x20\n    /* \"#utility.yul\":952:961   */\n  dup3\n    /* \"#utility.yul\":943:950   */\n  dup5\n    /* \"#utility.yul\":939:962   */\n  sub\n    /* \"#utility.yul\":935:967   */\n  slt\n    /* \"#utility.yul\":932:1051   */\n  iszero\n  tag_27\n  jumpi\n    /* \"#utility.yul\":970:1049   */\n  tag_28\n  tag_8\n  jump\t// in\ntag_28:\n    /* \"#utility.yul\":932:1051   */\ntag_27:\n    /* \"#utility.yul\":1090:1091   */\n  0x00\n    /* \"#utility.yul\":1115:1179   */\n  tag_29\n    /* \"#utility.yul\":1171:1178   */\n  dup5\n    /* \"#utility.yul\":1162:1168   */\n  dup3\n    /* \"#utility.yul\":1151:1160   */\n  dup6\n    /* \"#utility.yul\":1147:1169   */\n  add\n    /* \"#utility.yul\":1115:1179   */\n  tag_13\n  jump\t// in\ntag_29:\n    /* \"#utility.yul\":1105:1179   */\n  swap2\n  pop\n    /* \"#utility.yul\":1061:1189   */\n  pop\n    /* \"#utility.yul\":845:1196   */\n  swap3\n  swap2\n  pop\n  pop\n  jump\t// out\n    /* \"WHO/who.sol\":1941:3537  contract ContractHealthCenter{... */\ntag_6:\n  dataSize(sub_0)\n  dup1\n  dataOffset(sub_0)\n  0x00\n  codecopy\n  0x00\n  return\nstop\n\nsub_0: assembly {\n        /* \"WHO/who.sol\":1941:3537  contract ContractHealthCenter{... */\n      mstore(0x40, 0x80)\n      callvalue\n      dup1\n      iszero\n      tag_1\n      jumpi\n      0x00\n      dup1\n      revert\n    tag_1:\n      pop\n      jumpi(tag_2, lt(calldatasize, 0x04))\n      shr(0xe0, calldataload(0x00))\n      dup1\n      0x0cd5662c\n      eq\n      tag_3\n      jumpi\n      dup1\n      0x8f13c404\n      eq\n      tag_4\n      jumpi\n      dup1\n      0xef6fa836\n      eq\n      tag_5\n      jumpi\n      dup1\n      0xf6b4dfb4\n      eq\n      tag_6\n      jumpi\n    tag_2:\n      0x00\n      dup1\n      revert\n        /* \"WHO/who.sol\":2713:3041  function CovidTestResults(string memory _idPerson, bool _COVIDresult, string memory _IPFScode) public onlyHealthCenter(msg.sender){... */\n    tag_3:\n      tag_7\n      0x04\n      dup1\n      calldatasize\n      sub\n      dup2\n      add\n      swap1\n      tag_8\n      swap2\n      swap1\n      tag_9\n      jump\t// in\n    tag_8:\n      tag_10\n      jump\t// in\n    tag_7:\n      stop\n        /* \"WHO/who.sol\":1977:2013  address public HealthCenter_contract */\n    tag_4:\n      tag_11\n      tag_12\n      jump\t// in\n    tag_11:\n      mload(0x40)\n      tag_13\n      swap2\n      swap1\n      tag_14\n      jump\t// in\n    tag_13:\n      mload(0x40)\n      dup1\n      swap2\n      sub\n      swap1\n      return\n        /* \"WHO/who.sol\":3103:3532  function viewResults(string memory _idPerson) public view returns (string memory, string memory){... */\n    tag_5:\n      tag_15\n      0x04\n      dup1\n      calldatasize\n      sub\n      dup2\n      add\n      swap1\n      tag_16\n      swap2\n      swap1\n      tag_17\n      jump\t// in\n    tag_16:\n      tag_18\n      jump\t// in\n    tag_15:\n      mload(0x40)\n      tag_19\n      swap3\n      swap2\n      swap1\n      tag_20\n      jump\t// in\n    tag_19:\n      mload(0x40)\n      dup1\n      swap2\n      sub\n      swap1\n      return\n        /* \"WHO/who.sol\":2019:2049  address public contractAddress */\n    tag_6:\n      tag_21\n      tag_22\n      jump\t// in\n    tag_21:\n      mload(0x40)\n      tag_23\n      swap2\n      swap1\n      tag_14\n      jump\t// in\n    tag_23:\n      mload(0x40)\n      dup1\n      swap2\n      sub\n      swap1\n      return\n        /* \"WHO/who.sol\":2713:3041  function CovidTestResults(string memory _idPerson, bool _COVIDresult, string memory _IPFScode) public onlyHealthCenter(msg.sender){... */\n    tag_10:\n        /* \"WHO/who.sol\":2832:2842  msg.sender */\n      caller\n        /* \"WHO/who.sol\":2528:2549  HealthCenter_contract */\n      0x00\n      dup1\n      sload\n      swap1\n      0x0100\n      exp\n      swap1\n      div\n      0xffffffffffffffffffffffffffffffffffffffff\n      and\n        /* \"WHO/who.sol\":2516:2549  _address == HealthCenter_contract */\n      0xffffffffffffffffffffffffffffffffffffffff\n      and\n        /* \"WHO/who.sol\":2516:2524  _address */\n      dup2\n        /* \"WHO/who.sol\":2516:2549  _address == HealthCenter_contract */\n      0xffffffffffffffffffffffffffffffffffffffff\n      and\n      eq\n        /* \"WHO/who.sol\":2508:2579  require(_address == HealthCenter_contract,\"You don't have permissions\") */\n      tag_25\n      jumpi\n      mload(0x40)\n      0x08c379a000000000000000000000000000000000000000000000000000000000\n      dup2\n      mstore\n      0x04\n      add\n      tag_26\n      swap1\n      tag_27\n      jump\t// in\n    tag_26:\n      mload(0x40)\n      dup1\n      swap2\n      sub\n      swap1\n      revert\n    tag_25:\n        /* \"WHO/who.sol\":2853:2874  bytes32 hash_idPerson */\n      0x00\n        /* \"WHO/who.sol\":2904:2913  _idPerson */\n      dup5\n        /* \"WHO/who.sol\":2887:2914  abi.encodePacked(_idPerson) */\n      add(0x20, mload(0x40))\n      tag_29\n      swap2\n      swap1\n      tag_30\n      jump\t// in\n    tag_29:\n      mload(0x40)\n      0x20\n      dup2\n      dup4\n      sub\n      sub\n      dup2\n      mstore\n      swap1\n      0x40\n      mstore\n        /* \"WHO/who.sol\":2877:2915  keccak256(abi.encodePacked(_idPerson)) */\n      dup1\n      mload\n      swap1\n      0x20\n      add\n      keccak256\n        /* \"WHO/who.sol\":2853:2915  bytes32 hash_idPerson = keccak256(abi.encodePacked(_idPerson)) */\n      swap1\n      pop\n        /* \"WHO/who.sol\":2955:2986  results(_COVIDresult,_IPFScode) */\n      mload(0x40)\n      dup1\n      0x40\n      add\n      0x40\n      mstore\n      dup1\n        /* \"WHO/who.sol\":2963:2975  _COVIDresult */\n      dup6\n        /* \"WHO/who.sol\":2955:2986  results(_COVIDresult,_IPFScode) */\n      iszero\n      iszero\n      dup2\n      mstore\n      0x20\n      add\n        /* \"WHO/who.sol\":2976:2985  _IPFScode */\n      dup5\n        /* \"WHO/who.sol\":2955:2986  results(_COVIDresult,_IPFScode) */\n      dup2\n      mstore\n      pop\n        /* \"WHO/who.sol\":2925:2937  COVIDresults */\n      0x02\n        /* \"WHO/who.sol\":2925:2952  COVIDresults[hash_idPerson] */\n      0x00\n        /* \"WHO/who.sol\":2938:2951  hash_idPerson */\n      dup4\n        /* \"WHO/who.sol\":2925:2952  COVIDresults[hash_idPerson] */\n      dup2\n      mstore\n      0x20\n      add\n      swap1\n      dup2\n      mstore\n      0x20\n      add\n      0x00\n      keccak256\n        /* \"WHO/who.sol\":2925:2986  COVIDresults[hash_idPerson] = results(_COVIDresult,_IPFScode) */\n      0x00\n      dup3\n      add\n      mload\n      dup2\n      0x00\n      add\n      exp(0x0100, 0x00)\n      dup2\n      sload\n      dup2\n      0xff\n      mul\n      not\n      and\n      swap1\n      dup4\n      iszero\n      iszero\n      mul\n      or\n      swap1\n      sstore\n      pop\n      0x20\n      dup3\n      add\n      mload\n      dup2\n      0x01\n      add\n      swap1\n      dup2\n      tag_31\n      swap2\n      swap1\n      tag_32\n      jump\t// in\n    tag_31:\n      pop\n      swap1\n      pop\n      pop\n        /* \"WHO/who.sol\":3001:3034  newResult(_COVIDresult,_IPFScode) */\n      0x1ca780be614113b3e639b9c4bba4f21cb45139ef8d48f54ca3f8d9852db387b0\n        /* \"WHO/who.sol\":3011:3023  _COVIDresult */\n      dup5\n        /* \"WHO/who.sol\":3024:3033  _IPFScode */\n      dup5\n        /* \"WHO/who.sol\":3001:3034  newResult(_COVIDresult,_IPFScode) */\n      mload(0x40)\n      tag_33\n      swap3\n      swap2\n      swap1\n      tag_34\n      jump\t// in\n    tag_33:\n      mload(0x40)\n      dup1\n      swap2\n      sub\n      swap1\n      log1\n        /* \"WHO/who.sol\":2843:3041  {... */\n      pop\n        /* \"WHO/who.sol\":2713:3041  function CovidTestResults(string memory _idPerson, bool _COVIDresult, string memory _IPFScode) public onlyHealthCenter(msg.sender){... */\n      pop\n      pop\n      pop\n      pop\n      jump\t// out\n        /* \"WHO/who.sol\":1977:2013  address public HealthCenter_contract */\n    tag_12:\n      0x00\n      dup1\n      sload\n      swap1\n      0x0100\n      exp\n      swap1\n      div\n      0xffffffffffffffffffffffffffffffffffffffff\n      and\n      dup2\n      jump\t// out\n        /* \"WHO/who.sol\":3103:3532  function viewResults(string memory _idPerson) public view returns (string memory, string memory){... */\n    tag_18:\n        /* \"WHO/who.sol\":3170:3183  string memory */\n      0x60\n        /* \"WHO/who.sol\":3185:3198  string memory */\n      dup1\n        /* \"WHO/who.sol\":3209:3230  bytes32 hash_idPerson */\n      0x00\n        /* \"WHO/who.sol\":3260:3269  _idPerson */\n      dup4\n        /* \"WHO/who.sol\":3243:3270  abi.encodePacked(_idPerson) */\n      add(0x20, mload(0x40))\n      tag_36\n      swap2\n      swap1\n      tag_30\n      jump\t// in\n    tag_36:\n      mload(0x40)\n      0x20\n      dup2\n      dup4\n      sub\n      sub\n      dup2\n      mstore\n      swap1\n      0x40\n      mstore\n        /* \"WHO/who.sol\":3233:3271  keccak256(abi.encodePacked(_idPerson)) */\n      dup1\n      mload\n      swap1\n      0x20\n      add\n      keccak256\n        /* \"WHO/who.sol\":3209:3271  bytes32 hash_idPerson = keccak256(abi.encodePacked(_idPerson)) */\n      swap1\n      pop\n        /* \"WHO/who.sol\":3281:3305  string memory testResult */\n      0x60\n        /* \"WHO/who.sol\":3360:3364  true */\n      0x01\n        /* \"WHO/who.sol\":3319:3364  COVIDresults[hash_idPerson].diagnosis == true */\n      iszero\n      iszero\n        /* \"WHO/who.sol\":3319:3331  COVIDresults */\n      0x02\n        /* \"WHO/who.sol\":3319:3346  COVIDresults[hash_idPerson] */\n      0x00\n        /* \"WHO/who.sol\":3332:3345  hash_idPerson */\n      dup5\n        /* \"WHO/who.sol\":3319:3346  COVIDresults[hash_idPerson] */\n      dup2\n      mstore\n      0x20\n      add\n      swap1\n      dup2\n      mstore\n      0x20\n      add\n      0x00\n      keccak256\n        /* \"WHO/who.sol\":3319:3356  COVIDresults[hash_idPerson].diagnosis */\n      0x00\n      add\n      0x00\n      swap1\n      sload\n      swap1\n      0x0100\n      exp\n      swap1\n      div\n      0xff\n      and\n        /* \"WHO/who.sol\":3319:3364  COVIDresults[hash_idPerson].diagnosis == true */\n      iszero\n      iszero\n      sub\n        /* \"WHO/who.sol\":3316:3451  if(COVIDresults[hash_idPerson].diagnosis == true)... */\n      tag_37\n      jumpi\n        /* \"WHO/who.sol\":3378:3401  testResult = \"Positive\" */\n      mload(0x40)\n      dup1\n      0x40\n      add\n      0x40\n      mstore\n      dup1\n      0x08\n      dup2\n      mstore\n      0x20\n      add\n      0x506f736974697665000000000000000000000000000000000000000000000000\n      dup2\n      mstore\n      pop\n      swap1\n      pop\n        /* \"WHO/who.sol\":3316:3451  if(COVIDresults[hash_idPerson].diagnosis == true)... */\n      jump(tag_38)\n    tag_37:\n        /* \"WHO/who.sol\":3428:3451  testResult = \"Negative\" */\n      mload(0x40)\n      dup1\n      0x40\n      add\n      0x40\n      mstore\n      dup1\n      0x08\n      dup2\n      mstore\n      0x20\n      add\n      0x4e65676174697665000000000000000000000000000000000000000000000000\n      dup2\n      mstore\n      pop\n      swap1\n      pop\n        /* \"WHO/who.sol\":3316:3451  if(COVIDresults[hash_idPerson].diagnosis == true)... */\n    tag_38:\n        /* \"WHO/who.sol\":3477:3487  testResult */\n      dup1\n        /* \"WHO/who.sol\":3488:3500  COVIDresults */\n      0x02\n        /* \"WHO/who.sol\":3488:3515  COVIDresults[hash_idPerson] */\n      0x00\n        /* \"WHO/who.sol\":3501:3514  hash_idPerson */\n      dup5\n        /* \"WHO/who.sol\":3488:3515  COVIDresults[hash_idPerson] */\n      dup2\n      mstore\n      0x20\n      add\n      swap1\n      dup2\n      mstore\n      0x20\n      add\n      0x00\n      keccak256\n        /* \"WHO/who.sol\":3488:3524  COVIDresults[hash_idPerson].IPFScode */\n      0x01\n      add\n        /* \"WHO/who.sol\":3470:3525  return(testResult,COVIDresults[hash_idPerson].IPFScode) */\n      dup1\n      dup1\n      sload\n      tag_39\n      swap1\n      tag_40\n      jump\t// in\n    tag_39:\n      dup1\n      0x1f\n      add\n      0x20\n      dup1\n      swap2\n      div\n      mul\n      0x20\n      add\n      mload(0x40)\n      swap1\n      dup2\n      add\n      0x40\n      mstore\n      dup1\n      swap3\n      swap2\n      swap1\n      dup2\n      dup2\n      mstore\n      0x20\n      add\n      dup3\n      dup1\n      sload\n      tag_41\n      swap1\n      tag_40\n      jump\t// in\n    tag_41:\n      dup1\n      iszero\n      tag_42\n      jumpi\n      dup1\n      0x1f\n      lt\n      tag_43\n      jumpi\n      0x0100\n      dup1\n      dup4\n      sload\n      div\n      mul\n      dup4\n      mstore\n      swap2\n      0x20\n      add\n      swap2\n      jump(tag_42)\n    tag_43:\n      dup3\n      add\n      swap2\n      swap1\n      0x00\n      mstore\n      keccak256(0x00, 0x20)\n      swap1\n    tag_44:\n      dup2\n      sload\n      dup2\n      mstore\n      swap1\n      0x01\n      add\n      swap1\n      0x20\n      add\n      dup1\n      dup4\n      gt\n      tag_44\n      jumpi\n      dup3\n      swap1\n      sub\n      0x1f\n      and\n      dup3\n      add\n      swap2\n    tag_42:\n      pop\n      pop\n      pop\n      pop\n      pop\n      swap1\n      pop\n      swap4\n      pop\n      swap4\n      pop\n      pop\n      pop\n        /* \"WHO/who.sol\":3103:3532  function viewResults(string memory _idPerson) public view returns (string memory, string memory){... */\n      swap2\n      pop\n      swap2\n      jump\t// out\n        /* \"WHO/who.sol\":2019:2049  address public contractAddress */\n    tag_22:\n      0x01\n      0x00\n      swap1\n      sload\n      swap1\n      0x0100\n      exp\n      swap1\n      div\n      0xffffffffffffffffffffffffffffffffffffffff\n      and\n      dup2\n      jump\t// out\n        /* \"#utility.yul\":7:82   */\n    tag_45:\n        /* \"#utility.yul\":40:46   */\n      0x00\n        /* \"#utility.yul\":73:75   */\n      0x40\n        /* \"#utility.yul\":67:76   */\n      mload\n        /* \"#utility.yul\":57:76   */\n      swap1\n      pop\n        /* \"#utility.yul\":7:82   */\n      swap1\n      jump\t// out\n        /* \"#utility.yul\":88:205   */\n    tag_46:\n        /* \"#utility.yul\":197:198   */\n      0x00\n        /* \"#utility.yul\":194:195   */\n      dup1\n        /* \"#utility.yul\":187:199   */\n      revert\n        /* \"#utility.yul\":211:328   */\n    tag_47:\n        /* \"#utility.yul\":320:321   */\n      0x00\n        /* \"#utility.yul\":317:318   */\n      dup1\n        /* \"#utility.yul\":310:322   */\n      revert\n        /* \"#utility.yul\":334:451   */\n    tag_48:\n        /* \"#utility.yul\":443:444   */\n      0x00\n        /* \"#utility.yul\":440:441   */\n      dup1\n        /* \"#utility.yul\":433:445   */\n      revert\n        /* \"#utility.yul\":457:574   */\n    tag_49:\n        /* \"#utility.yul\":566:567   */\n      0x00\n        /* \"#utility.yul\":563:564   */\n      dup1\n        /* \"#utility.yul\":556:568   */\n      revert\n        /* \"#utility.yul\":580:682   */\n    tag_50:\n        /* \"#utility.yul\":621:627   */\n      0x00\n        /* \"#utility.yul\":672:674   */\n      0x1f\n        /* \"#utility.yul\":668:675   */\n      not\n        /* \"#utility.yul\":663:665   */\n      0x1f\n        /* \"#utility.yul\":656:661   */\n      dup4\n        /* \"#utility.yul\":652:666   */\n      add\n        /* \"#utility.yul\":648:676   */\n      and\n        /* \"#utility.yul\":638:676   */\n      swap1\n      pop\n        /* \"#utility.yul\":580:682   */\n      swap2\n      swap1\n      pop\n      jump\t// out\n        /* \"#utility.yul\":688:868   */\n    tag_51:\n        /* \"#utility.yul\":736:813   */\n      0x4e487b7100000000000000000000000000000000000000000000000000000000\n        /* \"#utility.yul\":733:734   */\n      0x00\n        /* \"#utility.yul\":726:814   */\n      mstore\n        /* \"#utility.yul\":833:837   */\n      0x41\n        /* \"#utility.yul\":830:831   */\n      0x04\n        /* \"#utility.yul\":823:838   */\n      mstore\n        /* \"#utility.yul\":857:861   */\n      0x24\n        /* \"#utility.yul\":854:855   */\n      0x00\n        /* \"#utility.yul\":847:862   */\n      revert\n        /* \"#utility.yul\":874:1155   */\n    tag_52:\n        /* \"#utility.yul\":957:984   */\n      tag_99\n        /* \"#utility.yul\":979:983   */\n      dup3\n        /* \"#utility.yul\":957:984   */\n      tag_50\n      jump\t// in\n    tag_99:\n        /* \"#utility.yul\":949:955   */\n      dup2\n        /* \"#utility.yul\":945:985   */\n      add\n        /* \"#utility.yul\":1087:1093   */\n      dup2\n        /* \"#utility.yul\":1075:1085   */\n      dup2\n        /* \"#utility.yul\":1072:1094   */\n      lt\n        /* \"#utility.yul\":1051:1069   */\n      0xffffffffffffffff\n        /* \"#utility.yul\":1039:1049   */\n      dup3\n        /* \"#utility.yul\":1036:1070   */\n      gt\n        /* \"#utility.yul\":1033:1095   */\n      or\n        /* \"#utility.yul\":1030:1118   */\n      iszero\n      tag_100\n      jumpi\n        /* \"#utility.yul\":1098:1116   */\n      tag_101\n      tag_51\n      jump\t// in\n    tag_101:\n        /* \"#utility.yul\":1030:1118   */\n    tag_100:\n        /* \"#utility.yul\":1138:1148   */\n      dup1\n        /* \"#utility.yul\":1134:1136   */\n      0x40\n        /* \"#utility.yul\":1127:1149   */\n      mstore\n        /* \"#utility.yul\":917:1155   */\n      pop\n        /* \"#utility.yul\":874:1155   */\n      pop\n      pop\n      jump\t// out\n        /* \"#utility.yul\":1161:1290   */\n    tag_53:\n        /* \"#utility.yul\":1195:1201   */\n      0x00\n        /* \"#utility.yul\":1222:1242   */\n      tag_103\n      tag_45\n      jump\t// in\n    tag_103:\n        /* \"#utility.yul\":1212:1242   */\n      swap1\n      pop\n        /* \"#utility.yul\":1251:1284   */\n      tag_104\n        /* \"#utility.yul\":1279:1283   */\n      dup3\n        /* \"#utility.yul\":1271:1277   */\n      dup3\n        /* \"#utility.yul\":1251:1284   */\n      tag_52\n      jump\t// in\n    tag_104:\n        /* \"#utility.yul\":1161:1290   */\n      swap2\n      swap1\n      pop\n      jump\t// out\n        /* \"#utility.yul\":1296:1604   */\n    tag_54:\n        /* \"#utility.yul\":1358:1362   */\n      0x00\n        /* \"#utility.yul\":1448:1466   */\n      0xffffffffffffffff\n        /* \"#utility.yul\":1440:1446   */\n      dup3\n        /* \"#utility.yul\":1437:1467   */\n      gt\n        /* \"#utility.yul\":1434:1490   */\n      iszero\n      tag_106\n      jumpi\n        /* \"#utility.yul\":1470:1488   */\n      tag_107\n      tag_51\n      jump\t// in\n    tag_107:\n        /* \"#utility.yul\":1434:1490   */\n    tag_106:\n        /* \"#utility.yul\":1508:1537   */\n      tag_108\n        /* \"#utility.yul\":1530:1536   */\n      dup3\n        /* \"#utility.yul\":1508:1537   */\n      tag_50\n      jump\t// in\n    tag_108:\n        /* \"#utility.yul\":1500:1537   */\n      swap1\n      pop\n        /* \"#utility.yul\":1592:1596   */\n      0x20\n        /* \"#utility.yul\":1586:1590   */\n      dup2\n        /* \"#utility.yul\":1582:1597   */\n      add\n        /* \"#utility.yul\":1574:1597   */\n      swap1\n      pop\n        /* \"#utility.yul\":1296:1604   */\n      swap2\n      swap1\n      pop\n      jump\t// out\n        /* \"#utility.yul\":1610:1756   */\n    tag_55:\n        /* \"#utility.yul\":1707:1713   */\n      dup3\n        /* \"#utility.yul\":1702:1705   */\n      dup2\n        /* \"#utility.yul\":1697:1700   */\n      dup4\n        /* \"#utility.yul\":1684:1714   */\n      calldatacopy\n        /* \"#utility.yul\":1748:1749   */\n      0x00\n        /* \"#utility.yul\":1739:1745   */\n      dup4\n        /* \"#utility.yul\":1734:1737   */\n      dup4\n        /* \"#utility.yul\":1730:1746   */\n      add\n        /* \"#utility.yul\":1723:1750   */\n      mstore\n        /* \"#utility.yul\":1610:1756   */\n      pop\n      pop\n      pop\n      jump\t// out\n        /* \"#utility.yul\":1762:2187   */\n    tag_56:\n        /* \"#utility.yul\":1840:1845   */\n      0x00\n        /* \"#utility.yul\":1865:1931   */\n      tag_111\n        /* \"#utility.yul\":1881:1930   */\n      tag_112\n        /* \"#utility.yul\":1923:1929   */\n      dup5\n        /* \"#utility.yul\":1881:1930   */\n      tag_54\n      jump\t// in\n    tag_112:\n        /* \"#utility.yul\":1865:1931   */\n      tag_53\n      jump\t// in\n    tag_111:\n        /* \"#utility.yul\":1856:1931   */\n      swap1\n      pop\n        /* \"#utility.yul\":1954:1960   */\n      dup3\n        /* \"#utility.yul\":1947:1952   */\n      dup2\n        /* \"#utility.yul\":1940:1961   */\n      mstore\n        /* \"#utility.yul\":1992:1996   */\n      0x20\n        /* \"#utility.yul\":1985:1990   */\n      dup2\n        /* \"#utility.yul\":1981:1997   */\n      add\n        /* \"#utility.yul\":2030:2033   */\n      dup5\n        /* \"#utility.yul\":2021:2027   */\n      dup5\n        /* \"#utility.yul\":2016:2019   */\n      dup5\n        /* \"#utility.yul\":2012:2028   */\n      add\n        /* \"#utility.yul\":2009:2034   */\n      gt\n        /* \"#utility.yul\":2006:2118   */\n      iszero\n      tag_113\n      jumpi\n        /* \"#utility.yul\":2037:2116   */\n      tag_114\n      tag_49\n      jump\t// in\n    tag_114:\n        /* \"#utility.yul\":2006:2118   */\n    tag_113:\n        /* \"#utility.yul\":2127:2181   */\n      tag_115\n        /* \"#utility.yul\":2174:2180   */\n      dup5\n        /* \"#utility.yul\":2169:2172   */\n      dup3\n        /* \"#utility.yul\":2164:2167   */\n      dup6\n        /* \"#utility.yul\":2127:2181   */\n      tag_55\n      jump\t// in\n    tag_115:\n        /* \"#utility.yul\":1846:2187   */\n      pop\n        /* \"#utility.yul\":1762:2187   */\n      swap4\n      swap3\n      pop\n      pop\n      pop\n      jump\t// out\n        /* \"#utility.yul\":2207:2547   */\n    tag_57:\n        /* \"#utility.yul\":2263:2268   */\n      0x00\n        /* \"#utility.yul\":2312:2315   */\n      dup3\n        /* \"#utility.yul\":2305:2309   */\n      0x1f\n        /* \"#utility.yul\":2297:2303   */\n      dup4\n        /* \"#utility.yul\":2293:2310   */\n      add\n        /* \"#utility.yul\":2289:2316   */\n      slt\n        /* \"#utility.yul\":2279:2401   */\n      tag_117\n      jumpi\n        /* \"#utility.yul\":2320:2399   */\n      tag_118\n      tag_48\n      jump\t// in\n    tag_118:\n        /* \"#utility.yul\":2279:2401   */\n    tag_117:\n        /* \"#utility.yul\":2437:2443   */\n      dup2\n        /* \"#utility.yul\":2424:2444   */\n      calldataload\n        /* \"#utility.yul\":2462:2541   */\n      tag_119\n        /* \"#utility.yul\":2537:2540   */\n      dup5\n        /* \"#utility.yul\":2529:2535   */\n      dup3\n        /* \"#utility.yul\":2522:2526   */\n      0x20\n        /* \"#utility.yul\":2514:2520   */\n      dup7\n        /* \"#utility.yul\":2510:2527   */\n      add\n        /* \"#utility.yul\":2462:2541   */\n      tag_56\n      jump\t// in\n    tag_119:\n        /* \"#utility.yul\":2453:2541   */\n      swap2\n      pop\n        /* \"#utility.yul\":2269:2547   */\n      pop\n        /* \"#utility.yul\":2207:2547   */\n      swap3\n      swap2\n      pop\n      pop\n      jump\t// out\n        /* \"#utility.yul\":2553:2643   */\n    tag_58:\n        /* \"#utility.yul\":2587:2594   */\n      0x00\n        /* \"#utility.yul\":2630:2635   */\n      dup2\n        /* \"#utility.yul\":2623:2636   */\n      iszero\n        /* \"#utility.yul\":2616:2637   */\n      iszero\n        /* \"#utility.yul\":2605:2637   */\n      swap1\n      pop\n        /* \"#utility.yul\":2553:2643   */\n      swap2\n      swap1\n      pop\n      jump\t// out\n        /* \"#utility.yul\":2649:2765   */\n    tag_59:\n        /* \"#utility.yul\":2719:2740   */\n      tag_122\n        /* \"#utility.yul\":2734:2739   */\n      dup2\n        /* \"#utility.yul\":2719:2740   */\n      tag_58\n      jump\t// in\n    tag_122:\n        /* \"#utility.yul\":2712:2717   */\n      dup2\n        /* \"#utility.yul\":2709:2741   */\n      eq\n        /* \"#utility.yul\":2699:2759   */\n      tag_123\n      jumpi\n        /* \"#utility.yul\":2755:2756   */\n      0x00\n        /* \"#utility.yul\":2752:2753   */\n      dup1\n        /* \"#utility.yul\":2745:2757   */\n      revert\n        /* \"#utility.yul\":2699:2759   */\n    tag_123:\n        /* \"#utility.yul\":2649:2765   */\n      pop\n      jump\t// out\n        /* \"#utility.yul\":2771:2904   */\n    tag_60:\n        /* \"#utility.yul\":2814:2819   */\n      0x00\n        /* \"#utility.yul\":2852:2858   */\n      dup2\n        /* \"#utility.yul\":2839:2859   */\n      calldataload\n        /* \"#utility.yul\":2830:2859   */\n      swap1\n      pop\n        /* \"#utility.yul\":2868:2898   */\n      tag_125\n        /* \"#utility.yul\":2892:2897   */\n      dup2\n        /* \"#utility.yul\":2868:2898   */\n      tag_59\n      jump\t// in\n    tag_125:\n        /* \"#utility.yul\":2771:2904   */\n      swap3\n      swap2\n      pop\n      pop\n      jump\t// out\n        /* \"#utility.yul\":2910:3883   */\n    tag_9:\n        /* \"#utility.yul\":3004:3010   */\n      0x00\n        /* \"#utility.yul\":3012:3018   */\n      dup1\n        /* \"#utility.yul\":3020:3026   */\n      0x00\n        /* \"#utility.yul\":3069:3071   */\n      0x60\n        /* \"#utility.yul\":3057:3066   */\n      dup5\n        /* \"#utility.yul\":3048:3055   */\n      dup7\n        /* \"#utility.yul\":3044:3067   */\n      sub\n        /* \"#utility.yul\":3040:3072   */\n      slt\n        /* \"#utility.yul\":3037:3156   */\n      iszero\n      tag_127\n      jumpi\n        /* \"#utility.yul\":3075:3154   */\n      tag_128\n      tag_46\n      jump\t// in\n    tag_128:\n        /* \"#utility.yul\":3037:3156   */\n    tag_127:\n        /* \"#utility.yul\":3223:3224   */\n      0x00\n        /* \"#utility.yul\":3212:3221   */\n      dup5\n        /* \"#utility.yul\":3208:3225   */\n      add\n        /* \"#utility.yul\":3195:3226   */\n      calldataload\n        /* \"#utility.yul\":3253:3271   */\n      0xffffffffffffffff\n        /* \"#utility.yul\":3245:3251   */\n      dup2\n        /* \"#utility.yul\":3242:3272   */\n      gt\n        /* \"#utility.yul\":3239:3356   */\n      iszero\n      tag_129\n      jumpi\n        /* \"#utility.yul\":3275:3354   */\n      tag_130\n      tag_47\n      jump\t// in\n    tag_130:\n        /* \"#utility.yul\":3239:3356   */\n    tag_129:\n        /* \"#utility.yul\":3380:3443   */\n      tag_131\n        /* \"#utility.yul\":3435:3442   */\n      dup7\n        /* \"#utility.yul\":3426:3432   */\n      dup3\n        /* \"#utility.yul\":3415:3424   */\n      dup8\n        /* \"#utility.yul\":3411:3433   */\n      add\n        /* \"#utility.yul\":3380:3443   */\n      tag_57\n      jump\t// in\n    tag_131:\n        /* \"#utility.yul\":3370:3443   */\n      swap4\n      pop\n        /* \"#utility.yul\":3166:3453   */\n      pop\n        /* \"#utility.yul\":3492:3494   */\n      0x20\n        /* \"#utility.yul\":3518:3568   */\n      tag_132\n        /* \"#utility.yul\":3560:3567   */\n      dup7\n        /* \"#utility.yul\":3551:3557   */\n      dup3\n        /* \"#utility.yul\":3540:3549   */\n      dup8\n        /* \"#utility.yul\":3536:3558   */\n      add\n        /* \"#utility.yul\":3518:3568   */\n      tag_60\n      jump\t// in\n    tag_132:\n        /* \"#utility.yul\":3508:3568   */\n      swap3\n      pop\n        /* \"#utility.yul\":3463:3578   */\n      pop\n        /* \"#utility.yul\":3645:3647   */\n      0x40\n        /* \"#utility.yul\":3634:3643   */\n      dup5\n        /* \"#utility.yul\":3630:3648   */\n      add\n        /* \"#utility.yul\":3617:3649   */\n      calldataload\n        /* \"#utility.yul\":3676:3694   */\n      0xffffffffffffffff\n        /* \"#utility.yul\":3668:3674   */\n      dup2\n        /* \"#utility.yul\":3665:3695   */\n      gt\n        /* \"#utility.yul\":3662:3779   */\n      iszero\n      tag_133\n      jumpi\n        /* \"#utility.yul\":3698:3777   */\n      tag_134\n      tag_47\n      jump\t// in\n    tag_134:\n        /* \"#utility.yul\":3662:3779   */\n    tag_133:\n        /* \"#utility.yul\":3803:3866   */\n      tag_135\n        /* \"#utility.yul\":3858:3865   */\n      dup7\n        /* \"#utility.yul\":3849:3855   */\n      dup3\n        /* \"#utility.yul\":3838:3847   */\n      dup8\n        /* \"#utility.yul\":3834:3856   */\n      add\n        /* \"#utility.yul\":3803:3866   */\n      tag_57\n      jump\t// in\n    tag_135:\n        /* \"#utility.yul\":3793:3866   */\n      swap2\n      pop\n        /* \"#utility.yul\":3588:3876   */\n      pop\n        /* \"#utility.yul\":2910:3883   */\n      swap3\n      pop\n      swap3\n      pop\n      swap3\n      jump\t// out\n        /* \"#utility.yul\":3889:4015   */\n    tag_61:\n        /* \"#utility.yul\":3926:3933   */\n      0x00\n        /* \"#utility.yul\":3966:4008   */\n      0xffffffffffffffffffffffffffffffffffffffff\n        /* \"#utility.yul\":3959:3964   */\n      dup3\n        /* \"#utility.yul\":3955:4009   */\n      and\n        /* \"#utility.yul\":3944:4009   */\n      swap1\n      pop\n        /* \"#utility.yul\":3889:4015   */\n      swap2\n      swap1\n      pop\n      jump\t// out\n        /* \"#utility.yul\":4021:4117   */\n    tag_62:\n        /* \"#utility.yul\":4058:4065   */\n      0x00\n        /* \"#utility.yul\":4087:4111   */\n      tag_138\n        /* \"#utility.yul\":4105:4110   */\n      dup3\n        /* \"#utility.yul\":4087:4111   */\n      tag_61\n      jump\t// in\n    tag_138:\n        /* \"#utility.yul\":4076:4111   */\n      swap1\n      pop\n        /* \"#utility.yul\":4021:4117   */\n      swap2\n      swap1\n      pop\n      jump\t// out\n        /* \"#utility.yul\":4123:4241   */\n    tag_63:\n        /* \"#utility.yul\":4210:4234   */\n      tag_140\n        /* \"#utility.yul\":4228:4233   */\n      dup2\n        /* \"#utility.yul\":4210:4234   */\n      tag_62\n      jump\t// in\n    tag_140:\n        /* \"#utility.yul\":4205:4208   */\n      dup3\n        /* \"#utility.yul\":4198:4235   */\n      mstore\n        /* \"#utility.yul\":4123:4241   */\n      pop\n      pop\n      jump\t// out\n        /* \"#utility.yul\":4247:4469   */\n    tag_14:\n        /* \"#utility.yul\":4340:4344   */\n      0x00\n        /* \"#utility.yul\":4378:4380   */\n      0x20\n        /* \"#utility.yul\":4367:4376   */\n      dup3\n        /* \"#utility.yul\":4363:4381   */\n      add\n        /* \"#utility.yul\":4355:4381   */\n      swap1\n      pop\n        /* \"#utility.yul\":4391:4462   */\n      tag_142\n        /* \"#utility.yul\":4459:4460   */\n      0x00\n        /* \"#utility.yul\":4448:4457   */\n      dup4\n        /* \"#utility.yul\":4444:4461   */\n      add\n        /* \"#utility.yul\":4435:4441   */\n      dup5\n        /* \"#utility.yul\":4391:4462   */\n      tag_63\n      jump\t// in\n    tag_142:\n        /* \"#utility.yul\":4247:4469   */\n      swap3\n      swap2\n      pop\n      pop\n      jump\t// out\n        /* \"#utility.yul\":4475:4984   */\n    tag_17:\n        /* \"#utility.yul\":4544:4550   */\n      0x00\n        /* \"#utility.yul\":4593:4595   */\n      0x20\n        /* \"#utility.yul\":4581:4590   */\n      dup3\n        /* \"#utility.yul\":4572:4579   */\n      dup5\n        /* \"#utility.yul\":4568:4591   */\n      sub\n        /* \"#utility.yul\":4564:4596   */\n      slt\n        /* \"#utility.yul\":4561:4680   */\n      iszero\n      tag_144\n      jumpi\n        /* \"#utility.yul\":4599:4678   */\n      tag_145\n      tag_46\n      jump\t// in\n    tag_145:\n        /* \"#utility.yul\":4561:4680   */\n    tag_144:\n        /* \"#utility.yul\":4747:4748   */\n      0x00\n        /* \"#utility.yul\":4736:4745   */\n      dup3\n        /* \"#utility.yul\":4732:4749   */\n      add\n        /* \"#utility.yul\":4719:4750   */\n      calldataload\n        /* \"#utility.yul\":4777:4795   */\n      0xffffffffffffffff\n        /* \"#utility.yul\":4769:4775   */\n      dup2\n        /* \"#utility.yul\":4766:4796   */\n      gt\n        /* \"#utility.yul\":4763:4880   */\n      iszero\n      tag_146\n      jumpi\n        /* \"#utility.yul\":4799:4878   */\n      tag_147\n      tag_47\n      jump\t// in\n    tag_147:\n        /* \"#utility.yul\":4763:4880   */\n    tag_146:\n        /* \"#utility.yul\":4904:4967   */\n      tag_148\n        /* \"#utility.yul\":4959:4966   */\n      dup5\n        /* \"#utility.yul\":4950:4956   */\n      dup3\n        /* \"#utility.yul\":4939:4948   */\n      dup6\n        /* \"#utility.yul\":4935:4957   */\n      add\n        /* \"#utility.yul\":4904:4967   */\n      tag_57\n      jump\t// in\n    tag_148:\n        /* \"#utility.yul\":4894:4967   */\n      swap2\n      pop\n        /* \"#utility.yul\":4690:4977   */\n      pop\n        /* \"#utility.yul\":4475:4984   */\n      swap3\n      swap2\n      pop\n      pop\n      jump\t// out\n        /* \"#utility.yul\":4990:5089   */\n    tag_64:\n        /* \"#utility.yul\":5042:5048   */\n      0x00\n        /* \"#utility.yul\":5076:5081   */\n      dup2\n        /* \"#utility.yul\":5070:5082   */\n      mload\n        /* \"#utility.yul\":5060:5082   */\n      swap1\n      pop\n        /* \"#utility.yul\":4990:5089   */\n      swap2\n      swap1\n      pop\n      jump\t// out\n        /* \"#utility.yul\":5095:5264   */\n    tag_65:\n        /* \"#utility.yul\":5179:5190   */\n      0x00\n        /* \"#utility.yul\":5213:5219   */\n      dup3\n        /* \"#utility.yul\":5208:5211   */\n      dup3\n        /* \"#utility.yul\":5201:5220   */\n      mstore\n        /* \"#utility.yul\":5253:5257   */\n      0x20\n        /* \"#utility.yul\":5248:5251   */\n      dup3\n        /* \"#utility.yul\":5244:5258   */\n      add\n        /* \"#utility.yul\":5229:5258   */\n      swap1\n      pop\n        /* \"#utility.yul\":5095:5264   */\n      swap3\n      swap2\n      pop\n      pop\n      jump\t// out\n        /* \"#utility.yul\":5270:5516   */\n    tag_66:\n        /* \"#utility.yul\":5351:5352   */\n      0x00\n        /* \"#utility.yul\":5361:5474   */\n    tag_152:\n        /* \"#utility.yul\":5375:5381   */\n      dup4\n        /* \"#utility.yul\":5372:5373   */\n      dup2\n        /* \"#utility.yul\":5369:5382   */\n      lt\n        /* \"#utility.yul\":5361:5474   */\n      iszero\n      tag_154\n      jumpi\n        /* \"#utility.yul\":5460:5461   */\n      dup1\n        /* \"#utility.yul\":5455:5458   */\n      dup3\n        /* \"#utility.yul\":5451:5462   */\n      add\n        /* \"#utility.yul\":5445:5463   */\n      mload\n        /* \"#utility.yul\":5441:5442   */\n      dup2\n        /* \"#utility.yul\":5436:5439   */\n      dup5\n        /* \"#utility.yul\":5432:5443   */\n      add\n        /* \"#utility.yul\":5425:5464   */\n      mstore\n        /* \"#utility.yul\":5397:5399   */\n      0x20\n        /* \"#utility.yul\":5394:5395   */\n      dup2\n        /* \"#utility.yul\":5390:5400   */\n      add\n        /* \"#utility.yul\":5385:5400   */\n      swap1\n      pop\n        /* \"#utility.yul\":5361:5474   */\n      jump(tag_152)\n    tag_154:\n        /* \"#utility.yul\":5508:5509   */\n      0x00\n        /* \"#utility.yul\":5499:5505   */\n      dup5\n        /* \"#utility.yul\":5494:5497   */\n      dup5\n        /* \"#utility.yul\":5490:5506   */\n      add\n        /* \"#utility.yul\":5483:5510   */\n      mstore\n        /* \"#utility.yul\":5332:5516   */\n      pop\n        /* \"#utility.yul\":5270:5516   */\n      pop\n      pop\n      pop\n      jump\t// out\n        /* \"#utility.yul\":5522:5899   */\n    tag_67:\n        /* \"#utility.yul\":5610:5613   */\n      0x00\n        /* \"#utility.yul\":5638:5677   */\n      tag_156\n        /* \"#utility.yul\":5671:5676   */\n      dup3\n        /* \"#utility.yul\":5638:5677   */\n      tag_64\n      jump\t// in\n    tag_156:\n        /* \"#utility.yul\":5693:5764   */\n      tag_157\n        /* \"#utility.yul\":5757:5763   */\n      dup2\n        /* \"#utility.yul\":5752:5755   */\n      dup6\n        /* \"#utility.yul\":5693:5764   */\n      tag_65\n      jump\t// in\n    tag_157:\n        /* \"#utility.yul\":5686:5764   */\n      swap4\n      pop\n        /* \"#utility.yul\":5773:5838   */\n      tag_158\n        /* \"#utility.yul\":5831:5837   */\n      dup2\n        /* \"#utility.yul\":5826:5829   */\n      dup6\n        /* \"#utility.yul\":5819:5823   */\n      0x20\n        /* \"#utility.yul\":5812:5817   */\n      dup7\n        /* \"#utility.yul\":5808:5824   */\n      add\n        /* \"#utility.yul\":5773:5838   */\n      tag_66\n      jump\t// in\n    tag_158:\n        /* \"#utility.yul\":5863:5892   */\n      tag_159\n        /* \"#utility.yul\":5885:5891   */\n      dup2\n        /* \"#utility.yul\":5863:5892   */\n      tag_50\n      jump\t// in\n    tag_159:\n        /* \"#utility.yul\":5858:5861   */\n      dup5\n        /* \"#utility.yul\":5854:5893   */\n      add\n        /* \"#utility.yul\":5847:5893   */\n      swap2\n      pop\n        /* \"#utility.yul\":5614:5899   */\n      pop\n        /* \"#utility.yul\":5522:5899   */\n      swap3\n      swap2\n      pop\n      pop\n      jump\t// out\n        /* \"#utility.yul\":5905:6419   */\n    tag_20:\n        /* \"#utility.yul\":6066:6070   */\n      0x00\n        /* \"#utility.yul\":6104:6106   */\n      0x40\n        /* \"#utility.yul\":6093:6102   */\n      dup3\n        /* \"#utility.yul\":6089:6107   */\n      add\n        /* \"#utility.yul\":6081:6107   */\n      swap1\n      pop\n        /* \"#utility.yul\":6153:6162   */\n      dup2\n        /* \"#utility.yul\":6147:6151   */\n      dup2\n        /* \"#utility.yul\":6143:6163   */\n      sub\n        /* \"#utility.yul\":6139:6140   */\n      0x00\n        /* \"#utility.yul\":6128:6137   */\n      dup4\n        /* \"#utility.yul\":6124:6141   */\n      add\n        /* \"#utility.yul\":6117:6164   */\n      mstore\n        /* \"#utility.yul\":6181:6259   */\n      tag_161\n        /* \"#utility.yul\":6254:6258   */\n      dup2\n        /* \"#utility.yul\":6245:6251   */\n      dup6\n        /* \"#utility.yul\":6181:6259   */\n      tag_67\n      jump\t// in\n    tag_161:\n        /* \"#utility.yul\":6173:6259   */\n      swap1\n      pop\n        /* \"#utility.yul\":6306:6315   */\n      dup2\n        /* \"#utility.yul\":6300:6304   */\n      dup2\n        /* \"#utility.yul\":6296:6316   */\n      sub\n        /* \"#utility.yul\":6291:6293   */\n      0x20\n        /* \"#utility.yul\":6280:6289   */\n      dup4\n        /* \"#utility.yul\":6276:6294   */\n      add\n        /* \"#utility.yul\":6269:6317   */\n      mstore\n        /* \"#utility.yul\":6334:6412   */\n      tag_162\n        /* \"#utility.yul\":6407:6411   */\n      dup2\n        /* \"#utility.yul\":6398:6404   */\n      dup5\n        /* \"#utility.yul\":6334:6412   */\n      tag_67\n      jump\t// in\n    tag_162:\n        /* \"#utility.yul\":6326:6412   */\n      swap1\n      pop\n        /* \"#utility.yul\":5905:6419   */\n      swap4\n      swap3\n      pop\n      pop\n      pop\n      jump\t// out\n        /* \"#utility.yul\":6425:6601   */\n    tag_68:\n        /* \"#utility.yul\":6565:6593   */\n      0x596f7520646f6e27742068617665207065726d697373696f6e73000000000000\n        /* \"#utility.yul\":6561:6562   */\n      0x00\n        /* \"#utility.yul\":6553:6559   */\n      dup3\n        /* \"#utility.yul\":6549:6563   */\n      add\n        /* \"#utility.yul\":6542:6594   */\n      mstore\n        /* \"#utility.yul\":6425:6601   */\n      pop\n      jump\t// out\n        /* \"#utility.yul\":6607:6973   */\n    tag_69:\n        /* \"#utility.yul\":6749:6752   */\n      0x00\n        /* \"#utility.yul\":6770:6837   */\n      tag_165\n        /* \"#utility.yul\":6834:6836   */\n      0x1a\n        /* \"#utility.yul\":6829:6832   */\n      dup4\n        /* \"#utility.yul\":6770:6837   */\n      tag_65\n      jump\t// in\n    tag_165:\n        /* \"#utility.yul\":6763:6837   */\n      swap2\n      pop\n        /* \"#utility.yul\":6846:6939   */\n      tag_166\n        /* \"#utility.yul\":6935:6938   */\n      dup3\n        /* \"#utility.yul\":6846:6939   */\n      tag_68\n      jump\t// in\n    tag_166:\n        /* \"#utility.yul\":6964:6966   */\n      0x20\n        /* \"#utility.yul\":6959:6962   */\n      dup3\n        /* \"#utility.yul\":6955:6967   */\n      add\n        /* \"#utility.yul\":6948:6967   */\n      swap1\n      pop\n        /* \"#utility.yul\":6607:6973   */\n      swap2\n      swap1\n      pop\n      jump\t// out\n        /* \"#utility.yul\":6979:7398   */\n    tag_27:\n        /* \"#utility.yul\":7145:7149   */\n      0x00\n        /* \"#utility.yul\":7183:7185   */\n      0x20\n        /* \"#utility.yul\":7172:7181   */\n      dup3\n        /* \"#utility.yul\":7168:7186   */\n      add\n        /* \"#utility.yul\":7160:7186   */\n      swap1\n      pop\n        /* \"#utility.yul\":7232:7241   */\n      dup2\n        /* \"#utility.yul\":7226:7230   */\n      dup2\n        /* \"#utility.yul\":7222:7242   */\n      sub\n        /* \"#utility.yul\":7218:7219   */\n      0x00\n        /* \"#utility.yul\":7207:7216   */\n      dup4\n        /* \"#utility.yul\":7203:7220   */\n      add\n        /* \"#utility.yul\":7196:7243   */\n      mstore\n        /* \"#utility.yul\":7260:7391   */\n      tag_168\n        /* \"#utility.yul\":7386:7390   */\n      dup2\n        /* \"#utility.yul\":7260:7391   */\n      tag_69\n      jump\t// in\n    tag_168:\n        /* \"#utility.yul\":7252:7391   */\n      swap1\n      pop\n        /* \"#utility.yul\":6979:7398   */\n      swap2\n      swap1\n      pop\n      jump\t// out\n        /* \"#utility.yul\":7404:7552   */\n    tag_70:\n        /* \"#utility.yul\":7506:7517   */\n      0x00\n        /* \"#utility.yul\":7543:7546   */\n      dup2\n        /* \"#utility.yul\":7528:7546   */\n      swap1\n      pop\n        /* \"#utility.yul\":7404:7552   */\n      swap3\n      swap2\n      pop\n      pop\n      jump\t// out\n        /* \"#utility.yul\":7558:7948   */\n    tag_71:\n        /* \"#utility.yul\":7664:7667   */\n      0x00\n        /* \"#utility.yul\":7692:7731   */\n      tag_171\n        /* \"#utility.yul\":7725:7730   */\n      dup3\n        /* \"#utility.yul\":7692:7731   */\n      tag_64\n      jump\t// in\n    tag_171:\n        /* \"#utility.yul\":7747:7836   */\n      tag_172\n        /* \"#utility.yul\":7829:7835   */\n      dup2\n        /* \"#utility.yul\":7824:7827   */\n      dup6\n        /* \"#utility.yul\":7747:7836   */\n      tag_70\n      jump\t// in\n    tag_172:\n        /* \"#utility.yul\":7740:7836   */\n      swap4\n      pop\n        /* \"#utility.yul\":7845:7910   */\n      tag_173\n        /* \"#utility.yul\":7903:7909   */\n      dup2\n        /* \"#utility.yul\":7898:7901   */\n      dup6\n        /* \"#utility.yul\":7891:7895   */\n      0x20\n        /* \"#utility.yul\":7884:7889   */\n      dup7\n        /* \"#utility.yul\":7880:7896   */\n      add\n        /* \"#utility.yul\":7845:7910   */\n      tag_66\n      jump\t// in\n    tag_173:\n        /* \"#utility.yul\":7935:7941   */\n      dup1\n        /* \"#utility.yul\":7930:7933   */\n      dup5\n        /* \"#utility.yul\":7926:7942   */\n      add\n        /* \"#utility.yul\":7919:7942   */\n      swap2\n      pop\n        /* \"#utility.yul\":7668:7948   */\n      pop\n        /* \"#utility.yul\":7558:7948   */\n      swap3\n      swap2\n      pop\n      pop\n      jump\t// out\n        /* \"#utility.yul\":7954:8229   */\n    tag_30:\n        /* \"#utility.yul\":8086:8089   */\n      0x00\n        /* \"#utility.yul\":8108:8203   */\n      tag_175\n        /* \"#utility.yul\":8199:8202   */\n      dup3\n        /* \"#utility.yul\":8190:8196   */\n      dup5\n        /* \"#utility.yul\":8108:8203   */\n      tag_71\n      jump\t// in\n    tag_175:\n        /* \"#utility.yul\":8101:8203   */\n      swap2\n      pop\n        /* \"#utility.yul\":8220:8223   */\n      dup2\n        /* \"#utility.yul\":8213:8223   */\n      swap1\n      pop\n        /* \"#utility.yul\":7954:8229   */\n      swap3\n      swap2\n      pop\n      pop\n      jump\t// out\n        /* \"#utility.yul\":8235:8415   */\n    tag_72:\n        /* \"#utility.yul\":8283:8360   */\n      0x4e487b7100000000000000000000000000000000000000000000000000000000\n        /* \"#utility.yul\":8280:8281   */\n      0x00\n        /* \"#utility.yul\":8273:8361   */\n      mstore\n        /* \"#utility.yul\":8380:8384   */\n      0x22\n        /* \"#utility.yul\":8377:8378   */\n      0x04\n        /* \"#utility.yul\":8370:8385   */\n      mstore\n        /* \"#utility.yul\":8404:8408   */\n      0x24\n        /* \"#utility.yul\":8401:8402   */\n      0x00\n        /* \"#utility.yul\":8394:8409   */\n      revert\n        /* \"#utility.yul\":8421:8741   */\n    tag_40:\n        /* \"#utility.yul\":8465:8471   */\n      0x00\n        /* \"#utility.yul\":8502:8503   */\n      0x02\n        /* \"#utility.yul\":8496:8500   */\n      dup3\n        /* \"#utility.yul\":8492:8504   */\n      div\n        /* \"#utility.yul\":8482:8504   */\n      swap1\n      pop\n        /* \"#utility.yul\":8549:8550   */\n      0x01\n        /* \"#utility.yul\":8543:8547   */\n      dup3\n        /* \"#utility.yul\":8539:8551   */\n      and\n        /* \"#utility.yul\":8570:8588   */\n      dup1\n        /* \"#utility.yul\":8560:8641   */\n      tag_178\n      jumpi\n        /* \"#utility.yul\":8626:8630   */\n      0x7f\n        /* \"#utility.yul\":8618:8624   */\n      dup3\n        /* \"#utility.yul\":8614:8631   */\n      and\n        /* \"#utility.yul\":8604:8631   */\n      swap2\n      pop\n        /* \"#utility.yul\":8560:8641   */\n    tag_178:\n        /* \"#utility.yul\":8688:8690   */\n      0x20\n        /* \"#utility.yul\":8680:8686   */\n      dup3\n        /* \"#utility.yul\":8677:8691   */\n      lt\n        /* \"#utility.yul\":8657:8675   */\n      dup2\n        /* \"#utility.yul\":8654:8692   */\n      sub\n        /* \"#utility.yul\":8651:8735   */\n      tag_179\n      jumpi\n        /* \"#utility.yul\":8707:8725   */\n      tag_180\n      tag_72\n      jump\t// in\n    tag_180:\n        /* \"#utility.yul\":8651:8735   */\n    tag_179:\n        /* \"#utility.yul\":8472:8741   */\n      pop\n        /* \"#utility.yul\":8421:8741   */\n      swap2\n      swap1\n      pop\n      jump\t// out\n        /* \"#utility.yul\":8747:8888   */\n    tag_73:\n        /* \"#utility.yul\":8796:8800   */\n      0x00\n        /* \"#utility.yul\":8819:8822   */\n      dup2\n        /* \"#utility.yul\":8811:8822   */\n      swap1\n      pop\n        /* \"#utility.yul\":8842:8845   */\n      dup2\n        /* \"#utility.yul\":8839:8840   */\n      0x00\n        /* \"#utility.yul\":8832:8846   */\n      mstore\n        /* \"#utility.yul\":8876:8880   */\n      0x20\n        /* \"#utility.yul\":8873:8874   */\n      0x00\n        /* \"#utility.yul\":8863:8881   */\n      keccak256\n        /* \"#utility.yul\":8855:8881   */\n      swap1\n      pop\n        /* \"#utility.yul\":8747:8888   */\n      swap2\n      swap1\n      pop\n      jump\t// out\n        /* \"#utility.yul\":8894:8987   */\n    tag_74:\n        /* \"#utility.yul\":8931:8937   */\n      0x00\n        /* \"#utility.yul\":8978:8980   */\n      0x20\n        /* \"#utility.yul\":8973:8975   */\n      0x1f\n        /* \"#utility.yul\":8966:8971   */\n      dup4\n        /* \"#utility.yul\":8962:8976   */\n      add\n        /* \"#utility.yul\":8958:8981   */\n      div\n        /* \"#utility.yul\":8948:8981   */\n      swap1\n      pop\n        /* \"#utility.yul\":8894:8987   */\n      swap2\n      swap1\n      pop\n      jump\t// out\n        /* \"#utility.yul\":8993:9100   */\n    tag_75:\n        /* \"#utility.yul\":9037:9045   */\n      0x00\n        /* \"#utility.yul\":9087:9092   */\n      dup3\n        /* \"#utility.yul\":9081:9085   */\n      dup3\n        /* \"#utility.yul\":9077:9093   */\n      shl\n        /* \"#utility.yul\":9056:9093   */\n      swap1\n      pop\n        /* \"#utility.yul\":8993:9100   */\n      swap3\n      swap2\n      pop\n      pop\n      jump\t// out\n        /* \"#utility.yul\":9106:9499   */\n    tag_76:\n        /* \"#utility.yul\":9175:9181   */\n      0x00\n        /* \"#utility.yul\":9225:9226   */\n      0x08\n        /* \"#utility.yul\":9213:9223   */\n      dup4\n        /* \"#utility.yul\":9209:9227   */\n      mul\n        /* \"#utility.yul\":9248:9345   */\n      tag_185\n        /* \"#utility.yul\":9278:9344   */\n      0xffffffffffffffffffffffffffffffffffffffffffffffffffffffffffffffff\n        /* \"#utility.yul\":9267:9276   */\n      dup3\n        /* \"#utility.yul\":9248:9345   */\n      tag_75\n      jump\t// in\n    tag_185:\n        /* \"#utility.yul\":9366:9405   */\n      tag_186\n        /* \"#utility.yul\":9396:9404   */\n      dup7\n        /* \"#utility.yul\":9385:9394   */\n      dup4\n        /* \"#utility.yul\":9366:9405   */\n      tag_75\n      jump\t// in\n    tag_186:\n        /* \"#utility.yul\":9354:9405   */\n      swap6\n      pop\n        /* \"#utility.yul\":9438:9442   */\n      dup1\n        /* \"#utility.yul\":9434:9443   */\n      not\n        /* \"#utility.yul\":9427:9432   */\n      dup5\n        /* \"#utility.yul\":9423:9444   */\n      and\n        /* \"#utility.yul\":9414:9444   */\n      swap4\n      pop\n        /* \"#utility.yul\":9487:9491   */\n      dup1\n        /* \"#utility.yul\":9477:9485   */\n      dup7\n        /* \"#utility.yul\":9473:9492   */\n      and\n        /* \"#utility.yul\":9466:9471   */\n      dup5\n        /* \"#utility.yul\":9463:9493   */\n      or\n        /* \"#utility.yul\":9453:9493   */\n      swap3\n      pop\n        /* \"#utility.yul\":9182:9499   */\n      pop\n      pop\n        /* \"#utility.yul\":9106:9499   */\n      swap4\n      swap3\n      pop\n      pop\n      pop\n      jump\t// out\n        /* \"#utility.yul\":9505:9582   */\n    tag_77:\n        /* \"#utility.yul\":9542:9549   */\n      0x00\n        /* \"#utility.yul\":9571:9576   */\n      dup2\n        /* \"#utility.yul\":9560:9576   */\n      swap1\n      pop\n        /* \"#utility.yul\":9505:9582   */\n      swap2\n      swap1\n      pop\n      jump\t// out\n        /* \"#utility.yul\":9588:9648   */\n    tag_78:\n        /* \"#utility.yul\":9616:9619   */\n      0x00\n        /* \"#utility.yul\":9637:9642   */\n      dup2\n        /* \"#utility.yul\":9630:9642   */\n      swap1\n      pop\n        /* \"#utility.yul\":9588:9648   */\n      swap2\n      swap1\n      pop\n      jump\t// out\n        /* \"#utility.yul\":9654:9796   */\n    tag_79:\n        /* \"#utility.yul\":9704:9713   */\n      0x00\n        /* \"#utility.yul\":9737:9790   */\n      tag_190\n        /* \"#utility.yul\":9755:9789   */\n      tag_191\n        /* \"#utility.yul\":9764:9788   */\n      tag_192\n        /* \"#utility.yul\":9782:9787   */\n      dup5\n        /* \"#utility.yul\":9764:9788   */\n      tag_77\n      jump\t// in\n    tag_192:\n        /* \"#utility.yul\":9755:9789   */\n      tag_78\n      jump\t// in\n    tag_191:\n        /* \"#utility.yul\":9737:9790   */\n      tag_77\n      jump\t// in\n    tag_190:\n        /* \"#utility.yul\":9724:9790   */\n      swap1\n      pop\n        /* \"#utility.yul\":9654:9796   */\n      swap2\n      swap1\n      pop\n      jump\t// out\n        /* \"#utility.yul\":9802:9877   */\n    tag_80:\n        /* \"#utility.yul\":9845:9848   */\n      0x00\n        /* \"#utility.yul\":9866:9871   */\n      dup2\n        /* \"#utility.yul\":9859:9871   */\n      swap1\n      pop\n        /* \"#utility.yul\":9802:9877   */\n      swap2\n      swap1\n      pop\n      jump\t// out\n        /* \"#utility.yul\":9883:10152   */\n    tag_81:\n        /* \"#utility.yul\":9993:10032   */\n      tag_195\n        /* \"#utility.yul\":10024:10031   */\n      dup4\n        /* \"#utility.yul\":9993:10032   */\n      tag_79\n      jump\t// in\n    tag_195:\n        /* \"#utility.yul\":10054:10145   */\n      tag_196\n        /* \"#utility.yul\":10103:10144   */\n      tag_197\n        /* \"#utility.yul\":10127:10143   */\n      dup3\n        /* \"#utility.yul\":10103:10144   */\n      tag_80\n      jump\t// in\n    tag_197:\n        /* \"#utility.yul\":10095:10101   */\n      dup5\n        /* \"#utility.yul\":10088:10092   */\n      dup5\n        /* \"#utility.yul\":10082:10093   */\n      sload\n        /* \"#utility.yul\":10054:10145   */\n      tag_76\n      jump\t// in\n    tag_196:\n        /* \"#utility.yul\":10048:10052   */\n      dup3\n        /* \"#utility.yul\":10041:10146   */\n      sstore\n        /* \"#utility.yul\":9959:10152   */\n      pop\n        /* \"#utility.yul\":9883:10152   */\n      pop\n      pop\n      pop\n      jump\t// out\n        /* \"#utility.yul\":10158:10231   */\n    tag_82:\n        /* \"#utility.yul\":10203:10206   */\n      0x00\n        /* \"#utility.yul\":10158:10231   */\n      swap1\n      jump\t// out\n        /* \"#utility.yul\":10237:10426   */\n    tag_83:\n        /* \"#utility.yul\":10314:10346   */\n      tag_200\n      tag_82\n      jump\t// in\n    tag_200:\n        /* \"#utility.yul\":10355:10420   */\n      tag_201\n        /* \"#utility.yul\":10413:10419   */\n      dup2\n        /* \"#utility.yul\":10405:10411   */\n      dup5\n        /* \"#utility.yul\":10399:10403   */\n      dup5\n        /* \"#utility.yul\":10355:10420   */\n      tag_81\n      jump\t// in\n    tag_201:\n        /* \"#utility.yul\":10290:10426   */\n      pop\n        /* \"#utility.yul\":10237:10426   */\n      pop\n      pop\n      jump\t// out\n        /* \"#utility.yul\":10432:10618   */\n    tag_84:\n        /* \"#utility.yul\":10492:10612   */\n    tag_203:\n        /* \"#utility.yul\":10509:10512   */\n      dup2\n        /* \"#utility.yul\":10502:10507   */\n      dup2\n        /* \"#utility.yul\":10499:10513   */\n      lt\n        /* \"#utility.yul\":10492:10612   */\n      iszero\n      tag_205\n      jumpi\n        /* \"#utility.yul\":10563:10602   */\n      tag_206\n        /* \"#utility.yul\":10600:10601   */\n      0x00\n        /* \"#utility.yul\":10593:10598   */\n      dup3\n        /* \"#utility.yul\":10563:10602   */\n      tag_83\n      jump\t// in\n    tag_206:\n        /* \"#utility.yul\":10536:10537   */\n      0x01\n        /* \"#utility.yul\":10529:10534   */\n      dup2\n        /* \"#utility.yul\":10525:10538   */\n      add\n        /* \"#utility.yul\":10516:10538   */\n      swap1\n      pop\n        /* \"#utility.yul\":10492:10612   */\n      jump(tag_203)\n    tag_205:\n        /* \"#utility.yul\":10432:10618   */\n      pop\n      pop\n      jump\t// out\n        /* \"#utility.yul\":10624:11167   */\n    tag_85:\n        /* \"#utility.yul\":10725:10727   */\n      0x1f\n        /* \"#utility.yul\":10720:10723   */\n      dup3\n        /* \"#utility.yul\":10717:10728   */\n      gt\n        /* \"#utility.yul\":10714:11160   */\n      iszero\n      tag_208\n      jumpi\n        /* \"#utility.yul\":10759:10797   */\n      tag_209\n        /* \"#utility.yul\":10791:10796   */\n      dup2\n        /* \"#utility.yul\":10759:10797   */\n      tag_73\n      jump\t// in\n    tag_209:\n        /* \"#utility.yul\":10843:10872   */\n      tag_210\n        /* \"#utility.yul\":10861:10871   */\n      dup5\n        /* \"#utility.yul\":10843:10872   */\n      tag_74\n      jump\t// in\n    tag_210:\n        /* \"#utility.yul\":10833:10841   */\n      dup2\n        /* \"#utility.yul\":10829:10873   */\n      add\n        /* \"#utility.yul\":11026:11028   */\n      0x20\n        /* \"#utility.yul\":11014:11024   */\n      dup6\n        /* \"#utility.yul\":11011:11029   */\n      lt\n        /* \"#utility.yul\":11008:11057   */\n      iszero\n      tag_211\n      jumpi\n        /* \"#utility.yul\":11047:11055   */\n      dup2\n        /* \"#utility.yul\":11032:11055   */\n      swap1\n      pop\n        /* \"#utility.yul\":11008:11057   */\n    tag_211:\n        /* \"#utility.yul\":11070:11150   */\n      tag_212\n        /* \"#utility.yul\":11126:11148   */\n      tag_213\n        /* \"#utility.yul\":11144:11147   */\n      dup6\n        /* \"#utility.yul\":11126:11148   */\n      tag_74\n      jump\t// in\n    tag_213:\n        /* \"#utility.yul\":11116:11124   */\n      dup4\n        /* \"#utility.yul\":11112:11149   */\n      add\n        /* \"#utility.yul\":11099:11110   */\n      dup3\n        /* \"#utility.yul\":11070:11150   */\n      tag_84\n      jump\t// in\n    tag_212:\n        /* \"#utility.yul\":10729:11160   */\n      pop\n      pop\n        /* \"#utility.yul\":10714:11160   */\n    tag_208:\n        /* \"#utility.yul\":10624:11167   */\n      pop\n      pop\n      pop\n      jump\t// out\n        /* \"#utility.yul\":11173:11290   */\n    tag_86:\n        /* \"#utility.yul\":11227:11235   */\n      0x00\n        /* \"#utility.yul\":11277:11282   */\n      dup3\n        /* \"#utility.yul\":11271:11275   */\n      dup3\n        /* \"#utility.yul\":11267:11283   */\n      shr\n        /* \"#utility.yul\":11246:11283   */\n      swap1\n      pop\n        /* \"#utility.yul\":11173:11290   */\n      swap3\n      swap2\n      pop\n      pop\n      jump\t// out\n        /* \"#utility.yul\":11296:11465   */\n    tag_87:\n        /* \"#utility.yul\":11340:11346   */\n      0x00\n        /* \"#utility.yul\":11373:11424   */\n      tag_216\n        /* \"#utility.yul\":11421:11422   */\n      0x00\n        /* \"#utility.yul\":11417:11423   */\n      not\n        /* \"#utility.yul\":11409:11414   */\n      dup5\n        /* \"#utility.yul\":11406:11407   */\n      0x08\n        /* \"#utility.yul\":11402:11415   */\n      mul\n        /* \"#utility.yul\":11373:11424   */\n      tag_86\n      jump\t// in\n    tag_216:\n        /* \"#utility.yul\":11369:11425   */\n      not\n        /* \"#utility.yul\":11454:11458   */\n      dup1\n        /* \"#utility.yul\":11448:11452   */\n      dup4\n        /* \"#utility.yul\":11444:11459   */\n      and\n        /* \"#utility.yul\":11434:11459   */\n      swap2\n      pop\n        /* \"#utility.yul\":11347:11465   */\n      pop\n        /* \"#utility.yul\":11296:11465   */\n      swap3\n      swap2\n      pop\n      pop\n      jump\t// out\n        /* \"#utility.yul\":11470:11765   */\n    tag_88:\n        /* \"#utility.yul\":11546:11550   */\n      0x00\n        /* \"#utility.yul\":11692:11721   */\n      tag_218\n        /* \"#utility.yul\":11717:11720   */\n      dup4\n        /* \"#utility.yul\":11711:11715   */\n      dup4\n        /* \"#utility.yul\":11692:11721   */\n      tag_87\n      jump\t// in\n    tag_218:\n        /* \"#utility.yul\":11684:11721   */\n      swap2\n      pop\n        /* \"#utility.yul\":11754:11757   */\n      dup3\n        /* \"#utility.yul\":11751:11752   */\n      0x02\n        /* \"#utility.yul\":11747:11758   */\n      mul\n        /* \"#utility.yul\":11741:11745   */\n      dup3\n        /* \"#utility.yul\":11738:11759   */\n      or\n        /* \"#utility.yul\":11730:11759   */\n      swap1\n      pop\n        /* \"#utility.yul\":11470:11765   */\n      swap3\n      swap2\n      pop\n      pop\n      jump\t// out\n        /* \"#utility.yul\":11770:13165   */\n    tag_32:\n        /* \"#utility.yul\":11887:11924   */\n      tag_220\n        /* \"#utility.yul\":11920:11923   */\n      dup3\n        /* \"#utility.yul\":11887:11924   */\n      tag_64\n      jump\t// in\n    tag_220:\n        /* \"#utility.yul\":11989:12007   */\n      0xffffffffffffffff\n        /* \"#utility.yul\":11981:11987   */\n      dup2\n        /* \"#utility.yul\":11978:12008   */\n      gt\n        /* \"#utility.yul\":11975:12031   */\n      iszero\n      tag_221\n      jumpi\n        /* \"#utility.yul\":12011:12029   */\n      tag_222\n      tag_51\n      jump\t// in\n    tag_222:\n        /* \"#utility.yul\":11975:12031   */\n    tag_221:\n        /* \"#utility.yul\":12055:12093   */\n      tag_223\n        /* \"#utility.yul\":12087:12091   */\n      dup3\n        /* \"#utility.yul\":12081:12092   */\n      sload\n        /* \"#utility.yul\":12055:12093   */\n      tag_40\n      jump\t// in\n    tag_223:\n        /* \"#utility.yul\":12140:12207   */\n      tag_224\n        /* \"#utility.yul\":12200:12206   */\n      dup3\n        /* \"#utility.yul\":12192:12198   */\n      dup3\n        /* \"#utility.yul\":12186:12190   */\n      dup6\n        /* \"#utility.yul\":12140:12207   */\n      tag_85\n      jump\t// in\n    tag_224:\n        /* \"#utility.yul\":12234:12235   */\n      0x00\n        /* \"#utility.yul\":12258:12262   */\n      0x20\n        /* \"#utility.yul\":12245:12262   */\n      swap1\n      pop\n        /* \"#utility.yul\":12290:12292   */\n      0x1f\n        /* \"#utility.yul\":12282:12288   */\n      dup4\n        /* \"#utility.yul\":12279:12293   */\n      gt\n        /* \"#utility.yul\":12307:12308   */\n      0x01\n        /* \"#utility.yul\":12302:12920   */\n      dup2\n      eq\n      tag_226\n      jumpi\n        /* \"#utility.yul\":12964:12965   */\n      0x00\n        /* \"#utility.yul\":12981:12987   */\n      dup5\n        /* \"#utility.yul\":12978:13055   */\n      iszero\n      tag_227\n      jumpi\n        /* \"#utility.yul\":13030:13039   */\n      dup3\n        /* \"#utility.yul\":13025:13028   */\n      dup8\n        /* \"#utility.yul\":13021:13040   */\n      add\n        /* \"#utility.yul\":13015:13041   */\n      mload\n        /* \"#utility.yul\":13006:13041   */\n      swap1\n      pop\n        /* \"#utility.yul\":12978:13055   */\n    tag_227:\n        /* \"#utility.yul\":13081:13148   */\n      tag_228\n        /* \"#utility.yul\":13141:13147   */\n      dup6\n        /* \"#utility.yul\":13134:13139   */\n      dup3\n        /* \"#utility.yul\":13081:13148   */\n      tag_88\n      jump\t// in\n    tag_228:\n        /* \"#utility.yul\":13075:13079   */\n      dup7\n        /* \"#utility.yul\":13068:13149   */\n      sstore\n        /* \"#utility.yul\":12937:13159   */\n      pop\n        /* \"#utility.yul\":12272:13159   */\n      jump(tag_225)\n        /* \"#utility.yul\":12302:12920   */\n    tag_226:\n        /* \"#utility.yul\":12354:12358   */\n      0x1f\n        /* \"#utility.yul\":12350:12359   */\n      not\n        /* \"#utility.yul\":12342:12348   */\n      dup5\n        /* \"#utility.yul\":12338:12360   */\n      and\n        /* \"#utility.yul\":12388:12425   */\n      tag_229\n        /* \"#utility.yul\":12420:12424   */\n      dup7\n        /* \"#utility.yul\":12388:12425   */\n      tag_73\n      jump\t// in\n    tag_229:\n        /* \"#utility.yul\":12447:12448   */\n      0x00\n        /* \"#utility.yul\":12461:12669   */\n    tag_230:\n        /* \"#utility.yul\":12475:12482   */\n      dup3\n        /* \"#utility.yul\":12472:12473   */\n      dup2\n        /* \"#utility.yul\":12469:12483   */\n      lt\n        /* \"#utility.yul\":12461:12669   */\n      iszero\n      tag_232\n      jumpi\n        /* \"#utility.yul\":12554:12563   */\n      dup5\n        /* \"#utility.yul\":12549:12552   */\n      dup10\n        /* \"#utility.yul\":12545:12564   */\n      add\n        /* \"#utility.yul\":12539:12565   */\n      mload\n        /* \"#utility.yul\":12531:12537   */\n      dup3\n        /* \"#utility.yul\":12524:12566   */\n      sstore\n        /* \"#utility.yul\":12605:12606   */\n      0x01\n        /* \"#utility.yul\":12597:12603   */\n      dup3\n        /* \"#utility.yul\":12593:12607   */\n      add\n        /* \"#utility.yul\":12583:12607   */\n      swap2\n      pop\n        /* \"#utility.yul\":12652:12654   */\n      0x20\n        /* \"#utility.yul\":12641:12650   */\n      dup6\n        /* \"#utility.yul\":12637:12655   */\n      add\n        /* \"#utility.yul\":12624:12655   */\n      swap5\n      pop\n        /* \"#utility.yul\":12498:12502   */\n      0x20\n        /* \"#utility.yul\":12495:12496   */\n      dup2\n        /* \"#utility.yul\":12491:12503   */\n      add\n        /* \"#utility.yul\":12486:12503   */\n      swap1\n      pop\n        /* \"#utility.yul\":12461:12669   */\n      jump(tag_230)\n    tag_232:\n        /* \"#utility.yul\":12697:12703   */\n      dup7\n        /* \"#utility.yul\":12688:12695   */\n      dup4\n        /* \"#utility.yul\":12685:12704   */\n      lt\n        /* \"#utility.yul\":12682:12861   */\n      iszero\n      tag_233\n      jumpi\n        /* \"#utility.yul\":12755:12764   */\n      dup5\n        /* \"#utility.yul\":12750:12753   */\n      dup10\n        /* \"#utility.yul\":12746:12765   */\n      add\n        /* \"#utility.yul\":12740:12766   */\n      mload\n        /* \"#utility.yul\":12798:12846   */\n      tag_234\n        /* \"#utility.yul\":12840:12844   */\n      0x1f\n        /* \"#utility.yul\":12832:12838   */\n      dup10\n        /* \"#utility.yul\":12828:12845   */\n      and\n        /* \"#utility.yul\":12817:12826   */\n      dup3\n        /* \"#utility.yul\":12798:12846   */\n      tag_87\n      jump\t// in\n    tag_234:\n        /* \"#utility.yul\":12790:12796   */\n      dup4\n        /* \"#utility.yul\":12783:12847   */\n      sstore\n        /* \"#utility.yul\":12705:12861   */\n      pop\n        /* \"#utility.yul\":12682:12861   */\n    tag_233:\n        /* \"#utility.yul\":12907:12908   */\n      0x01\n        /* \"#utility.yul\":12903:12904   */\n      0x02\n        /* \"#utility.yul\":12895:12901   */\n      dup9\n        /* \"#utility.yul\":12891:12905   */\n      mul\n        /* \"#utility.yul\":12887:12909   */\n      add\n        /* \"#utility.yul\":12881:12885   */\n      dup9\n        /* \"#utility.yul\":12874:12910   */\n      sstore\n        /* \"#utility.yul\":12309:12920   */\n      pop\n      pop\n      pop\n        /* \"#utility.yul\":12272:13159   */\n    tag_225:\n      pop\n        /* \"#utility.yul\":11862:13165   */\n      pop\n      pop\n      pop\n        /* \"#utility.yul\":11770:13165   */\n      pop\n      pop\n      jump\t// out\n        /* \"#utility.yul\":13171:13280   */\n    tag_89:\n        /* \"#utility.yul\":13252:13273   */\n      tag_236\n        /* \"#utility.yul\":13267:13272   */\n      dup2\n        /* \"#utility.yul\":13252:13273   */\n      tag_58\n      jump\t// in\n    tag_236:\n        /* \"#utility.yul\":13247:13250   */\n      dup3\n        /* \"#utility.yul\":13240:13274   */\n      mstore\n        /* \"#utility.yul\":13171:13280   */\n      pop\n      pop\n      jump\t// out\n        /* \"#utility.yul\":13286:13697   */\n    tag_34:\n        /* \"#utility.yul\":13421:13425   */\n      0x00\n        /* \"#utility.yul\":13459:13461   */\n      0x40\n        /* \"#utility.yul\":13448:13457   */\n      dup3\n        /* \"#utility.yul\":13444:13462   */\n      add\n        /* \"#utility.yul\":13436:13462   */\n      swap1\n      pop\n        /* \"#utility.yul\":13472:13537   */\n      tag_238\n        /* \"#utility.yul\":13534:13535   */\n      0x00\n        /* \"#utility.yul\":13523:13532   */\n      dup4\n        /* \"#utility.yul\":13519:13536   */\n      add\n        /* \"#utility.yul\":13510:13516   */\n      dup6\n        /* \"#utility.yul\":13472:13537   */\n      tag_89\n      jump\t// in\n    tag_238:\n        /* \"#utility.yul\":13584:13593   */\n      dup2\n        /* \"#utility.yul\":13578:13582   */\n      dup2\n        /* \"#utility.yul\":13574:13594   */\n      sub\n        /* \"#utility.yul\":13569:13571   */\n      0x20\n        /* \"#utility.yul\":13558:13567   */\n      dup4\n        /* \"#utility.yul\":13554:13572   */\n      add\n        /* \"#utility.yul\":13547:13595   */\n      mstore\n        /* \"#utility.yul\":13612:13690   */\n      tag_239\n        /* \"#utility.yul\":13685:13689   */\n      dup2\n        /* \"#utility.yul\":13676:13682   */\n      dup5\n        /* \"#utility.yul\":13612:13690   */\n      tag_67\n      jump\t// in\n    tag_239:\n        /* \"#utility.yul\":13604:13690   */\n      swap1\n      pop\n        /* \"#utility.yul\":13286:13697   */\n      swap4\n      swap3\n      pop\n      pop\n      pop\n      jump\t// out\n\n    auxdata: 0xa26469706673582212204f546a04faa84cbd8c813b519887a0a73a76c55607cf5d3188043e117ae9d8f764736f6c63430008160033\n}\n",
				"bytecode": {
					"linkReferences": {},
					"object": "608060405234801561000f575f80fd5b50604051610c90380380610c9083398181016040528101906100319190610114565b805f806101000a81548173ffffffffffffffffffffffffffffffffffffffff021916908373ffffffffffffffffffffffffffffffffffffffff1602179055503060015f6101000a81548173ffffffffffffffffffffffffffffffffffffffff021916908373ffffffffffffffffffffffffffffffffffffffff1602179055505061013f565b5f80fd5b5f73ffffffffffffffffffffffffffffffffffffffff82169050919050565b5f6100e3826100ba565b9050919050565b6100f3816100d9565b81146100fd575f80fd5b50565b5f8151905061010e816100ea565b92915050565b5f60208284031215610129576101286100b6565b5b5f61013684828501610100565b91505092915050565b610b448061014c5f395ff3fe608060405234801561000f575f80fd5b506004361061004a575f3560e01c80630cd5662c1461004e5780638f13c4041461006a578063ef6fa83614610088578063f6b4dfb4146100b9575b5f80fd5b61006860048036038101906100639190610571565b6100d7565b005b61007261022d565b60405161007f9190610638565b60405180910390f35b6100a2600480360381019061009d9190610651565b610250565b6040516100b0929190610712565b60405180910390f35b6100c16103ca565b6040516100ce9190610638565b60405180910390f35b335f8054906101000a900473ffffffffffffffffffffffffffffffffffffffff1673ffffffffffffffffffffffffffffffffffffffff168173ffffffffffffffffffffffffffffffffffffffff1614610165576040517f08c379a000000000000000000000000000000000000000000000000000000000815260040161015c90610791565b60405180910390fd5b5f8460405160200161017791906107e9565b604051602081830303815290604052805190602001209050604051806040016040528085151581526020018481525060025f8381526020019081526020015f205f820151815f015f6101000a81548160ff02191690831515021790555060208201518160010190816101e99190610a02565b509050507f1ca780be614113b3e639b9c4bba4f21cb45139ef8d48f54ca3f8d9852db387b0848460405161021e929190610ae0565b60405180910390a15050505050565b5f8054906101000a900473ffffffffffffffffffffffffffffffffffffffff1681565b6060805f8360405160200161026591906107e9565b60405160208183030381529060405280519060200120905060606001151560025f8481526020019081526020015f205f015f9054906101000a900460ff161515036102e7576040518060400160405280600881526020017f506f7369746976650000000000000000000000000000000000000000000000008152509050610320565b6040518060400160405280600881526020017f4e6567617469766500000000000000000000000000000000000000000000000081525090505b8060025f8481526020019081526020015f206001018080546103419061082c565b80601f016020809104026020016040519081016040528092919081815260200182805461036d9061082c565b80156103b85780601f1061038f576101008083540402835291602001916103b8565b820191905f5260205f20905b81548152906001019060200180831161039b57829003601f168201915b50505050509050935093505050915091565b60015f9054906101000a900473ffffffffffffffffffffffffffffffffffffffff1681565b5f604051905090565b5f80fd5b5f80fd5b5f80fd5b5f80fd5b5f601f19601f8301169050919050565b7f4e487b71000000000000000000000000000000000000000000000000000000005f52604160045260245ffd5b61044e82610408565b810181811067ffffffffffffffff8211171561046d5761046c610418565b5b80604052505050565b5f61047f6103ef565b905061048b8282610445565b919050565b5f67ffffffffffffffff8211156104aa576104a9610418565b5b6104b382610408565b9050602081019050919050565b828183375f83830152505050565b5f6104e06104db84610490565b610476565b9050828152602081018484840111156104fc576104fb610404565b5b6105078482856104c0565b509392505050565b5f82601f83011261052357610522610400565b5b81356105338482602086016104ce565b91505092915050565b5f8115159050919050565b6105508161053c565b811461055a575f80fd5b50565b5f8135905061056b81610547565b92915050565b5f805f60608486031215610588576105876103f8565b5b5f84013567ffffffffffffffff8111156105a5576105a46103fc565b5b6105b18682870161050f565b93505060206105c28682870161055d565b925050604084013567ffffffffffffffff8111156105e3576105e26103fc565b5b6105ef8682870161050f565b9150509250925092565b5f73ffffffffffffffffffffffffffffffffffffffff82169050919050565b5f610622826105f9565b9050919050565b61063281610618565b82525050565b5f60208201905061064b5f830184610629565b92915050565b5f60208284031215610666576106656103f8565b5b5f82013567ffffffffffffffff811115610683576106826103fc565b5b61068f8482850161050f565b91505092915050565b5f81519050919050565b5f82825260208201905092915050565b5f5b838110156106cf5780820151818401526020810190506106b4565b5f8484015250505050565b5f6106e482610698565b6106ee81856106a2565b93506106fe8185602086016106b2565b61070781610408565b840191505092915050565b5f6040820190508181035f83015261072a81856106da565b9050818103602083015261073e81846106da565b90509392505050565b7f596f7520646f6e27742068617665207065726d697373696f6e730000000000005f82015250565b5f61077b601a836106a2565b915061078682610747565b602082019050919050565b5f6020820190508181035f8301526107a88161076f565b9050919050565b5f81905092915050565b5f6107c382610698565b6107cd81856107af565b93506107dd8185602086016106b2565b80840191505092915050565b5f6107f482846107b9565b915081905092915050565b7f4e487b71000000000000000000000000000000000000000000000000000000005f52602260045260245ffd5b5f600282049050600182168061084357607f821691505b602082108103610856576108556107ff565b5b50919050565b5f819050815f5260205f209050919050565b5f6020601f8301049050919050565b5f82821b905092915050565b5f600883026108b87fffffffffffffffffffffffffffffffffffffffffffffffffffffffffffffffff8261087d565b6108c2868361087d565b95508019841693508086168417925050509392505050565b5f819050919050565b5f819050919050565b5f6109066109016108fc846108da565b6108e3565b6108da565b9050919050565b5f819050919050565b61091f836108ec565b61093361092b8261090d565b848454610889565b825550505050565b5f90565b61094761093b565b610952818484610916565b505050565b5b818110156109755761096a5f8261093f565b600181019050610958565b5050565b601f8211156109ba5761098b8161085c565b6109948461086e565b810160208510156109a3578190505b6109b76109af8561086e565b830182610957565b50505b505050565b5f82821c905092915050565b5f6109da5f19846008026109bf565b1980831691505092915050565b5f6109f283836109cb565b9150826002028217905092915050565b610a0b82610698565b67ffffffffffffffff811115610a2457610a23610418565b5b610a2e825461082c565b610a39828285610979565b5f60209050601f831160018114610a6a575f8415610a58578287015190505b610a6285826109e7565b865550610ac9565b601f198416610a788661085c565b5f5b82811015610a9f57848901518255600182019150602085019450602081019050610a7a565b86831015610abc5784890151610ab8601f8916826109cb565b8355505b6001600288020188555050505b505050505050565b610ada8161053c565b82525050565b5f604082019050610af35f830185610ad1565b8181036020830152610b0581846106da565b9050939250505056fea26469706673582212204f546a04faa84cbd8c813b519887a0a73a76c55607cf5d3188043e117ae9d8f764736f6c63430008160033",
					"opcodes": "PUSH1 0x80 PUSH1 0x40 MSTORE CALLVALUE DUP1 ISZERO PUSH2 0xF JUMPI PUSH0 DUP1 REVERT JUMPDEST POP PUSH1 0x40 MLOAD PUSH2 0xC90 CODESIZE SUB DUP1 PUSH2 0xC90 DUP4 CODECOPY DUP2 DUP2 ADD PUSH1 0x40 MSTORE DUP2 ADD SWAP1 PUSH2 0x31 SWAP2 SWAP1 PUSH2 0x114 JUMP JUMPDEST DUP1 PUSH0 DUP1 PUSH2 0x100 EXP DUP2 SLOAD DUP2 PUSH20 0xFFFFFFFFFFFFFFFFFFFFFFFFFFFFFFFFFFFFFFFF MUL NOT AND SWAP1 DUP4 PUSH20 0xFFFFFFFFFFFFFFFFFFFFFFFFFFFFFFFFFFFFFFFF AND MUL OR SWAP1 SSTORE POP ADDRESS PUSH1 0x1 PUSH0 PUSH2 0x100 EXP DUP2 SLOAD DUP2 PUSH20 0xFFFFFFFFFFFFFFFFFFFFFFFFFFFFFFFFFFFFFFFF MUL NOT AND SWAP1 DUP4 PUSH20 0xFFFFFFFFFFFFFFFFFFFFFFFFFFFFFFFFFFFFFFFF AND MUL OR SWAP1 SSTORE POP POP PUSH2 0x13F JUMP JUMPDEST PUSH0 DUP1 REVERT JUMPDEST PUSH0 PUSH20 0xFFFFFFFFFFFFFFFFFFFFFFFFFFFFFFFFFFFFFFFF DUP3 AND SWAP1 POP SWAP2 SWAP1 POP JUMP JUMPDEST PUSH0 PUSH2 0xE3 DUP3 PUSH2 0xBA JUMP JUMPDEST SWAP1 POP SWAP2 SWAP1 POP JUMP JUMPDEST PUSH2 0xF3 DUP2 PUSH2 0xD9 JUMP JUMPDEST DUP2 EQ PUSH2 0xFD JUMPI PUSH0 DUP1 REVERT JUMPDEST POP JUMP JUMPDEST PUSH0 DUP2 MLOAD SWAP1 POP PUSH2 0x10E DUP2 PUSH2 0xEA JUMP JUMPDEST SWAP3 SWAP2 POP POP JUMP JUMPDEST PUSH0 PUSH1 0x20 DUP3 DUP5 SUB SLT ISZERO PUSH2 0x129 JUMPI PUSH2 0x128 PUSH2 0xB6 JUMP JUMPDEST JUMPDEST PUSH0 PUSH2 0x136 DUP5 DUP3 DUP6 ADD PUSH2 0x100 JUMP JUMPDEST SWAP2 POP POP SWAP3 SWAP2 POP POP JUMP JUMPDEST PUSH2 0xB44 DUP1 PUSH2 0x14C PUSH0 CODECOPY PUSH0 RETURN INVALID PUSH1 0x80 PUSH1 0x40 MSTORE CALLVALUE DUP1 ISZERO PUSH2 0xF JUMPI PUSH0 DUP1 REVERT JUMPDEST POP PUSH1 0x4 CALLDATASIZE LT PUSH2 0x4A JUMPI PUSH0 CALLDATALOAD PUSH1 0xE0 SHR DUP1 PUSH4 0xCD5662C EQ PUSH2 0x4E JUMPI DUP1 PUSH4 0x8F13C404 EQ PUSH2 0x6A JUMPI DUP1 PUSH4 0xEF6FA836 EQ PUSH2 0x88 JUMPI DUP1 PUSH4 0xF6B4DFB4 EQ PUSH2 0xB9 JUMPI JUMPDEST PUSH0 DUP1 REVERT JUMPDEST PUSH2 0x68 PUSH1 0x4 DUP1 CALLDATASIZE SUB DUP2 ADD SWAP1 PUSH2 0x63 SWAP2 SWAP1 PUSH2 0x571 JUMP JUMPDEST PUSH2 0xD7 JUMP JUMPDEST STOP JUMPDEST PUSH2 0x72 PUSH2 0x22D JUMP JUMPDEST PUSH1 0x40 MLOAD PUSH2 0x7F SWAP2 SWAP1 PUSH2 0x638 JUMP JUMPDEST PUSH1 0x40 MLOAD DUP1 SWAP2 SUB SWAP1 RETURN JUMPDEST PUSH2 0xA2 PUSH1 0x4 DUP1 CALLDATASIZE SUB DUP2 ADD SWAP1 PUSH2 0x9D SWAP2 SWAP1 PUSH2 0x651 JUMP JUMPDEST PUSH2 0x250 JUMP JUMPDEST PUSH1 0x40 MLOAD PUSH2 0xB0 SWAP3 SWAP2 SWAP1 PUSH2 0x712 JUMP JUMPDEST PUSH1 0x40 MLOAD DUP1 SWAP2 SUB SWAP1 RETURN JUMPDEST PUSH2 0xC1 PUSH2 0x3CA JUMP JUMPDEST PUSH1 0x40 MLOAD PUSH2 0xCE SWAP2 SWAP1 PUSH2 0x638 JUMP JUMPDEST PUSH1 0x40 MLOAD DUP1 SWAP2 SUB SWAP1 RETURN JUMPDEST CALLER PUSH0 DUP1 SLOAD SWAP1 PUSH2 0x100 EXP SWAP1 DIV PUSH20 0xFFFFFFFFFFFFFFFFFFFFFFFFFFFFFFFFFFFFFFFF AND PUSH20 0xFFFFFFFFFFFFFFFFFFFFFFFFFFFFFFFFFFFFFFFF AND DUP2 PUSH20 0xFFFFFFFFFFFFFFFFFFFFFFFFFFFFFFFFFFFFFFFF AND EQ PUSH2 0x165 JUMPI PUSH1 0x40 MLOAD PUSH32 0x8C379A000000000000000000000000000000000000000000000000000000000 DUP2 MSTORE PUSH1 0x4 ADD PUSH2 0x15C SWAP1 PUSH2 0x791 JUMP JUMPDEST PUSH1 0x40 MLOAD DUP1 SWAP2 SUB SWAP1 REVERT JUMPDEST PUSH0 DUP5 PUSH1 0x40 MLOAD PUSH1 0x20 ADD PUSH2 0x177 SWAP2 SWAP1 PUSH2 0x7E9 JUMP JUMPDEST PUSH1 0x40 MLOAD PUSH1 0x20 DUP2 DUP4 SUB SUB DUP2 MSTORE SWAP1 PUSH1 0x40 MSTORE DUP1 MLOAD SWAP1 PUSH1 0x20 ADD KECCAK256 SWAP1 POP PUSH1 0x40 MLOAD DUP1 PUSH1 0x40 ADD PUSH1 0x40 MSTORE DUP1 DUP6 ISZERO ISZERO DUP2 MSTORE PUSH1 0x20 ADD DUP5 DUP2 MSTORE POP PUSH1 0x2 PUSH0 DUP4 DUP2 MSTORE PUSH1 0x20 ADD SWAP1 DUP2 MSTORE PUSH1 0x20 ADD PUSH0 KECCAK256 PUSH0 DUP3 ADD MLOAD DUP2 PUSH0 ADD PUSH0 PUSH2 0x100 EXP DUP2 SLOAD DUP2 PUSH1 0xFF MUL NOT AND SWAP1 DUP4 ISZERO ISZERO MUL OR SWAP1 SSTORE POP PUSH1 0x20 DUP3 ADD MLOAD DUP2 PUSH1 0x1 ADD SWAP1 DUP2 PUSH2 0x1E9 SWAP2 SWAP1 PUSH2 0xA02 JUMP JUMPDEST POP SWAP1 POP POP PUSH32 0x1CA780BE614113B3E639B9C4BBA4F21CB45139EF8D48F54CA3F8D9852DB387B0 DUP5 DUP5 PUSH1 0x40 MLOAD PUSH2 0x21E SWAP3 SWAP2 SWAP1 PUSH2 0xAE0 JUMP JUMPDEST PUSH1 0x40 MLOAD DUP1 SWAP2 SUB SWAP1 LOG1 POP POP POP POP POP JUMP JUMPDEST PUSH0 DUP1 SLOAD SWAP1 PUSH2 0x100 EXP SWAP1 DIV PUSH20 0xFFFFFFFFFFFFFFFFFFFFFFFFFFFFFFFFFFFFFFFF AND DUP2 JUMP JUMPDEST PUSH1 0x60 DUP1 PUSH0 DUP4 PUSH1 0x40 MLOAD PUSH1 0x20 ADD PUSH2 0x265 SWAP2 SWAP1 PUSH2 0x7E9 JUMP JUMPDEST PUSH1 0x40 MLOAD PUSH1 0x20 DUP2 DUP4 SUB SUB DUP2 MSTORE SWAP1 PUSH1 0x40 MSTORE DUP1 MLOAD SWAP1 PUSH1 0x20 ADD KECCAK256 SWAP1 POP PUSH1 0x60 PUSH1 0x1 ISZERO ISZERO PUSH1 0x2 PUSH0 DUP5 DUP2 MSTORE PUSH1 0x20 ADD SWAP1 DUP2 MSTORE PUSH1 0x20 ADD PUSH0 KECCAK256 PUSH0 ADD PUSH0 SWAP1 SLOAD SWAP1 PUSH2 0x100 EXP SWAP1 DIV PUSH1 0xFF AND ISZERO ISZERO SUB PUSH2 0x2E7 JUMPI PUSH1 0x40 MLOAD DUP1 PUSH1 0x40 ADD PUSH1 0x40 MSTORE DUP1 PUSH1 0x8 DUP2 MSTORE PUSH1 0x20 ADD PUSH32 0x506F736974697665000000000000000000000000000000000000000000000000 DUP2 MSTORE POP SWAP1 POP PUSH2 0x320 JUMP JUMPDEST PUSH1 0x40 MLOAD DUP1 PUSH1 0x40 ADD PUSH1 0x40 MSTORE DUP1 PUSH1 0x8 DUP2 MSTORE PUSH1 0x20 ADD PUSH32 0x4E65676174697665000000000000000000000000000000000000000000000000 DUP2 MSTORE POP SWAP1 POP JUMPDEST DUP1 PUSH1 0x2 PUSH0 DUP5 DUP2 MSTORE PUSH1 0x20 ADD SWAP1 DUP2 MSTORE PUSH1 0x20 ADD PUSH0 KECCAK256 PUSH1 0x1 ADD DUP1 DUP1 SLOAD PUSH2 0x341 SWAP1 PUSH2 0x82C JUMP JUMPDEST DUP1 PUSH1 0x1F ADD PUSH1 0x20 DUP1 SWAP2 DIV MUL PUSH1 0x20 ADD PUSH1 0x40 MLOAD SWAP1 DUP2 ADD PUSH1 0x40 MSTORE DUP1 SWAP3 SWAP2 SWAP1 DUP2 DUP2 MSTORE PUSH1 0x20 ADD DUP3 DUP1 SLOAD PUSH2 0x36D SWAP1 PUSH2 0x82C JUMP JUMPDEST DUP1 ISZERO PUSH2 0x3B8 JUMPI DUP1 PUSH1 0x1F LT PUSH2 0x38F JUMPI PUSH2 0x100 DUP1 DUP4 SLOAD DIV MUL DUP4 MSTORE SWAP2 PUSH1 0x20 ADD SWAP2 PUSH2 0x3B8 JUMP JUMPDEST DUP3 ADD SWAP2 SWAP1 PUSH0 MSTORE PUSH1 0x20 PUSH0 KECCAK256 SWAP1 JUMPDEST DUP2 SLOAD DUP2 MSTORE SWAP1 PUSH1 0x1 ADD SWAP1 PUSH1 0x20 ADD DUP1 DUP4 GT PUSH2 0x39B JUMPI DUP3 SWAP1 SUB PUSH1 0x1F AND DUP3 ADD SWAP2 JUMPDEST POP POP POP POP POP SWAP1 POP SWAP4 POP SWAP4 POP POP POP SWAP2 POP SWAP2 JUMP JUMPDEST PUSH1 0x1 PUSH0 SWAP1 SLOAD SWAP1 PUSH2 0x100 EXP SWAP1 DIV PUSH20 0xFFFFFFFFFFFFFFFFFFFFFFFFFFFFFFFFFFFFFFFF AND DUP2 JUMP JUMPDEST PUSH0 PUSH1 0x40 MLOAD SWAP1 POP SWAP1 JUMP JUMPDEST PUSH0 DUP1 REVERT JUMPDEST PUSH0 DUP1 REVERT JUMPDEST PUSH0 DUP1 REVERT JUMPDEST PUSH0 DUP1 REVERT JUMPDEST PUSH0 PUSH1 0x1F NOT PUSH1 0x1F DUP4 ADD AND SWAP1 POP SWAP2 SWAP1 POP JUMP JUMPDEST PUSH32 0x4E487B7100000000000000000000000000000000000000000000000000000000 PUSH0 MSTORE PUSH1 0x41 PUSH1 0x4 MSTORE PUSH1 0x24 PUSH0 REVERT JUMPDEST PUSH2 0x44E DUP3 PUSH2 0x408 JUMP JUMPDEST DUP2 ADD DUP2 DUP2 LT PUSH8 0xFFFFFFFFFFFFFFFF DUP3 GT OR ISZERO PUSH2 0x46D JUMPI PUSH2 0x46C PUSH2 0x418 JUMP JUMPDEST JUMPDEST DUP1 PUSH1 0x40 MSTORE POP POP POP JUMP JUMPDEST PUSH0 PUSH2 0x47F PUSH2 0x3EF JUMP JUMPDEST SWAP1 POP PUSH2 0x48B DUP3 DUP3 PUSH2 0x445 JUMP JUMPDEST SWAP2 SWAP1 POP JUMP JUMPDEST PUSH0 PUSH8 0xFFFFFFFFFFFFFFFF DUP3 GT ISZERO PUSH2 0x4AA JUMPI PUSH2 0x4A9 PUSH2 0x418 JUMP JUMPDEST JUMPDEST PUSH2 0x4B3 DUP3 PUSH2 0x408 JUMP JUMPDEST SWAP1 POP PUSH1 0x20 DUP2 ADD SWAP1 POP SWAP2 SWAP1 POP JUMP JUMPDEST DUP3 DUP2 DUP4 CALLDATACOPY PUSH0 DUP4 DUP4 ADD MSTORE POP POP POP JUMP JUMPDEST PUSH0 PUSH2 0x4E0 PUSH2 0x4DB DUP5 PUSH2 0x490 JUMP JUMPDEST PUSH2 0x476 JUMP JUMPDEST SWAP1 POP DUP3 DUP2 MSTORE PUSH1 0x20 DUP2 ADD DUP5 DUP5 DUP5 ADD GT ISZERO PUSH2 0x4FC JUMPI PUSH2 0x4FB PUSH2 0x404 JUMP JUMPDEST JUMPDEST PUSH2 0x507 DUP5 DUP3 DUP6 PUSH2 0x4C0 JUMP JUMPDEST POP SWAP4 SWAP3 POP POP POP JUMP JUMPDEST PUSH0 DUP3 PUSH1 0x1F DUP4 ADD SLT PUSH2 0x523 JUMPI PUSH2 0x522 PUSH2 0x400 JUMP JUMPDEST JUMPDEST DUP2 CALLDATALOAD PUSH2 0x533 DUP5 DUP3 PUSH1 0x20 DUP7 ADD PUSH2 0x4CE JUMP JUMPDEST SWAP2 POP POP SWAP3 SWAP2 POP POP JUMP JUMPDEST PUSH0 DUP2 ISZERO ISZERO SWAP1 POP SWAP2 SWAP1 POP JUMP JUMPDEST PUSH2 0x550 DUP2 PUSH2 0x53C JUMP JUMPDEST DUP2 EQ PUSH2 0x55A JUMPI PUSH0 DUP1 REVERT JUMPDEST POP JUMP JUMPDEST PUSH0 DUP2 CALLDATALOAD SWAP1 POP PUSH2 0x56B DUP2 PUSH2 0x547 JUMP JUMPDEST SWAP3 SWAP2 POP POP JUMP JUMPDEST PUSH0 DUP1 PUSH0 PUSH1 0x60 DUP5 DUP7 SUB SLT ISZERO PUSH2 0x588 JUMPI PUSH2 0x587 PUSH2 0x3F8 JUMP JUMPDEST JUMPDEST PUSH0 DUP5 ADD CALLDATALOAD PUSH8 0xFFFFFFFFFFFFFFFF DUP2 GT ISZERO PUSH2 0x5A5 JUMPI PUSH2 0x5A4 PUSH2 0x3FC JUMP JUMPDEST JUMPDEST PUSH2 0x5B1 DUP7 DUP3 DUP8 ADD PUSH2 0x50F JUMP JUMPDEST SWAP4 POP POP PUSH1 0x20 PUSH2 0x5C2 DUP7 DUP3 DUP8 ADD PUSH2 0x55D JUMP JUMPDEST SWAP3 POP POP PUSH1 0x40 DUP5 ADD CALLDATALOAD PUSH8 0xFFFFFFFFFFFFFFFF DUP2 GT ISZERO PUSH2 0x5E3 JUMPI PUSH2 0x5E2 PUSH2 0x3FC JUMP JUMPDEST JUMPDEST PUSH2 0x5EF DUP7 DUP3 DUP8 ADD PUSH2 0x50F JUMP JUMPDEST SWAP2 POP POP SWAP3 POP SWAP3 POP SWAP3 JUMP JUMPDEST PUSH0 PUSH20 0xFFFFFFFFFFFFFFFFFFFFFFFFFFFFFFFFFFFFFFFF DUP3 AND SWAP1 POP SWAP2 SWAP1 POP JUMP JUMPDEST PUSH0 PUSH2 0x622 DUP3 PUSH2 0x5F9 JUMP JUMPDEST SWAP1 POP SWAP2 SWAP1 POP JUMP JUMPDEST PUSH2 0x632 DUP2 PUSH2 0x618 JUMP JUMPDEST DUP3 MSTORE POP POP JUMP JUMPDEST PUSH0 PUSH1 0x20 DUP3 ADD SWAP1 POP PUSH2 0x64B PUSH0 DUP4 ADD DUP5 PUSH2 0x629 JUMP JUMPDEST SWAP3 SWAP2 POP POP JUMP JUMPDEST PUSH0 PUSH1 0x20 DUP3 DUP5 SUB SLT ISZERO PUSH2 0x666 JUMPI PUSH2 0x665 PUSH2 0x3F8 JUMP JUMPDEST JUMPDEST PUSH0 DUP3 ADD CALLDATALOAD PUSH8 0xFFFFFFFFFFFFFFFF DUP2 GT ISZERO PUSH2 0x683 JUMPI PUSH2 0x682 PUSH2 0x3FC JUMP JUMPDEST JUMPDEST PUSH2 0x68F DUP5 DUP3 DUP6 ADD PUSH2 0x50F JUMP JUMPDEST SWAP2 POP POP SWAP3 SWAP2 POP POP JUMP JUMPDEST PUSH0 DUP2 MLOAD SWAP1 POP SWAP2 SWAP1 POP JUMP JUMPDEST PUSH0 DUP3 DUP3 MSTORE PUSH1 0x20 DUP3 ADD SWAP1 POP SWAP3 SWAP2 POP POP JUMP JUMPDEST PUSH0 JUMPDEST DUP4 DUP2 LT ISZERO PUSH2 0x6CF JUMPI DUP1 DUP3 ADD MLOAD DUP2 DUP5 ADD MSTORE PUSH1 0x20 DUP2 ADD SWAP1 POP PUSH2 0x6B4 JUMP JUMPDEST PUSH0 DUP5 DUP5 ADD MSTORE POP POP POP POP JUMP JUMPDEST PUSH0 PUSH2 0x6E4 DUP3 PUSH2 0x698 JUMP JUMPDEST PUSH2 0x6EE DUP2 DUP6 PUSH2 0x6A2 JUMP JUMPDEST SWAP4 POP PUSH2 0x6FE DUP2 DUP6 PUSH1 0x20 DUP7 ADD PUSH2 0x6B2 JUMP JUMPDEST PUSH2 0x707 DUP2 PUSH2 0x408 JUMP JUMPDEST DUP5 ADD SWAP2 POP POP SWAP3 SWAP2 POP POP JUMP JUMPDEST PUSH0 PUSH1 0x40 DUP3 ADD SWAP1 POP DUP2 DUP2 SUB PUSH0 DUP4 ADD MSTORE PUSH2 0x72A DUP2 DUP6 PUSH2 0x6DA JUMP JUMPDEST SWAP1 POP DUP2 DUP2 SUB PUSH1 0x20 DUP4 ADD MSTORE PUSH2 0x73E DUP2 DUP5 PUSH2 0x6DA JUMP JUMPDEST SWAP1 POP SWAP4 SWAP3 POP POP POP JUMP JUMPDEST PUSH32 0x596F7520646F6E27742068617665207065726D697373696F6E73000000000000 PUSH0 DUP3 ADD MSTORE POP JUMP JUMPDEST PUSH0 PUSH2 0x77B PUSH1 0x1A DUP4 PUSH2 0x6A2 JUMP JUMPDEST SWAP2 POP PUSH2 0x786 DUP3 PUSH2 0x747 JUMP JUMPDEST PUSH1 0x20 DUP3 ADD SWAP1 POP SWAP2 SWAP1 POP JUMP JUMPDEST PUSH0 PUSH1 0x20 DUP3 ADD SWAP1 POP DUP2 DUP2 SUB PUSH0 DUP4 ADD MSTORE PUSH2 0x7A8 DUP2 PUSH2 0x76F JUMP JUMPDEST SWAP1 POP SWAP2 SWAP1 POP JUMP JUMPDEST PUSH0 DUP2 SWAP1 POP SWAP3 SWAP2 POP POP JUMP JUMPDEST PUSH0 PUSH2 0x7C3 DUP3 PUSH2 0x698 JUMP JUMPDEST PUSH2 0x7CD DUP2 DUP6 PUSH2 0x7AF JUMP JUMPDEST SWAP4 POP PUSH2 0x7DD DUP2 DUP6 PUSH1 0x20 DUP7 ADD PUSH2 0x6B2 JUMP JUMPDEST DUP1 DUP5 ADD SWAP2 POP POP SWAP3 SWAP2 POP POP JUMP JUMPDEST PUSH0 PUSH2 0x7F4 DUP3 DUP5 PUSH2 0x7B9 JUMP JUMPDEST SWAP2 POP DUP2 SWAP1 POP SWAP3 SWAP2 POP POP JUMP JUMPDEST PUSH32 0x4E487B7100000000000000000000000000000000000000000000000000000000 PUSH0 MSTORE PUSH1 0x22 PUSH1 0x4 MSTORE PUSH1 0x24 PUSH0 REVERT JUMPDEST PUSH0 PUSH1 0x2 DUP3 DIV SWAP1 POP PUSH1 0x1 DUP3 AND DUP1 PUSH2 0x843 JUMPI PUSH1 0x7F DUP3 AND SWAP2 POP JUMPDEST PUSH1 0x20 DUP3 LT DUP2 SUB PUSH2 0x856 JUMPI PUSH2 0x855 PUSH2 0x7FF JUMP JUMPDEST JUMPDEST POP SWAP2 SWAP1 POP JUMP JUMPDEST PUSH0 DUP2 SWAP1 POP DUP2 PUSH0 MSTORE PUSH1 0x20 PUSH0 KECCAK256 SWAP1 POP SWAP2 SWAP1 POP JUMP JUMPDEST PUSH0 PUSH1 0x20 PUSH1 0x1F DUP4 ADD DIV SWAP1 POP SWAP2 SWAP1 POP JUMP JUMPDEST PUSH0 DUP3 DUP3 SHL SWAP1 POP SWAP3 SWAP2 POP POP JUMP JUMPDEST PUSH0 PUSH1 0x8 DUP4 MUL PUSH2 0x8B8 PUSH32 0xFFFFFFFFFFFFFFFFFFFFFFFFFFFFFFFFFFFFFFFFFFFFFFFFFFFFFFFFFFFFFFFF DUP3 PUSH2 0x87D JUMP JUMPDEST PUSH2 0x8C2 DUP7 DUP4 PUSH2 0x87D JUMP JUMPDEST SWAP6 POP DUP1 NOT DUP5 AND SWAP4 POP DUP1 DUP7 AND DUP5 OR SWAP3 POP POP POP SWAP4 SWAP3 POP POP POP JUMP JUMPDEST PUSH0 DUP2 SWAP1 POP SWAP2 SWAP1 POP JUMP JUMPDEST PUSH0 DUP2 SWAP1 POP SWAP2 SWAP1 POP JUMP JUMPDEST PUSH0 PUSH2 0x906 PUSH2 0x901 PUSH2 0x8FC DUP5 PUSH2 0x8DA JUMP JUMPDEST PUSH2 0x8E3 JUMP JUMPDEST PUSH2 0x8DA JUMP JUMPDEST SWAP1 POP SWAP2 SWAP1 POP JUMP JUMPDEST PUSH0 DUP2 SWAP1 POP SWAP2 SWAP1 POP JUMP JUMPDEST PUSH2 0x91F DUP4 PUSH2 0x8EC JUMP JUMPDEST PUSH2 0x933 PUSH2 0x92B DUP3 PUSH2 0x90D JUMP JUMPDEST DUP5 DUP5 SLOAD PUSH2 0x889 JUMP JUMPDEST DUP3 SSTORE POP POP POP POP JUMP JUMPDEST PUSH0 SWAP1 JUMP JUMPDEST PUSH2 0x947 PUSH2 0x93B JUMP JUMPDEST PUSH2 0x952 DUP2 DUP5 DUP5 PUSH2 0x916 JUMP JUMPDEST POP POP POP JUMP JUMPDEST JUMPDEST DUP2 DUP2 LT ISZERO PUSH2 0x975 JUMPI PUSH2 0x96A PUSH0 DUP3 PUSH2 0x93F JUMP JUMPDEST PUSH1 0x1 DUP2 ADD SWAP1 POP PUSH2 0x958 JUMP JUMPDEST POP POP JUMP JUMPDEST PUSH1 0x1F DUP3 GT ISZERO PUSH2 0x9BA JUMPI PUSH2 0x98B DUP2 PUSH2 0x85C JUMP JUMPDEST PUSH2 0x994 DUP5 PUSH2 0x86E JUMP JUMPDEST DUP2 ADD PUSH1 0x20 DUP6 LT ISZERO PUSH2 0x9A3 JUMPI DUP2 SWAP1 POP JUMPDEST PUSH2 0x9B7 PUSH2 0x9AF DUP6 PUSH2 0x86E JUMP JUMPDEST DUP4 ADD DUP3 PUSH2 0x957 JUMP JUMPDEST POP POP JUMPDEST POP POP POP JUMP JUMPDEST PUSH0 DUP3 DUP3 SHR SWAP1 POP SWAP3 SWAP2 POP POP JUMP JUMPDEST PUSH0 PUSH2 0x9DA PUSH0 NOT DUP5 PUSH1 0x8 MUL PUSH2 0x9BF JUMP JUMPDEST NOT DUP1 DUP4 AND SWAP2 POP POP SWAP3 SWAP2 POP POP JUMP JUMPDEST PUSH0 PUSH2 0x9F2 DUP4 DUP4 PUSH2 0x9CB JUMP JUMPDEST SWAP2 POP DUP3 PUSH1 0x2 MUL DUP3 OR SWAP1 POP SWAP3 SWAP2 POP POP JUMP JUMPDEST PUSH2 0xA0B DUP3 PUSH2 0x698 JUMP JUMPDEST PUSH8 0xFFFFFFFFFFFFFFFF DUP2 GT ISZERO PUSH2 0xA24 JUMPI PUSH2 0xA23 PUSH2 0x418 JUMP JUMPDEST JUMPDEST PUSH2 0xA2E DUP3 SLOAD PUSH2 0x82C JUMP JUMPDEST PUSH2 0xA39 DUP3 DUP3 DUP6 PUSH2 0x979 JUMP JUMPDEST PUSH0 PUSH1 0x20 SWAP1 POP PUSH1 0x1F DUP4 GT PUSH1 0x1 DUP2 EQ PUSH2 0xA6A JUMPI PUSH0 DUP5 ISZERO PUSH2 0xA58 JUMPI DUP3 DUP8 ADD MLOAD SWAP1 POP JUMPDEST PUSH2 0xA62 DUP6 DUP3 PUSH2 0x9E7 JUMP JUMPDEST DUP7 SSTORE POP PUSH2 0xAC9 JUMP JUMPDEST PUSH1 0x1F NOT DUP5 AND PUSH2 0xA78 DUP7 PUSH2 0x85C JUMP JUMPDEST PUSH0 JUMPDEST DUP3 DUP2 LT ISZERO PUSH2 0xA9F JUMPI DUP5 DUP10 ADD MLOAD DUP3 SSTORE PUSH1 0x1 DUP3 ADD SWAP2 POP PUSH1 0x20 DUP6 ADD SWAP5 POP PUSH1 0x20 DUP2 ADD SWAP1 POP PUSH2 0xA7A JUMP JUMPDEST DUP7 DUP4 LT ISZERO PUSH2 0xABC JUMPI DUP5 DUP10 ADD MLOAD PUSH2 0xAB8 PUSH1 0x1F DUP10 AND DUP3 PUSH2 0x9CB JUMP JUMPDEST DUP4 SSTORE POP JUMPDEST PUSH1 0x1 PUSH1 0x2 DUP9 MUL ADD DUP9 SSTORE POP POP POP JUMPDEST POP POP POP POP POP POP JUMP JUMPDEST PUSH2 0xADA DUP2 PUSH2 0x53C JUMP JUMPDEST DUP3 MSTORE POP POP JUMP JUMPDEST PUSH0 PUSH1 0x40 DUP3 ADD SWAP1 POP PUSH2 0xAF3 PUSH0 DUP4 ADD DUP6 PUSH2 0xAD1 JUMP JUMPDEST DUP2 DUP2 SUB PUSH1 0x20 DUP4 ADD MSTORE PUSH2 0xB05 DUP2 DUP5 PUSH2 0x6DA JUMP JUMPDEST SWAP1 POP SWAP4 SWAP3 POP POP POP JUMP INVALID LOG2 PUSH5 0x6970667358 0x22 SLT KECCAK256 0x4F SLOAD PUSH11 0x4FAA84CBD8C813B519887 LOG0 0xA7 GASPRICE PUSH23 0xC55607CF5D3188043E117AE9D8F764736F6C6343000816 STOP CALLER "
				},
				"gasEstimates": {
					"creation": {
						"codeDepositCost": "576800",
						"executionCost": "infinite",
						"totalCost": "infinite"
					},
					"external": {
						"CovidTestResults(string,bool,string)": "infinite",
						"HealthCenter_contract()": "2505",
						"contractAddress()": "2552",
						"viewResults(string)": "infinite"
					}
				},
				"methodIdentifiers": {
					"CovidTestResults(string,bool,string)": "0cd5662c",
					"HealthCenter_contract()": "8f13c404",
					"contractAddress()": "f6b4dfb4",
					"viewResults(string)": "ef6fa836"
				}
			},
			"storageLayout": {
				"storage": [
					{
						"astId": 149,
						"contract": "WHO/who.sol:ContractHealthCenter",
						"label": "HealthCenter_contract",
						"offset": 0,
						"slot": "0",
						"type": "t_address"
					},
					{
						"astId": 151,
						"contract": "WHO/who.sol:ContractHealthCenter",
						"label": "contractAddress",
						"offset": 0,
						"slot": "1",
						"type": "t_address"
					},
					{
						"astId": 173,
						"contract": "WHO/who.sol:ContractHealthCenter",
						"label": "COVIDresults",
						"offset": 0,
						"slot": "2",
						"type": "t_mapping(t_bytes32,t_struct(results)178_storage)"
					}
				],
				"types": {
					"t_address": {
						"encoding": "inplace",
						"label": "address",
						"numberOfBytes": "20"
					},
					"t_bool": {
						"encoding": "inplace",
						"label": "bool",
						"numberOfBytes": "1"
					},
					"t_bytes32": {
						"encoding": "inplace",
						"label": "bytes32",
						"numberOfBytes": "32"
					},
					"t_mapping(t_bytes32,t_struct(results)178_storage)": {
						"encoding": "mapping",
						"key": "t_bytes32",
						"label": "mapping(bytes32 => struct ContractHealthCenter.results)",
						"numberOfBytes": "32",
						"value": "t_struct(results)178_storage"
					},
					"t_string_storage": {
						"encoding": "bytes",
						"label": "string",
						"numberOfBytes": "32"
					},
					"t_struct(results)178_storage": {
						"encoding": "inplace",
						"label": "struct ContractHealthCenter.results",
						"members": [
							{
								"astId": 175,
								"contract": "WHO/who.sol:ContractHealthCenter",
								"label": "diagnosis",
								"offset": 0,
								"slot": "0",
								"type": "t_bool"
							},
							{
								"astId": 177,
								"contract": "WHO/who.sol:ContractHealthCenter",
								"label": "IPFScode",
								"offset": 0,
								"slot": "1",
								"type": "t_string_storage"
							}
						],
						"numberOfBytes": "64"
					}
				}
			},
			"userdoc": {
				"kind": "user",
				"methods": {},
				"version": 1
			}
		}
	}
}