{
	"WHO/who.sol": {
		"WHO_COVID": {
			"abi": [
				{
					"inputs": [],
					"stateMutability": "nonpayable",
					"type": "constructor"
				},
				{
					"anonymous": false,
					"inputs": [
						{
							"indexed": false,
							"internalType": "address",
							"name": "",
							"type": "address"
						},
						{
							"indexed": false,
							"internalType": "address",
							"name": "",
							"type": "address"
						}
					],
					"name": "NewContract",
					"type": "event"
				},
				{
					"anonymous": false,
					"inputs": [
						{
							"indexed": false,
							"internalType": "address",
							"name": "",
							"type": "address"
						}
					],
					"name": "NewValidHealthCenter",
					"type": "event"
				},
				{
					"anonymous": false,
					"inputs": [
						{
							"indexed": false,
							"internalType": "address",
							"name": "",
							"type": "address"
						}
					],
					"name": "accessRequest",
					"type": "event"
				},
				{
					"inputs": [],
					"name": "FactoryHealthCenter",
					"outputs": [],
					"stateMutability": "nonpayable",
					"type": "function"
				},
				{
					"inputs": [
						{
							"internalType": "address",
							"name": "_healthCenter",
							"type": "address"
						}
					],
					"name": "HealthCenter",
					"outputs": [],
					"stateMutability": "nonpayable",
					"type": "function"
				},
				{
					"inputs": [
						{
							"internalType": "address",
							"name": "",
							"type": "address"
						}
					],
					"name": "HealthCenter_Contract",
					"outputs": [
						{
							"internalType": "address",
							"name": "",
							"type": "address"
						}
					],
					"stateMutability": "view",
					"type": "function"
				},
				{
					"inputs": [],
					"name": "WHO",
					"outputs": [
						{
							"internalType": "address",
							"name": "",
							"type": "address"
						}
					],
					"stateMutability": "view",
					"type": "function"
				},
				{
					"inputs": [
						{
							"internalType": "uint256",
							"name": "",
							"type": "uint256"
						}
					],
					"name": "health_centers_addresses",
					"outputs": [
						{
							"internalType": "address",
							"name": "",
							"type": "address"
						}
					],
					"stateMutability": "view",
					"type": "function"
				},
				{
					"inputs": [],
					"name": "requestAccess",
					"outputs": [],
					"stateMutability": "nonpayable",
					"type": "function"
				},
				{
					"inputs": [],
					"name": "showRequests",
					"outputs": [
						{
							"internalType": "address[]",
							"name": "",
							"type": "address[]"
						}
					],
					"stateMutability": "view",
					"type": "function"
				},
				{
					"inputs": [
						{
							"internalType": "address",
							"name": "",
							"type": "address"
						}
					],
					"name": "validity_HealthCenters",
					"outputs": [
						{
							"internalType": "bool",
							"name": "",
							"type": "bool"
						}
					],
					"stateMutability": "view",
					"type": "function"
				}
			],
			"devdoc": {
				"kind": "dev",
				"methods": {},
				"version": 1
			},
			"evm": {
				"assembly": "    /* \"WHO/who.sol\":58:1939  contract WHO_COVID{... */\n  mstore(0x40, 0x80)\n    /* \"WHO/who.sol\":165:211  constructor(){... */\n  callvalue\n  dup1\n  iszero\n  tag_1\n  jumpi\n  0x00\n  dup1\n  revert\ntag_1:\n  pop\n    /* \"WHO/who.sol\":194:204  msg.sender */\n  caller\n    /* \"WHO/who.sol\":188:191  WHO */\n  0x00\n  dup1\n    /* \"WHO/who.sol\":188:204  WHO = msg.sender */\n  0x0100\n  exp\n  dup2\n  sload\n  dup2\n  0xffffffffffffffffffffffffffffffffffffffff\n  mul\n  not\n  and\n  swap1\n  dup4\n  0xffffffffffffffffffffffffffffffffffffffff\n  and\n  mul\n  or\n  swap1\n  sstore\n  pop\n    /* \"WHO/who.sol\":58:1939  contract WHO_COVID{... */\n  dataSize(sub_0)\n  dup1\n  dataOffset(sub_0)\n  0x00\n  codecopy\n  0x00\n  return\nstop\n\nsub_0: assembly {\n        /* \"WHO/who.sol\":58:1939  contract WHO_COVID{... */\n      mstore(0x40, 0x80)\n      callvalue\n      dup1\n      iszero\n      tag_1\n      jumpi\n      0x00\n      dup1\n      revert\n    tag_1:\n      pop\n      jumpi(tag_2, lt(calldatasize, 0x04))\n      shr(0xe0, calldataload(0x00))\n      dup1\n      0x6fdc01b6\n      gt\n      tag_11\n      jumpi\n      dup1\n      0x6fdc01b6\n      eq\n      tag_7\n      jumpi\n      dup1\n      0x96964d9a\n      eq\n      tag_8\n      jumpi\n      dup1\n      0xaa80de8b\n      eq\n      tag_9\n      jumpi\n      dup1\n      0xeb2f4817\n      eq\n      tag_10\n      jumpi\n      jump(tag_2)\n    tag_11:\n      dup1\n      0x036885e1\n      eq\n      tag_3\n      jumpi\n      dup1\n      0x3785908a\n      eq\n      tag_4\n      jumpi\n      dup1\n      0x4e7d4b35\n      eq\n      tag_5\n      jumpi\n      dup1\n      0x66a38445\n      eq\n      tag_6\n      jumpi\n    tag_2:\n      0x00\n      dup1\n      revert\n        /* \"WHO/who.sol\":1103:1216  function showRequests() public view onlyWHO(msg.sender) returns(address[] memory){... */\n    tag_3:\n      tag_12\n      tag_13\n      jump\t// in\n    tag_12:\n      mload(0x40)\n      tag_14\n      swap2\n      swap1\n      tag_15\n      jump\t// in\n    tag_14:\n      mload(0x40)\n      dup1\n      swap2\n      sub\n      swap1\n      return\n        /* \"WHO/who.sol\":262:316  mapping(address => bool) public validity_HealthCenters */\n    tag_4:\n      tag_16\n      0x04\n      dup1\n      calldatasize\n      sub\n      dup2\n      add\n      swap1\n      tag_17\n      swap2\n      swap1\n      tag_18\n      jump\t// in\n    tag_17:\n      tag_19\n      jump\t// in\n    tag_16:\n      mload(0x40)\n      tag_20\n      swap2\n      swap1\n      tag_21\n      jump\t// in\n    tag_20:\n      mload(0x40)\n      dup1\n      swap2\n      sub\n      swap1\n      return\n        /* \"WHO/who.sol\":387:443  mapping(address => address) public HealthCenter_Contract */\n    tag_5:\n      tag_22\n      0x04\n      dup1\n      calldatasize\n      sub\n      dup2\n      add\n      swap1\n      tag_23\n      swap2\n      swap1\n      tag_18\n      jump\t// in\n    tag_23:\n      tag_24\n      jump\t// in\n    tag_22:\n      mload(0x40)\n      tag_25\n      swap2\n      swap1\n      tag_26\n      jump\t// in\n    tag_25:\n      mload(0x40)\n      dup1\n      swap2\n      sub\n      swap1\n      return\n        /* \"WHO/who.sol\":1271:1453  function HealthCenter(address _healthCenter) public onlyWHO(msg.sender){... */\n    tag_6:\n      tag_27\n      0x04\n      dup1\n      calldatasize\n      sub\n      dup2\n      add\n      swap1\n      tag_28\n      swap2\n      swap1\n      tag_18\n      jump\t// in\n    tag_28:\n      tag_29\n      jump\t// in\n    tag_27:\n      stop\n        /* \"WHO/who.sol\":1527:1937  function FactoryHealthCenter() public{... */\n    tag_7:\n      tag_30\n      tag_31\n      jump\t// in\n    tag_30:\n      stop\n        /* \"WHO/who.sol\":503:544  address[] public health_centers_addresses */\n    tag_8:\n      tag_32\n      0x04\n      dup1\n      calldatasize\n      sub\n      dup2\n      add\n      swap1\n      tag_33\n      swap2\n      swap1\n      tag_34\n      jump\t// in\n    tag_33:\n      tag_35\n      jump\t// in\n    tag_32:\n      mload(0x40)\n      tag_36\n      swap2\n      swap1\n      tag_26\n      jump\t// in\n    tag_36:\n      mload(0x40)\n      dup1\n      swap2\n      sub\n      swap1\n      return\n        /* \"WHO/who.sol\":122:140  address public WHO */\n    tag_9:\n      tag_37\n      tag_38\n      jump\t// in\n    tag_37:\n      mload(0x40)\n      tag_39\n      swap2\n      swap1\n      tag_26\n      jump\t// in\n    tag_39:\n      mload(0x40)\n      dup1\n      swap2\n      sub\n      swap1\n      return\n        /* \"WHO/who.sol\":944:1057  function requestAccess() public{... */\n    tag_10:\n      tag_40\n      tag_41\n      jump\t// in\n    tag_40:\n      stop\n        /* \"WHO/who.sol\":1103:1216  function showRequests() public view onlyWHO(msg.sender) returns(address[] memory){... */\n    tag_13:\n        /* \"WHO/who.sol\":1167:1183  address[] memory */\n      0x60\n        /* \"WHO/who.sol\":1147:1157  msg.sender */\n      caller\n        /* \"WHO/who.sol\":858:861  WHO */\n      0x00\n      dup1\n      sload\n      swap1\n      0x0100\n      exp\n      swap1\n      div\n      0xffffffffffffffffffffffffffffffffffffffff\n      and\n        /* \"WHO/who.sol\":846:861  _address == WHO */\n      0xffffffffffffffffffffffffffffffffffffffff\n      and\n        /* \"WHO/who.sol\":846:854  _address */\n      dup2\n        /* \"WHO/who.sol\":846:861  _address == WHO */\n      0xffffffffffffffffffffffffffffffffffffffff\n      and\n      eq\n        /* \"WHO/who.sol\":838:862  require(_address == WHO) */\n      tag_43\n      jumpi\n      0x00\n      dup1\n      revert\n    tag_43:\n        /* \"WHO/who.sol\":1201:1209  requests */\n      0x04\n        /* \"WHO/who.sol\":1194:1209  return requests */\n      dup1\n      sload\n      dup1\n      0x20\n      mul\n      0x20\n      add\n      mload(0x40)\n      swap1\n      dup2\n      add\n      0x40\n      mstore\n      dup1\n      swap3\n      swap2\n      swap1\n      dup2\n      dup2\n      mstore\n      0x20\n      add\n      dup3\n      dup1\n      sload\n      dup1\n      iszero\n      tag_45\n      jumpi\n      0x20\n      mul\n      dup3\n      add\n      swap2\n      swap1\n      0x00\n      mstore\n      keccak256(0x00, 0x20)\n      swap1\n    tag_46:\n      dup2\n      0x00\n      swap1\n      sload\n      swap1\n      0x0100\n      exp\n      swap1\n      div\n      0xffffffffffffffffffffffffffffffffffffffff\n      and\n      0xffffffffffffffffffffffffffffffffffffffff\n      and\n      dup2\n      mstore\n      0x20\n      add\n      swap1\n      0x01\n      add\n      swap1\n      dup1\n      dup4\n      gt\n      tag_46\n      jumpi\n    tag_45:\n      pop\n      pop\n      pop\n      pop\n      pop\n      swap2\n      pop\n        /* \"WHO/who.sol\":1103:1216  function showRequests() public view onlyWHO(msg.sender) returns(address[] memory){... */\n      pop\n      swap1\n      jump\t// out\n        /* \"WHO/who.sol\":262:316  mapping(address => bool) public validity_HealthCenters */\n    tag_19:\n      mstore(0x20, 0x01)\n      dup1\n      0x00\n      mstore\n      keccak256(0x00, 0x40)\n      0x00\n      swap2\n      pop\n      sload\n      swap1\n      0x0100\n      exp\n      swap1\n      div\n      0xff\n      and\n      dup2\n      jump\t// out\n        /* \"WHO/who.sol\":387:443  mapping(address => address) public HealthCenter_Contract */\n    tag_24:\n      mstore(0x20, 0x02)\n      dup1\n      0x00\n      mstore\n      keccak256(0x00, 0x40)\n      0x00\n      swap2\n      pop\n      sload\n      swap1\n      0x0100\n      exp\n      swap1\n      div\n      0xffffffffffffffffffffffffffffffffffffffff\n      and\n      dup2\n      jump\t// out\n        /* \"WHO/who.sol\":1271:1453  function HealthCenter(address _healthCenter) public onlyWHO(msg.sender){... */\n    tag_29:\n        /* \"WHO/who.sol\":1331:1341  msg.sender */\n      caller\n        /* \"WHO/who.sol\":858:861  WHO */\n      0x00\n      dup1\n      sload\n      swap1\n      0x0100\n      exp\n      swap1\n      div\n      0xffffffffffffffffffffffffffffffffffffffff\n      and\n        /* \"WHO/who.sol\":846:861  _address == WHO */\n      0xffffffffffffffffffffffffffffffffffffffff\n      and\n        /* \"WHO/who.sol\":846:854  _address */\n      dup2\n        /* \"WHO/who.sol\":846:861  _address == WHO */\n      0xffffffffffffffffffffffffffffffffffffffff\n      and\n      eq\n        /* \"WHO/who.sol\":838:862  require(_address == WHO) */\n      tag_48\n      jumpi\n      0x00\n      dup1\n      revert\n    tag_48:\n        /* \"WHO/who.sol\":1392:1396  true */\n      0x01\n        /* \"WHO/who.sol\":1352:1374  validity_HealthCenters */\n      dup1\n        /* \"WHO/who.sol\":1352:1389  validity_HealthCenters[_healthCenter] */\n      0x00\n        /* \"WHO/who.sol\":1375:1388  _healthCenter */\n      dup5\n        /* \"WHO/who.sol\":1352:1389  validity_HealthCenters[_healthCenter] */\n      0xffffffffffffffffffffffffffffffffffffffff\n      and\n      0xffffffffffffffffffffffffffffffffffffffff\n      and\n      dup2\n      mstore\n      0x20\n      add\n      swap1\n      dup2\n      mstore\n      0x20\n      add\n      0x00\n      keccak256\n      0x00\n        /* \"WHO/who.sol\":1352:1396  validity_HealthCenters[_healthCenter] = true */\n      0x0100\n      exp\n      dup2\n      sload\n      dup2\n      0xff\n      mul\n      not\n      and\n      swap1\n      dup4\n      iszero\n      iszero\n      mul\n      or\n      swap1\n      sstore\n      pop\n        /* \"WHO/who.sol\":1411:1446  NewValidHealthCenter(_healthCenter) */\n      0x222f67762c6a537b69ebb90489194eae646a8d956513f9996242e80d646b1465\n        /* \"WHO/who.sol\":1432:1445  _healthCenter */\n      dup3\n        /* \"WHO/who.sol\":1411:1446  NewValidHealthCenter(_healthCenter) */\n      mload(0x40)\n      tag_50\n      swap2\n      swap1\n      tag_26\n      jump\t// in\n    tag_50:\n      mload(0x40)\n      dup1\n      swap2\n      sub\n      swap1\n      log1\n        /* \"WHO/who.sol\":1271:1453  function HealthCenter(address _healthCenter) public onlyWHO(msg.sender){... */\n      pop\n      pop\n      jump\t// out\n        /* \"WHO/who.sol\":1527:1937  function FactoryHealthCenter() public{... */\n    tag_31:\n        /* \"WHO/who.sol\":1620:1624  true */\n      0x01\n        /* \"WHO/who.sol\":1582:1624  validity_HealthCenters[msg.sender] == true */\n      iszero\n      iszero\n        /* \"WHO/who.sol\":1582:1604  validity_HealthCenters */\n      0x01\n        /* \"WHO/who.sol\":1582:1616  validity_HealthCenters[msg.sender] */\n      0x00\n        /* \"WHO/who.sol\":1605:1615  msg.sender */\n      caller\n        /* \"WHO/who.sol\":1582:1616  validity_HealthCenters[msg.sender] */\n      0xffffffffffffffffffffffffffffffffffffffff\n      and\n      0xffffffffffffffffffffffffffffffffffffffff\n      and\n      dup2\n      mstore\n      0x20\n      add\n      swap1\n      dup2\n      mstore\n      0x20\n      add\n      0x00\n      keccak256\n      0x00\n      swap1\n      sload\n      swap1\n      0x0100\n      exp\n      swap1\n      div\n      0xff\n      and\n        /* \"WHO/who.sol\":1582:1624  validity_HealthCenters[msg.sender] == true */\n      iszero\n      iszero\n      eq\n        /* \"WHO/who.sol\":1574:1654  require(validity_HealthCenters[msg.sender] == true,\"You don't have permissions\") */\n      tag_52\n      jumpi\n      mload(0x40)\n      0x08c379a000000000000000000000000000000000000000000000000000000000\n      dup2\n      mstore\n      0x04\n      add\n      tag_53\n      swap1\n      tag_54\n      jump\t// in\n    tag_53:\n      mload(0x40)\n      dup1\n      swap2\n      sub\n      swap1\n      revert\n    tag_52:\n        /* \"WHO/who.sol\":1664:1693  address HealthCenter_contract */\n      0x00\n        /* \"WHO/who.sol\":1729:1739  msg.sender */\n      caller\n        /* \"WHO/who.sol\":1704:1740  new ContractHealthCenter(msg.sender) */\n      mload(0x40)\n      tag_55\n      swap1\n      tag_56\n      jump\t// in\n    tag_55:\n      tag_57\n      swap2\n      swap1\n      tag_26\n      jump\t// in\n    tag_57:\n      mload(0x40)\n      dup1\n      swap2\n      sub\n      swap1\n      0x00\n      create\n      dup1\n      iszero\n      dup1\n      iszero\n      tag_58\n      jumpi\n      returndatasize\n      0x00\n      dup1\n      returndatacopy\n      revert(0x00, returndatasize)\n    tag_58:\n      pop\n        /* \"WHO/who.sol\":1664:1741  address HealthCenter_contract = address(new ContractHealthCenter(msg.sender)) */\n      swap1\n      pop\n        /* \"WHO/who.sol\":1751:1775  health_centers_addresses */\n      0x03\n        /* \"WHO/who.sol\":1781:1802  HealthCenter_contract */\n      dup2\n        /* \"WHO/who.sol\":1751:1803  health_centers_addresses.push(HealthCenter_contract) */\n      swap1\n      dup1\n      0x01\n      dup2\n      sload\n      add\n      dup1\n      dup3\n      sstore\n      dup1\n      swap2\n      pop\n      pop\n      0x01\n      swap1\n      sub\n      swap1\n      0x00\n      mstore\n      keccak256(0x00, 0x20)\n      add\n      0x00\n      swap1\n      swap2\n      swap1\n      swap2\n      swap1\n      swap2\n      0x0100\n      exp\n      dup2\n      sload\n      dup2\n      0xffffffffffffffffffffffffffffffffffffffff\n      mul\n      not\n      and\n      swap1\n      dup4\n      0xffffffffffffffffffffffffffffffffffffffff\n      and\n      mul\n      or\n      swap1\n      sstore\n      pop\n        /* \"WHO/who.sol\":1849:1870  HealthCenter_contract */\n      dup1\n        /* \"WHO/who.sol\":1813:1834  HealthCenter_Contract */\n      0x02\n        /* \"WHO/who.sol\":1813:1846  HealthCenter_Contract[msg.sender] */\n      0x00\n        /* \"WHO/who.sol\":1835:1845  msg.sender */\n      caller\n        /* \"WHO/who.sol\":1813:1846  HealthCenter_Contract[msg.sender] */\n      0xffffffffffffffffffffffffffffffffffffffff\n      and\n      0xffffffffffffffffffffffffffffffffffffffff\n      and\n      dup2\n      mstore\n      0x20\n      add\n      swap1\n      dup2\n      mstore\n      0x20\n      add\n      0x00\n      keccak256\n      0x00\n        /* \"WHO/who.sol\":1813:1870  HealthCenter_Contract[msg.sender] = HealthCenter_contract */\n      0x0100\n      exp\n      dup2\n      sload\n      dup2\n      0xffffffffffffffffffffffffffffffffffffffff\n      mul\n      not\n      and\n      swap1\n      dup4\n      0xffffffffffffffffffffffffffffffffffffffff\n      and\n      mul\n      or\n      swap1\n      sstore\n      pop\n        /* \"WHO/who.sol\":1885:1930  NewContract(HealthCenter_contract,msg.sender) */\n      0x17182ea1a6748f7923ea0bfb4bf8bc76cc894e662541ad1ea15797322d541db8\n        /* \"WHO/who.sol\":1897:1918  HealthCenter_contract */\n      dup2\n        /* \"WHO/who.sol\":1919:1929  msg.sender */\n      caller\n        /* \"WHO/who.sol\":1885:1930  NewContract(HealthCenter_contract,msg.sender) */\n      mload(0x40)\n      tag_60\n      swap3\n      swap2\n      swap1\n      tag_61\n      jump\t// in\n    tag_60:\n      mload(0x40)\n      dup1\n      swap2\n      sub\n      swap1\n      log1\n        /* \"WHO/who.sol\":1564:1937  {... */\n      pop\n        /* \"WHO/who.sol\":1527:1937  function FactoryHealthCenter() public{... */\n      jump\t// out\n        /* \"WHO/who.sol\":503:544  address[] public health_centers_addresses */\n    tag_35:\n      0x03\n      dup2\n      dup2\n      sload\n      dup2\n      lt\n      tag_62\n      jumpi\n      0x00\n      dup1\n      revert\n    tag_62:\n      swap1\n      0x00\n      mstore\n      keccak256(0x00, 0x20)\n      add\n      0x00\n      swap2\n      pop\n      sload\n      swap1\n      0x0100\n      exp\n      swap1\n      div\n      0xffffffffffffffffffffffffffffffffffffffff\n      and\n      dup2\n      jump\t// out\n        /* \"WHO/who.sol\":122:140  address public WHO */\n    tag_38:\n      0x00\n      dup1\n      sload\n      swap1\n      0x0100\n      exp\n      swap1\n      div\n      0xffffffffffffffffffffffffffffffffffffffff\n      and\n      dup2\n      jump\t// out\n        /* \"WHO/who.sol\":944:1057  function requestAccess() public{... */\n    tag_41:\n        /* \"WHO/who.sol\":985:993  requests */\n      0x04\n        /* \"WHO/who.sol\":999:1009  msg.sender */\n      caller\n        /* \"WHO/who.sol\":985:1010  requests.push(msg.sender) */\n      swap1\n      dup1\n      0x01\n      dup2\n      sload\n      add\n      dup1\n      dup3\n      sstore\n      dup1\n      swap2\n      pop\n      pop\n      0x01\n      swap1\n      sub\n      swap1\n      0x00\n      mstore\n      keccak256(0x00, 0x20)\n      add\n      0x00\n      swap1\n      swap2\n      swap1\n      swap2\n      swap1\n      swap2\n      0x0100\n      exp\n      dup2\n      sload\n      dup2\n      0xffffffffffffffffffffffffffffffffffffffff\n      mul\n      not\n      and\n      swap1\n      dup4\n      0xffffffffffffffffffffffffffffffffffffffff\n      and\n      mul\n      or\n      swap1\n      sstore\n      pop\n        /* \"WHO/who.sol\":1025:1050  accessRequest(msg.sender) */\n      0xe39c2af3376743a85a8d833c7be5dbd94b1791e3e655c91b5e972362e4c5d90a\n        /* \"WHO/who.sol\":1039:1049  msg.sender */\n      caller\n        /* \"WHO/who.sol\":1025:1050  accessRequest(msg.sender) */\n      mload(0x40)\n      tag_66\n      swap2\n      swap1\n      tag_26\n      jump\t// in\n    tag_66:\n      mload(0x40)\n      dup1\n      swap2\n      sub\n      swap1\n      log1\n        /* \"WHO/who.sol\":944:1057  function requestAccess() public{... */\n      jump\t// out\n    tag_56:\n      dataSize(sub_0)\n      dup1\n      dataOffset(sub_0)\n      dup4\n      codecopy\n      add\n      swap1\n      jump\t// out\n        /* \"#utility.yul\":7:121   */\n    tag_67:\n        /* \"#utility.yul\":74:80   */\n      0x00\n        /* \"#utility.yul\":108:113   */\n      dup2\n        /* \"#utility.yul\":102:114   */\n      mload\n        /* \"#utility.yul\":92:114   */\n      swap1\n      pop\n        /* \"#utility.yul\":7:121   */\n      swap2\n      swap1\n      pop\n      jump\t// out\n        /* \"#utility.yul\":127:311   */\n    tag_68:\n        /* \"#utility.yul\":226:237   */\n      0x00\n        /* \"#utility.yul\":260:266   */\n      dup3\n        /* \"#utility.yul\":255:258   */\n      dup3\n        /* \"#utility.yul\":248:267   */\n      mstore\n        /* \"#utility.yul\":300:304   */\n      0x20\n        /* \"#utility.yul\":295:298   */\n      dup3\n        /* \"#utility.yul\":291:305   */\n      add\n        /* \"#utility.yul\":276:305   */\n      swap1\n      pop\n        /* \"#utility.yul\":127:311   */\n      swap3\n      swap2\n      pop\n      pop\n      jump\t// out\n        /* \"#utility.yul\":317:449   */\n    tag_69:\n        /* \"#utility.yul\":384:388   */\n      0x00\n        /* \"#utility.yul\":407:410   */\n      dup2\n        /* \"#utility.yul\":399:410   */\n      swap1\n      pop\n        /* \"#utility.yul\":437:441   */\n      0x20\n        /* \"#utility.yul\":432:435   */\n      dup3\n        /* \"#utility.yul\":428:442   */\n      add\n        /* \"#utility.yul\":420:442   */\n      swap1\n      pop\n        /* \"#utility.yul\":317:449   */\n      swap2\n      swap1\n      pop\n      jump\t// out\n        /* \"#utility.yul\":455:581   */\n    tag_70:\n        /* \"#utility.yul\":492:499   */\n      0x00\n        /* \"#utility.yul\":532:574   */\n      0xffffffffffffffffffffffffffffffffffffffff\n        /* \"#utility.yul\":525:530   */\n      dup3\n        /* \"#utility.yul\":521:575   */\n      and\n        /* \"#utility.yul\":510:575   */\n      swap1\n      pop\n        /* \"#utility.yul\":455:581   */\n      swap2\n      swap1\n      pop\n      jump\t// out\n        /* \"#utility.yul\":587:683   */\n    tag_71:\n        /* \"#utility.yul\":624:631   */\n      0x00\n        /* \"#utility.yul\":653:677   */\n      tag_96\n        /* \"#utility.yul\":671:676   */\n      dup3\n        /* \"#utility.yul\":653:677   */\n      tag_70\n      jump\t// in\n    tag_96:\n        /* \"#utility.yul\":642:677   */\n      swap1\n      pop\n        /* \"#utility.yul\":587:683   */\n      swap2\n      swap1\n      pop\n      jump\t// out\n        /* \"#utility.yul\":689:797   */\n    tag_72:\n        /* \"#utility.yul\":766:790   */\n      tag_98\n        /* \"#utility.yul\":784:789   */\n      dup2\n        /* \"#utility.yul\":766:790   */\n      tag_71\n      jump\t// in\n    tag_98:\n        /* \"#utility.yul\":761:764   */\n      dup3\n        /* \"#utility.yul\":754:791   */\n      mstore\n        /* \"#utility.yul\":689:797   */\n      pop\n      pop\n      jump\t// out\n        /* \"#utility.yul\":803:982   */\n    tag_73:\n        /* \"#utility.yul\":872:882   */\n      0x00\n        /* \"#utility.yul\":893:939   */\n      tag_100\n        /* \"#utility.yul\":935:938   */\n      dup4\n        /* \"#utility.yul\":927:933   */\n      dup4\n        /* \"#utility.yul\":893:939   */\n      tag_72\n      jump\t// in\n    tag_100:\n        /* \"#utility.yul\":971:975   */\n      0x20\n        /* \"#utility.yul\":966:969   */\n      dup4\n        /* \"#utility.yul\":962:976   */\n      add\n        /* \"#utility.yul\":948:976   */\n      swap1\n      pop\n        /* \"#utility.yul\":803:982   */\n      swap3\n      swap2\n      pop\n      pop\n      jump\t// out\n        /* \"#utility.yul\":988:1101   */\n    tag_74:\n        /* \"#utility.yul\":1058:1062   */\n      0x00\n        /* \"#utility.yul\":1090:1094   */\n      0x20\n        /* \"#utility.yul\":1085:1088   */\n      dup3\n        /* \"#utility.yul\":1081:1095   */\n      add\n        /* \"#utility.yul\":1073:1095   */\n      swap1\n      pop\n        /* \"#utility.yul\":988:1101   */\n      swap2\n      swap1\n      pop\n      jump\t// out\n        /* \"#utility.yul\":1137:1869   */\n    tag_75:\n        /* \"#utility.yul\":1256:1259   */\n      0x00\n        /* \"#utility.yul\":1285:1339   */\n      tag_103\n        /* \"#utility.yul\":1333:1338   */\n      dup3\n        /* \"#utility.yul\":1285:1339   */\n      tag_67\n      jump\t// in\n    tag_103:\n        /* \"#utility.yul\":1355:1441   */\n      tag_104\n        /* \"#utility.yul\":1434:1440   */\n      dup2\n        /* \"#utility.yul\":1429:1432   */\n      dup6\n        /* \"#utility.yul\":1355:1441   */\n      tag_68\n      jump\t// in\n    tag_104:\n        /* \"#utility.yul\":1348:1441   */\n      swap4\n      pop\n        /* \"#utility.yul\":1465:1521   */\n      tag_105\n        /* \"#utility.yul\":1515:1520   */\n      dup4\n        /* \"#utility.yul\":1465:1521   */\n      tag_69\n      jump\t// in\n    tag_105:\n        /* \"#utility.yul\":1544:1551   */\n      dup1\n        /* \"#utility.yul\":1575:1576   */\n      0x00\n        /* \"#utility.yul\":1560:1844   */\n    tag_106:\n        /* \"#utility.yul\":1585:1591   */\n      dup4\n        /* \"#utility.yul\":1582:1583   */\n      dup2\n        /* \"#utility.yul\":1579:1592   */\n      lt\n        /* \"#utility.yul\":1560:1844   */\n      iszero\n      tag_108\n      jumpi\n        /* \"#utility.yul\":1661:1667   */\n      dup2\n        /* \"#utility.yul\":1655:1668   */\n      mload\n        /* \"#utility.yul\":1688:1751   */\n      tag_109\n        /* \"#utility.yul\":1747:1750   */\n      dup9\n        /* \"#utility.yul\":1732:1745   */\n      dup3\n        /* \"#utility.yul\":1688:1751   */\n      tag_73\n      jump\t// in\n    tag_109:\n        /* \"#utility.yul\":1681:1751   */\n      swap8\n      pop\n        /* \"#utility.yul\":1774:1834   */\n      tag_110\n        /* \"#utility.yul\":1827:1833   */\n      dup4\n        /* \"#utility.yul\":1774:1834   */\n      tag_74\n      jump\t// in\n    tag_110:\n        /* \"#utility.yul\":1764:1834   */\n      swap3\n      pop\n        /* \"#utility.yul\":1620:1844   */\n      pop\n        /* \"#utility.yul\":1607:1608   */\n      0x01\n        /* \"#utility.yul\":1604:1605   */\n      dup2\n        /* \"#utility.yul\":1600:1609   */\n      add\n        /* \"#utility.yul\":1595:1609   */\n      swap1\n      pop\n        /* \"#utility.yul\":1560:1844   */\n      jump(tag_106)\n    tag_108:\n        /* \"#utility.yul\":1564:1578   */\n      pop\n        /* \"#utility.yul\":1860:1863   */\n      dup6\n        /* \"#utility.yul\":1853:1863   */\n      swap4\n      pop\n        /* \"#utility.yul\":1261:1869   */\n      pop\n      pop\n      pop\n        /* \"#utility.yul\":1137:1869   */\n      swap3\n      swap2\n      pop\n      pop\n      jump\t// out\n        /* \"#utility.yul\":1875:2248   */\n    tag_15:\n        /* \"#utility.yul\":2018:2022   */\n      0x00\n        /* \"#utility.yul\":2056:2058   */\n      0x20\n        /* \"#utility.yul\":2045:2054   */\n      dup3\n        /* \"#utility.yul\":2041:2059   */\n      add\n        /* \"#utility.yul\":2033:2059   */\n      swap1\n      pop\n        /* \"#utility.yul\":2105:2114   */\n      dup2\n        /* \"#utility.yul\":2099:2103   */\n      dup2\n        /* \"#utility.yul\":2095:2115   */\n      sub\n        /* \"#utility.yul\":2091:2092   */\n      0x00\n        /* \"#utility.yul\":2080:2089   */\n      dup4\n        /* \"#utility.yul\":2076:2093   */\n      add\n        /* \"#utility.yul\":2069:2116   */\n      mstore\n        /* \"#utility.yul\":2133:2241   */\n      tag_112\n        /* \"#utility.yul\":2236:2240   */\n      dup2\n        /* \"#utility.yul\":2227:2233   */\n      dup5\n        /* \"#utility.yul\":2133:2241   */\n      tag_75\n      jump\t// in\n    tag_112:\n        /* \"#utility.yul\":2125:2241   */\n      swap1\n      pop\n        /* \"#utility.yul\":1875:2248   */\n      swap3\n      swap2\n      pop\n      pop\n      jump\t// out\n        /* \"#utility.yul\":2335:2452   */\n    tag_77:\n        /* \"#utility.yul\":2444:2445   */\n      0x00\n        /* \"#utility.yul\":2441:2442   */\n      dup1\n        /* \"#utility.yul\":2434:2446   */\n      revert\n        /* \"#utility.yul\":2581:2703   */\n    tag_79:\n        /* \"#utility.yul\":2654:2678   */\n      tag_117\n        /* \"#utility.yul\":2672:2677   */\n      dup2\n        /* \"#utility.yul\":2654:2678   */\n      tag_71\n      jump\t// in\n    tag_117:\n        /* \"#utility.yul\":2647:2652   */\n      dup2\n        /* \"#utility.yul\":2644:2679   */\n      eq\n        /* \"#utility.yul\":2634:2697   */\n      tag_118\n      jumpi\n        /* \"#utility.yul\":2693:2694   */\n      0x00\n        /* \"#utility.yul\":2690:2691   */\n      dup1\n        /* \"#utility.yul\":2683:2695   */\n      revert\n        /* \"#utility.yul\":2634:2697   */\n    tag_118:\n        /* \"#utility.yul\":2581:2703   */\n      pop\n      jump\t// out\n        /* \"#utility.yul\":2709:2848   */\n    tag_80:\n        /* \"#utility.yul\":2755:2760   */\n      0x00\n        /* \"#utility.yul\":2793:2799   */\n      dup2\n        /* \"#utility.yul\":2780:2800   */\n      calldataload\n        /* \"#utility.yul\":2771:2800   */\n      swap1\n      pop\n        /* \"#utility.yul\":2809:2842   */\n      tag_120\n        /* \"#utility.yul\":2836:2841   */\n      dup2\n        /* \"#utility.yul\":2809:2842   */\n      tag_79\n      jump\t// in\n    tag_120:\n        /* \"#utility.yul\":2709:2848   */\n      swap3\n      swap2\n      pop\n      pop\n      jump\t// out\n        /* \"#utility.yul\":2854:3183   */\n    tag_18:\n        /* \"#utility.yul\":2913:2919   */\n      0x00\n        /* \"#utility.yul\":2962:2964   */\n      0x20\n        /* \"#utility.yul\":2950:2959   */\n      dup3\n        /* \"#utility.yul\":2941:2948   */\n      dup5\n        /* \"#utility.yul\":2937:2960   */\n      sub\n        /* \"#utility.yul\":2933:2965   */\n      slt\n        /* \"#utility.yul\":2930:3049   */\n      iszero\n      tag_122\n      jumpi\n        /* \"#utility.yul\":2968:3047   */\n      tag_123\n      tag_77\n      jump\t// in\n    tag_123:\n        /* \"#utility.yul\":2930:3049   */\n    tag_122:\n        /* \"#utility.yul\":3088:3089   */\n      0x00\n        /* \"#utility.yul\":3113:3166   */\n      tag_124\n        /* \"#utility.yul\":3158:3165   */\n      dup5\n        /* \"#utility.yul\":3149:3155   */\n      dup3\n        /* \"#utility.yul\":3138:3147   */\n      dup6\n        /* \"#utility.yul\":3134:3156   */\n      add\n        /* \"#utility.yul\":3113:3166   */\n      tag_80\n      jump\t// in\n    tag_124:\n        /* \"#utility.yul\":3103:3166   */\n      swap2\n      pop\n        /* \"#utility.yul\":3059:3176   */\n      pop\n        /* \"#utility.yul\":2854:3183   */\n      swap3\n      swap2\n      pop\n      pop\n      jump\t// out\n        /* \"#utility.yul\":3189:3279   */\n    tag_81:\n        /* \"#utility.yul\":3223:3230   */\n      0x00\n        /* \"#utility.yul\":3266:3271   */\n      dup2\n        /* \"#utility.yul\":3259:3272   */\n      iszero\n        /* \"#utility.yul\":3252:3273   */\n      iszero\n        /* \"#utility.yul\":3241:3273   */\n      swap1\n      pop\n        /* \"#utility.yul\":3189:3279   */\n      swap2\n      swap1\n      pop\n      jump\t// out\n        /* \"#utility.yul\":3285:3394   */\n    tag_82:\n        /* \"#utility.yul\":3366:3387   */\n      tag_127\n        /* \"#utility.yul\":3381:3386   */\n      dup2\n        /* \"#utility.yul\":3366:3387   */\n      tag_81\n      jump\t// in\n    tag_127:\n        /* \"#utility.yul\":3361:3364   */\n      dup3\n        /* \"#utility.yul\":3354:3388   */\n      mstore\n        /* \"#utility.yul\":3285:3394   */\n      pop\n      pop\n      jump\t// out\n        /* \"#utility.yul\":3400:3610   */\n    tag_21:\n        /* \"#utility.yul\":3487:3491   */\n      0x00\n        /* \"#utility.yul\":3525:3527   */\n      0x20\n        /* \"#utility.yul\":3514:3523   */\n      dup3\n        /* \"#utility.yul\":3510:3528   */\n      add\n        /* \"#utility.yul\":3502:3528   */\n      swap1\n      pop\n        /* \"#utility.yul\":3538:3603   */\n      tag_129\n        /* \"#utility.yul\":3600:3601   */\n      0x00\n        /* \"#utility.yul\":3589:3598   */\n      dup4\n        /* \"#utility.yul\":3585:3602   */\n      add\n        /* \"#utility.yul\":3576:3582   */\n      dup5\n        /* \"#utility.yul\":3538:3603   */\n      tag_82\n      jump\t// in\n    tag_129:\n        /* \"#utility.yul\":3400:3610   */\n      swap3\n      swap2\n      pop\n      pop\n      jump\t// out\n        /* \"#utility.yul\":3616:3734   */\n    tag_83:\n        /* \"#utility.yul\":3703:3727   */\n      tag_131\n        /* \"#utility.yul\":3721:3726   */\n      dup2\n        /* \"#utility.yul\":3703:3727   */\n      tag_71\n      jump\t// in\n    tag_131:\n        /* \"#utility.yul\":3698:3701   */\n      dup3\n        /* \"#utility.yul\":3691:3728   */\n      mstore\n        /* \"#utility.yul\":3616:3734   */\n      pop\n      pop\n      jump\t// out\n        /* \"#utility.yul\":3740:3962   */\n    tag_26:\n        /* \"#utility.yul\":3833:3837   */\n      0x00\n        /* \"#utility.yul\":3871:3873   */\n      0x20\n        /* \"#utility.yul\":3860:3869   */\n      dup3\n        /* \"#utility.yul\":3856:3874   */\n      add\n        /* \"#utility.yul\":3848:3874   */\n      swap1\n      pop\n        /* \"#utility.yul\":3884:3955   */\n      tag_133\n        /* \"#utility.yul\":3952:3953   */\n      0x00\n        /* \"#utility.yul\":3941:3950   */\n      dup4\n        /* \"#utility.yul\":3937:3954   */\n      add\n        /* \"#utility.yul\":3928:3934   */\n      dup5\n        /* \"#utility.yul\":3884:3955   */\n      tag_83\n      jump\t// in\n    tag_133:\n        /* \"#utility.yul\":3740:3962   */\n      swap3\n      swap2\n      pop\n      pop\n      jump\t// out\n        /* \"#utility.yul\":3968:4045   */\n    tag_84:\n        /* \"#utility.yul\":4005:4012   */\n      0x00\n        /* \"#utility.yul\":4034:4039   */\n      dup2\n        /* \"#utility.yul\":4023:4039   */\n      swap1\n      pop\n        /* \"#utility.yul\":3968:4045   */\n      swap2\n      swap1\n      pop\n      jump\t// out\n        /* \"#utility.yul\":4051:4173   */\n    tag_85:\n        /* \"#utility.yul\":4124:4148   */\n      tag_136\n        /* \"#utility.yul\":4142:4147   */\n      dup2\n        /* \"#utility.yul\":4124:4148   */\n      tag_84\n      jump\t// in\n    tag_136:\n        /* \"#utility.yul\":4117:4122   */\n      dup2\n        /* \"#utility.yul\":4114:4149   */\n      eq\n        /* \"#utility.yul\":4104:4167   */\n      tag_137\n      jumpi\n        /* \"#utility.yul\":4163:4164   */\n      0x00\n        /* \"#utility.yul\":4160:4161   */\n      dup1\n        /* \"#utility.yul\":4153:4165   */\n      revert\n        /* \"#utility.yul\":4104:4167   */\n    tag_137:\n        /* \"#utility.yul\":4051:4173   */\n      pop\n      jump\t// out\n        /* \"#utility.yul\":4179:4318   */\n    tag_86:\n        /* \"#utility.yul\":4225:4230   */\n      0x00\n        /* \"#utility.yul\":4263:4269   */\n      dup2\n        /* \"#utility.yul\":4250:4270   */\n      calldataload\n        /* \"#utility.yul\":4241:4270   */\n      swap1\n      pop\n        /* \"#utility.yul\":4279:4312   */\n      tag_139\n        /* \"#utility.yul\":4306:4311   */\n      dup2\n        /* \"#utility.yul\":4279:4312   */\n      tag_85\n      jump\t// in\n    tag_139:\n        /* \"#utility.yul\":4179:4318   */\n      swap3\n      swap2\n      pop\n      pop\n      jump\t// out\n        /* \"#utility.yul\":4324:4653   */\n    tag_34:\n        /* \"#utility.yul\":4383:4389   */\n      0x00\n        /* \"#utility.yul\":4432:4434   */\n      0x20\n        /* \"#utility.yul\":4420:4429   */\n      dup3\n        /* \"#utility.yul\":4411:4418   */\n      dup5\n        /* \"#utility.yul\":4407:4430   */\n      sub\n        /* \"#utility.yul\":4403:4435   */\n      slt\n        /* \"#utility.yul\":4400:4519   */\n      iszero\n      tag_141\n      jumpi\n        /* \"#utility.yul\":4438:4517   */\n      tag_142\n      tag_77\n      jump\t// in\n    tag_142:\n        /* \"#utility.yul\":4400:4519   */\n    tag_141:\n        /* \"#utility.yul\":4558:4559   */\n      0x00\n        /* \"#utility.yul\":4583:4636   */\n      tag_143\n        /* \"#utility.yul\":4628:4635   */\n      dup5\n        /* \"#utility.yul\":4619:4625   */\n      dup3\n        /* \"#utility.yul\":4608:4617   */\n      dup6\n        /* \"#utility.yul\":4604:4626   */\n      add\n        /* \"#utility.yul\":4583:4636   */\n      tag_86\n      jump\t// in\n    tag_143:\n        /* \"#utility.yul\":4573:4636   */\n      swap2\n      pop\n        /* \"#utility.yul\":4529:4646   */\n      pop\n        /* \"#utility.yul\":4324:4653   */\n      swap3\n      swap2\n      pop\n      pop\n      jump\t// out\n        /* \"#utility.yul\":4659:4828   */\n    tag_87:\n        /* \"#utility.yul\":4743:4754   */\n      0x00\n        /* \"#utility.yul\":4777:4783   */\n      dup3\n        /* \"#utility.yul\":4772:4775   */\n      dup3\n        /* \"#utility.yul\":4765:4784   */\n      mstore\n        /* \"#utility.yul\":4817:4821   */\n      0x20\n        /* \"#utility.yul\":4812:4815   */\n      dup3\n        /* \"#utility.yul\":4808:4822   */\n      add\n        /* \"#utility.yul\":4793:4822   */\n      swap1\n      pop\n        /* \"#utility.yul\":4659:4828   */\n      swap3\n      swap2\n      pop\n      pop\n      jump\t// out\n        /* \"#utility.yul\":4834:5010   */\n    tag_88:\n        /* \"#utility.yul\":4974:5002   */\n      0x596f7520646f6e27742068617665207065726d697373696f6e73000000000000\n        /* \"#utility.yul\":4970:4971   */\n      0x00\n        /* \"#utility.yul\":4962:4968   */\n      dup3\n        /* \"#utility.yul\":4958:4972   */\n      add\n        /* \"#utility.yul\":4951:5003   */\n      mstore\n        /* \"#utility.yul\":4834:5010   */\n      pop\n      jump\t// out\n        /* \"#utility.yul\":5016:5382   */\n    tag_89:\n        /* \"#utility.yul\":5158:5161   */\n      0x00\n        /* \"#utility.yul\":5179:5246   */\n      tag_147\n        /* \"#utility.yul\":5243:5245   */\n      0x1a\n        /* \"#utility.yul\":5238:5241   */\n      dup4\n        /* \"#utility.yul\":5179:5246   */\n      tag_87\n      jump\t// in\n    tag_147:\n        /* \"#utility.yul\":5172:5246   */\n      swap2\n      pop\n        /* \"#utility.yul\":5255:5348   */\n      tag_148\n        /* \"#utility.yul\":5344:5347   */\n      dup3\n        /* \"#utility.yul\":5255:5348   */\n      tag_88\n      jump\t// in\n    tag_148:\n        /* \"#utility.yul\":5373:5375   */\n      0x20\n        /* \"#utility.yul\":5368:5371   */\n      dup3\n        /* \"#utility.yul\":5364:5376   */\n      add\n        /* \"#utility.yul\":5357:5376   */\n      swap1\n      pop\n        /* \"#utility.yul\":5016:5382   */\n      swap2\n      swap1\n      pop\n      jump\t// out\n        /* \"#utility.yul\":5388:5807   */\n    tag_54:\n        /* \"#utility.yul\":5554:5558   */\n      0x00\n        /* \"#utility.yul\":5592:5594   */\n      0x20\n        /* \"#utility.yul\":5581:5590   */\n      dup3\n        /* \"#utility.yul\":5577:5595   */\n      add\n        /* \"#utility.yul\":5569:5595   */\n      swap1\n      pop\n        /* \"#utility.yul\":5641:5650   */\n      dup2\n        /* \"#utility.yul\":5635:5639   */\n      dup2\n        /* \"#utility.yul\":5631:5651   */\n      sub\n        /* \"#utility.yul\":5627:5628   */\n      0x00\n        /* \"#utility.yul\":5616:5625   */\n      dup4\n        /* \"#utility.yul\":5612:5629   */\n      add\n        /* \"#utility.yul\":5605:5652   */\n      mstore\n        /* \"#utility.yul\":5669:5800   */\n      tag_150\n        /* \"#utility.yul\":5795:5799   */\n      dup2\n        /* \"#utility.yul\":5669:5800   */\n      tag_89\n      jump\t// in\n    tag_150:\n        /* \"#utility.yul\":5661:5800   */\n      swap1\n      pop\n        /* \"#utility.yul\":5388:5807   */\n      swap2\n      swap1\n      pop\n      jump\t// out\n        /* \"#utility.yul\":5813:6145   */\n    tag_61:\n        /* \"#utility.yul\":5934:5938   */\n      0x00\n        /* \"#utility.yul\":5972:5974   */\n      0x40\n        /* \"#utility.yul\":5961:5970   */\n      dup3\n        /* \"#utility.yul\":5957:5975   */\n      add\n        /* \"#utility.yul\":5949:5975   */\n      swap1\n      pop\n        /* \"#utility.yul\":5985:6056   */\n      tag_152\n        /* \"#utility.yul\":6053:6054   */\n      0x00\n        /* \"#utility.yul\":6042:6051   */\n      dup4\n        /* \"#utility.yul\":6038:6055   */\n      add\n        /* \"#utility.yul\":6029:6035   */\n      dup6\n        /* \"#utility.yul\":5985:6056   */\n      tag_83\n      jump\t// in\n    tag_152:\n        /* \"#utility.yul\":6066:6138   */\n      tag_153\n        /* \"#utility.yul\":6134:6136   */\n      0x20\n        /* \"#utility.yul\":6123:6132   */\n      dup4\n        /* \"#utility.yul\":6119:6137   */\n      add\n        /* \"#utility.yul\":6110:6116   */\n      dup5\n        /* \"#utility.yul\":6066:6138   */\n      tag_83\n      jump\t// in\n    tag_153:\n        /* \"#utility.yul\":5813:6145   */\n      swap4\n      swap3\n      pop\n      pop\n      pop\n      jump\t// out\n    stop\n\n    sub_0: assembly {\n            /* \"WHO/who.sol\":1941:2978  contract ContractHealthCenter{... */\n          mstore(0x40, 0x80)\n            /* \"WHO/who.sol\":2056:2175  constructor(address _address){... */\n          callvalue\n          dup1\n          iszero\n          tag_1\n          jumpi\n          0x00\n          dup1\n          revert\n        tag_1:\n          pop\n          mload(0x40)\n          sub(codesize, bytecodeSize)\n          dup1\n          bytecodeSize\n          dup4\n          codecopy\n          dup2\n          dup2\n          add\n          0x40\n          mstore\n          dup2\n          add\n          swap1\n          tag_2\n          swap2\n          swap1\n          tag_3\n          jump\t// in\n        tag_2:\n            /* \"WHO/who.sol\":2119:2127  _address */\n          dup1\n            /* \"WHO/who.sol\":2095:2116  HealthCenter_contract */\n          0x00\n          dup1\n            /* \"WHO/who.sol\":2095:2127  HealthCenter_contract = _address */\n          0x0100\n          exp\n          dup2\n          sload\n          dup2\n          0xffffffffffffffffffffffffffffffffffffffff\n          mul\n          not\n          and\n          swap1\n          dup4\n          0xffffffffffffffffffffffffffffffffffffffff\n          and\n          mul\n          or\n          swap1\n          sstore\n          pop\n            /* \"WHO/who.sol\":2163:2167  this */\n          address\n            /* \"WHO/who.sol\":2137:2152  contractAddress */\n          0x01\n          0x00\n            /* \"WHO/who.sol\":2137:2168  contractAddress = address(this) */\n          0x0100\n          exp\n          dup2\n          sload\n          dup2\n          0xffffffffffffffffffffffffffffffffffffffff\n          mul\n          not\n          and\n          swap1\n          dup4\n          0xffffffffffffffffffffffffffffffffffffffff\n          and\n          mul\n          or\n          swap1\n          sstore\n          pop\n            /* \"WHO/who.sol\":2056:2175  constructor(address _address){... */\n          pop\n            /* \"WHO/who.sol\":1941:2978  contract ContractHealthCenter{... */\n          jump(tag_6)\n            /* \"#utility.yul\":88:205   */\n        tag_8:\n            /* \"#utility.yul\":197:198   */\n          0x00\n            /* \"#utility.yul\":194:195   */\n          dup1\n            /* \"#utility.yul\":187:199   */\n          revert\n            /* \"#utility.yul\":334:460   */\n        tag_10:\n            /* \"#utility.yul\":371:378   */\n          0x00\n            /* \"#utility.yul\":411:453   */\n          0xffffffffffffffffffffffffffffffffffffffff\n            /* \"#utility.yul\":404:409   */\n          dup3\n            /* \"#utility.yul\":400:454   */\n          and\n            /* \"#utility.yul\":389:454   */\n          swap1\n          pop\n            /* \"#utility.yul\":334:460   */\n          swap2\n          swap1\n          pop\n          jump\t// out\n            /* \"#utility.yul\":466:562   */\n        tag_11:\n            /* \"#utility.yul\":503:510   */\n          0x00\n            /* \"#utility.yul\":532:556   */\n          tag_20\n            /* \"#utility.yul\":550:555   */\n          dup3\n            /* \"#utility.yul\":532:556   */\n          tag_10\n          jump\t// in\n        tag_20:\n            /* \"#utility.yul\":521:556   */\n          swap1\n          pop\n            /* \"#utility.yul\":466:562   */\n          swap2\n          swap1\n          pop\n          jump\t// out\n            /* \"#utility.yul\":568:690   */\n        tag_12:\n            /* \"#utility.yul\":641:665   */\n          tag_22\n            /* \"#utility.yul\":659:664   */\n          dup2\n            /* \"#utility.yul\":641:665   */\n          tag_11\n          jump\t// in\n        tag_22:\n            /* \"#utility.yul\":634:639   */\n          dup2\n            /* \"#utility.yul\":631:666   */\n          eq\n            /* \"#utility.yul\":621:684   */\n          tag_23\n          jumpi\n            /* \"#utility.yul\":680:681   */\n          0x00\n            /* \"#utility.yul\":677:678   */\n          dup1\n            /* \"#utility.yul\":670:682   */\n          revert\n            /* \"#utility.yul\":621:684   */\n        tag_23:\n            /* \"#utility.yul\":568:690   */\n          pop\n          jump\t// out\n            /* \"#utility.yul\":696:839   */\n        tag_13:\n            /* \"#utility.yul\":753:758   */\n          0x00\n            /* \"#utility.yul\":784:790   */\n          dup2\n            /* \"#utility.yul\":778:791   */\n          mload\n            /* \"#utility.yul\":769:791   */\n          swap1\n          pop\n            /* \"#utility.yul\":800:833   */\n          tag_25\n            /* \"#utility.yul\":827:832   */\n          dup2\n            /* \"#utility.yul\":800:833   */\n          tag_12\n          jump\t// in\n        tag_25:\n            /* \"#utility.yul\":696:839   */\n          swap3\n          swap2\n          pop\n          pop\n          jump\t// out\n            /* \"#utility.yul\":845:1196   */\n        tag_3:\n            /* \"#utility.yul\":915:921   */\n          0x00\n            /* \"#utility.yul\":964:966   */\n          0x20\n            /* \"#utility.yul\":952:961   */\n          dup3\n            /* \"#utility.yul\":943:950   */\n          dup5\n            /* \"#utility.yul\":939:962   */\n          sub\n            /* \"#utility.yul\":935:967   */\n          slt\n            /* \"#utility.yul\":932:1051   */\n          iszero\n          tag_27\n          jumpi\n            /* \"#utility.yul\":970:1049   */\n          tag_28\n          tag_8\n          jump\t// in\n        tag_28:\n            /* \"#utility.yul\":932:1051   */\n        tag_27:\n            /* \"#utility.yul\":1090:1091   */\n          0x00\n            /* \"#utility.yul\":1115:1179   */\n          tag_29\n            /* \"#utility.yul\":1171:1178   */\n          dup5\n            /* \"#utility.yul\":1162:1168   */\n          dup3\n            /* \"#utility.yul\":1151:1160   */\n          dup6\n            /* \"#utility.yul\":1147:1169   */\n          add\n            /* \"#utility.yul\":1115:1179   */\n          tag_13\n          jump\t// in\n        tag_29:\n            /* \"#utility.yul\":1105:1179   */\n          swap2\n          pop\n            /* \"#utility.yul\":1061:1189   */\n          pop\n            /* \"#utility.yul\":845:1196   */\n          swap3\n          swap2\n          pop\n          pop\n          jump\t// out\n            /* \"WHO/who.sol\":1941:2978  contract ContractHealthCenter{... */\n        tag_6:\n          dataSize(sub_0)\n          dup1\n          dataOffset(sub_0)\n          0x00\n          codecopy\n          0x00\n          return\n        stop\n\n        sub_0: assembly {\n                /* \"WHO/who.sol\":1941:2978  contract ContractHealthCenter{... */\n              mstore(0x40, 0x80)\n              callvalue\n              dup1\n              iszero\n              tag_1\n              jumpi\n              0x00\n              dup1\n              revert\n            tag_1:\n              pop\n              jumpi(tag_2, lt(calldatasize, 0x04))\n              shr(0xe0, calldataload(0x00))\n              dup1\n              0x0cd5662c\n              eq\n              tag_3\n              jumpi\n              dup1\n              0x8f13c404\n              eq\n              tag_4\n              jumpi\n              dup1\n              0xf6b4dfb4\n              eq\n              tag_5\n              jumpi\n            tag_2:\n              0x00\n              dup1\n              revert\n                /* \"WHO/who.sol\":2647:2975  function CovidTestResults(string memory _idPerson, bool _COVIDresult, string memory _IPFScode) public onlyHealthCenter(msg.sender){... */\n            tag_3:\n              tag_6\n              0x04\n              dup1\n              calldatasize\n              sub\n              dup2\n              add\n              swap1\n              tag_7\n              swap2\n              swap1\n              tag_8\n              jump\t// in\n            tag_7:\n              tag_9\n              jump\t// in\n            tag_6:\n              stop\n                /* \"WHO/who.sol\":1977:2013  address public HealthCenter_contract */\n            tag_4:\n              tag_10\n              tag_11\n              jump\t// in\n            tag_10:\n              mload(0x40)\n              tag_12\n              swap2\n              swap1\n              tag_13\n              jump\t// in\n            tag_12:\n              mload(0x40)\n              dup1\n              swap2\n              sub\n              swap1\n              return\n                /* \"WHO/who.sol\":2019:2049  address public contractAddress */\n            tag_5:\n              tag_14\n              tag_15\n              jump\t// in\n            tag_14:\n              mload(0x40)\n              tag_16\n              swap2\n              swap1\n              tag_13\n              jump\t// in\n            tag_16:\n              mload(0x40)\n              dup1\n              swap2\n              sub\n              swap1\n              return\n                /* \"WHO/who.sol\":2647:2975  function CovidTestResults(string memory _idPerson, bool _COVIDresult, string memory _IPFScode) public onlyHealthCenter(msg.sender){... */\n            tag_9:\n                /* \"WHO/who.sol\":2766:2776  msg.sender */\n              caller\n                /* \"WHO/who.sol\":2528:2549  HealthCenter_contract */\n              0x00\n              dup1\n              sload\n              swap1\n              0x0100\n              exp\n              swap1\n              div\n              0xffffffffffffffffffffffffffffffffffffffff\n              and\n                /* \"WHO/who.sol\":2516:2549  _address == HealthCenter_contract */\n              0xffffffffffffffffffffffffffffffffffffffff\n              and\n                /* \"WHO/who.sol\":2516:2524  _address */\n              dup2\n                /* \"WHO/who.sol\":2516:2549  _address == HealthCenter_contract */\n              0xffffffffffffffffffffffffffffffffffffffff\n              and\n              eq\n                /* \"WHO/who.sol\":2508:2579  require(_address == HealthCenter_contract,\"You don't have permissions\") */\n              tag_18\n              jumpi\n              mload(0x40)\n              0x08c379a000000000000000000000000000000000000000000000000000000000\n              dup2\n              mstore\n              0x04\n              add\n              tag_19\n              swap1\n              tag_20\n              jump\t// in\n            tag_19:\n              mload(0x40)\n              dup1\n              swap2\n              sub\n              swap1\n              revert\n            tag_18:\n                /* \"WHO/who.sol\":2787:2808  bytes32 hash_idPerson */\n              0x00\n                /* \"WHO/who.sol\":2838:2847  _idPerson */\n              dup5\n                /* \"WHO/who.sol\":2821:2848  abi.encodePacked(_idPerson) */\n              add(0x20, mload(0x40))\n              tag_22\n              swap2\n              swap1\n              tag_23\n              jump\t// in\n            tag_22:\n              mload(0x40)\n              0x20\n              dup2\n              dup4\n              sub\n              sub\n              dup2\n              mstore\n              swap1\n              0x40\n              mstore\n                /* \"WHO/who.sol\":2811:2849  keccak256(abi.encodePacked(_idPerson)) */\n              dup1\n              mload\n              swap1\n              0x20\n              add\n              keccak256\n                /* \"WHO/who.sol\":2787:2849  bytes32 hash_idPerson = keccak256(abi.encodePacked(_idPerson)) */\n              swap1\n              pop\n                /* \"WHO/who.sol\":2889:2920  results(_COVIDresult,_IPFScode) */\n              mload(0x40)\n              dup1\n              0x40\n              add\n              0x40\n              mstore\n              dup1\n                /* \"WHO/who.sol\":2897:2909  _COVIDresult */\n              dup6\n                /* \"WHO/who.sol\":2889:2920  results(_COVIDresult,_IPFScode) */\n              iszero\n              iszero\n              dup2\n              mstore\n              0x20\n              add\n                /* \"WHO/who.sol\":2910:2919  _IPFScode */\n              dup5\n                /* \"WHO/who.sol\":2889:2920  results(_COVIDresult,_IPFScode) */\n              dup2\n              mstore\n              pop\n                /* \"WHO/who.sol\":2859:2871  COVIDresults */\n              0x02\n                /* \"WHO/who.sol\":2859:2886  COVIDresults[hash_idPerson] */\n              0x00\n                /* \"WHO/who.sol\":2872:2885  hash_idPerson */\n              dup4\n                /* \"WHO/who.sol\":2859:2886  COVIDresults[hash_idPerson] */\n              dup2\n              mstore\n              0x20\n              add\n              swap1\n              dup2\n              mstore\n              0x20\n              add\n              0x00\n              keccak256\n                /* \"WHO/who.sol\":2859:2920  COVIDresults[hash_idPerson] = results(_COVIDresult,_IPFScode) */\n              0x00\n              dup3\n              add\n              mload\n              dup2\n              0x00\n              add\n              exp(0x0100, 0x00)\n              dup2\n              sload\n              dup2\n              0xff\n              mul\n              not\n              and\n              swap1\n              dup4\n              iszero\n              iszero\n              mul\n              or\n              swap1\n              sstore\n              pop\n              0x20\n              dup3\n              add\n              mload\n              dup2\n              0x01\n              add\n              swap1\n              dup2\n              tag_24\n              swap2\n              swap1\n              tag_25\n              jump\t// in\n            tag_24:\n              pop\n              swap1\n              pop\n              pop\n                /* \"WHO/who.sol\":2935:2968  newResult(_COVIDresult,_IPFScode) */\n              0x1ca780be614113b3e639b9c4bba4f21cb45139ef8d48f54ca3f8d9852db387b0\n                /* \"WHO/who.sol\":2945:2957  _COVIDresult */\n              dup5\n                /* \"WHO/who.sol\":2958:2967  _IPFScode */\n              dup5\n                /* \"WHO/who.sol\":2935:2968  newResult(_COVIDresult,_IPFScode) */\n              mload(0x40)\n              tag_26\n              swap3\n              swap2\n              swap1\n              tag_27\n              jump\t// in\n            tag_26:\n              mload(0x40)\n              dup1\n              swap2\n              sub\n              swap1\n              log1\n                /* \"WHO/who.sol\":2777:2975  {... */\n              pop\n                /* \"WHO/who.sol\":2647:2975  function CovidTestResults(string memory _idPerson, bool _COVIDresult, string memory _IPFScode) public onlyHealthCenter(msg.sender){... */\n              pop\n              pop\n              pop\n              pop\n              jump\t// out\n                /* \"WHO/who.sol\":1977:2013  address public HealthCenter_contract */\n            tag_11:\n              0x00\n              dup1\n              sload\n              swap1\n              0x0100\n              exp\n              swap1\n              div\n              0xffffffffffffffffffffffffffffffffffffffff\n              and\n              dup2\n              jump\t// out\n                /* \"WHO/who.sol\":2019:2049  address public contractAddress */\n            tag_15:\n              0x01\n              0x00\n              swap1\n              sload\n              swap1\n              0x0100\n              exp\n              swap1\n              div\n              0xffffffffffffffffffffffffffffffffffffffff\n              and\n              dup2\n              jump\t// out\n                /* \"#utility.yul\":7:82   */\n            tag_28:\n                /* \"#utility.yul\":40:46   */\n              0x00\n                /* \"#utility.yul\":73:75   */\n              0x40\n                /* \"#utility.yul\":67:76   */\n              mload\n                /* \"#utility.yul\":57:76   */\n              swap1\n              pop\n                /* \"#utility.yul\":7:82   */\n              swap1\n              jump\t// out\n                /* \"#utility.yul\":88:205   */\n            tag_29:\n                /* \"#utility.yul\":197:198   */\n              0x00\n                /* \"#utility.yul\":194:195   */\n              dup1\n                /* \"#utility.yul\":187:199   */\n              revert\n                /* \"#utility.yul\":211:328   */\n            tag_30:\n                /* \"#utility.yul\":320:321   */\n              0x00\n                /* \"#utility.yul\":317:318   */\n              dup1\n                /* \"#utility.yul\":310:322   */\n              revert\n                /* \"#utility.yul\":334:451   */\n            tag_31:\n                /* \"#utility.yul\":443:444   */\n              0x00\n                /* \"#utility.yul\":440:441   */\n              dup1\n                /* \"#utility.yul\":433:445   */\n              revert\n                /* \"#utility.yul\":457:574   */\n            tag_32:\n                /* \"#utility.yul\":566:567   */\n              0x00\n                /* \"#utility.yul\":563:564   */\n              dup1\n                /* \"#utility.yul\":556:568   */\n              revert\n                /* \"#utility.yul\":580:682   */\n            tag_33:\n                /* \"#utility.yul\":621:627   */\n              0x00\n                /* \"#utility.yul\":672:674   */\n              0x1f\n                /* \"#utility.yul\":668:675   */\n              not\n                /* \"#utility.yul\":663:665   */\n              0x1f\n                /* \"#utility.yul\":656:661   */\n              dup4\n                /* \"#utility.yul\":652:666   */\n              add\n                /* \"#utility.yul\":648:676   */\n              and\n                /* \"#utility.yul\":638:676   */\n              swap1\n              pop\n                /* \"#utility.yul\":580:682   */\n              swap2\n              swap1\n              pop\n              jump\t// out\n                /* \"#utility.yul\":688:868   */\n            tag_34:\n                /* \"#utility.yul\":736:813   */\n              0x4e487b7100000000000000000000000000000000000000000000000000000000\n                /* \"#utility.yul\":733:734   */\n              0x00\n                /* \"#utility.yul\":726:814   */\n              mstore\n                /* \"#utility.yul\":833:837   */\n              0x41\n                /* \"#utility.yul\":830:831   */\n              0x04\n                /* \"#utility.yul\":823:838   */\n              mstore\n                /* \"#utility.yul\":857:861   */\n              0x24\n                /* \"#utility.yul\":854:855   */\n              0x00\n                /* \"#utility.yul\":847:862   */\n              revert\n                /* \"#utility.yul\":874:1155   */\n            tag_35:\n                /* \"#utility.yul\":957:984   */\n              tag_83\n                /* \"#utility.yul\":979:983   */\n              dup3\n                /* \"#utility.yul\":957:984   */\n              tag_33\n              jump\t// in\n            tag_83:\n                /* \"#utility.yul\":949:955   */\n              dup2\n                /* \"#utility.yul\":945:985   */\n              add\n                /* \"#utility.yul\":1087:1093   */\n              dup2\n                /* \"#utility.yul\":1075:1085   */\n              dup2\n                /* \"#utility.yul\":1072:1094   */\n              lt\n                /* \"#utility.yul\":1051:1069   */\n              0xffffffffffffffff\n                /* \"#utility.yul\":1039:1049   */\n              dup3\n                /* \"#utility.yul\":1036:1070   */\n              gt\n                /* \"#utility.yul\":1033:1095   */\n              or\n                /* \"#utility.yul\":1030:1118   */\n              iszero\n              tag_84\n              jumpi\n                /* \"#utility.yul\":1098:1116   */\n              tag_85\n              tag_34\n              jump\t// in\n            tag_85:\n                /* \"#utility.yul\":1030:1118   */\n            tag_84:\n                /* \"#utility.yul\":1138:1148   */\n              dup1\n                /* \"#utility.yul\":1134:1136   */\n              0x40\n                /* \"#utility.yul\":1127:1149   */\n              mstore\n                /* \"#utility.yul\":917:1155   */\n              pop\n                /* \"#utility.yul\":874:1155   */\n              pop\n              pop\n              jump\t// out\n                /* \"#utility.yul\":1161:1290   */\n            tag_36:\n                /* \"#utility.yul\":1195:1201   */\n              0x00\n                /* \"#utility.yul\":1222:1242   */\n              tag_87\n              tag_28\n              jump\t// in\n            tag_87:\n                /* \"#utility.yul\":1212:1242   */\n              swap1\n              pop\n                /* \"#utility.yul\":1251:1284   */\n              tag_88\n                /* \"#utility.yul\":1279:1283   */\n              dup3\n                /* \"#utility.yul\":1271:1277   */\n              dup3\n                /* \"#utility.yul\":1251:1284   */\n              tag_35\n              jump\t// in\n            tag_88:\n                /* \"#utility.yul\":1161:1290   */\n              swap2\n              swap1\n              pop\n              jump\t// out\n                /* \"#utility.yul\":1296:1604   */\n            tag_37:\n                /* \"#utility.yul\":1358:1362   */\n              0x00\n                /* \"#utility.yul\":1448:1466   */\n              0xffffffffffffffff\n                /* \"#utility.yul\":1440:1446   */\n              dup3\n                /* \"#utility.yul\":1437:1467   */\n              gt\n                /* \"#utility.yul\":1434:1490   */\n              iszero\n              tag_90\n              jumpi\n                /* \"#utility.yul\":1470:1488   */\n              tag_91\n              tag_34\n              jump\t// in\n            tag_91:\n                /* \"#utility.yul\":1434:1490   */\n            tag_90:\n                /* \"#utility.yul\":1508:1537   */\n              tag_92\n                /* \"#utility.yul\":1530:1536   */\n              dup3\n                /* \"#utility.yul\":1508:1537   */\n              tag_33\n              jump\t// in\n            tag_92:\n                /* \"#utility.yul\":1500:1537   */\n              swap1\n              pop\n                /* \"#utility.yul\":1592:1596   */\n              0x20\n                /* \"#utility.yul\":1586:1590   */\n              dup2\n                /* \"#utility.yul\":1582:1597   */\n              add\n                /* \"#utility.yul\":1574:1597   */\n              swap1\n              pop\n                /* \"#utility.yul\":1296:1604   */\n              swap2\n              swap1\n              pop\n              jump\t// out\n                /* \"#utility.yul\":1610:1756   */\n            tag_38:\n                /* \"#utility.yul\":1707:1713   */\n              dup3\n                /* \"#utility.yul\":1702:1705   */\n              dup2\n                /* \"#utility.yul\":1697:1700   */\n              dup4\n                /* \"#utility.yul\":1684:1714   */\n              calldatacopy\n                /* \"#utility.yul\":1748:1749   */\n              0x00\n                /* \"#utility.yul\":1739:1745   */\n              dup4\n                /* \"#utility.yul\":1734:1737   */\n              dup4\n                /* \"#utility.yul\":1730:1746   */\n              add\n                /* \"#utility.yul\":1723:1750   */\n              mstore\n                /* \"#utility.yul\":1610:1756   */\n              pop\n              pop\n              pop\n              jump\t// out\n                /* \"#utility.yul\":1762:2187   */\n            tag_39:\n                /* \"#utility.yul\":1840:1845   */\n              0x00\n                /* \"#utility.yul\":1865:1931   */\n              tag_95\n                /* \"#utility.yul\":1881:1930   */\n              tag_96\n                /* \"#utility.yul\":1923:1929   */\n              dup5\n                /* \"#utility.yul\":1881:1930   */\n              tag_37\n              jump\t// in\n            tag_96:\n                /* \"#utility.yul\":1865:1931   */\n              tag_36\n              jump\t// in\n            tag_95:\n                /* \"#utility.yul\":1856:1931   */\n              swap1\n              pop\n                /* \"#utility.yul\":1954:1960   */\n              dup3\n                /* \"#utility.yul\":1947:1952   */\n              dup2\n                /* \"#utility.yul\":1940:1961   */\n              mstore\n                /* \"#utility.yul\":1992:1996   */\n              0x20\n                /* \"#utility.yul\":1985:1990   */\n              dup2\n                /* \"#utility.yul\":1981:1997   */\n              add\n                /* \"#utility.yul\":2030:2033   */\n              dup5\n                /* \"#utility.yul\":2021:2027   */\n              dup5\n                /* \"#utility.yul\":2016:2019   */\n              dup5\n                /* \"#utility.yul\":2012:2028   */\n              add\n                /* \"#utility.yul\":2009:2034   */\n              gt\n                /* \"#utility.yul\":2006:2118   */\n              iszero\n              tag_97\n              jumpi\n                /* \"#utility.yul\":2037:2116   */\n              tag_98\n              tag_32\n              jump\t// in\n            tag_98:\n                /* \"#utility.yul\":2006:2118   */\n            tag_97:\n                /* \"#utility.yul\":2127:2181   */\n              tag_99\n                /* \"#utility.yul\":2174:2180   */\n              dup5\n                /* \"#utility.yul\":2169:2172   */\n              dup3\n                /* \"#utility.yul\":2164:2167   */\n              dup6\n                /* \"#utility.yul\":2127:2181   */\n              tag_38\n              jump\t// in\n            tag_99:\n                /* \"#utility.yul\":1846:2187   */\n              pop\n                /* \"#utility.yul\":1762:2187   */\n              swap4\n              swap3\n              pop\n              pop\n              pop\n              jump\t// out\n                /* \"#utility.yul\":2207:2547   */\n            tag_40:\n                /* \"#utility.yul\":2263:2268   */\n              0x00\n                /* \"#utility.yul\":2312:2315   */\n              dup3\n                /* \"#utility.yul\":2305:2309   */\n              0x1f\n                /* \"#utility.yul\":2297:2303   */\n              dup4\n                /* \"#utility.yul\":2293:2310   */\n              add\n                /* \"#utility.yul\":2289:2316   */\n              slt\n                /* \"#utility.yul\":2279:2401   */\n              tag_101\n              jumpi\n                /* \"#utility.yul\":2320:2399   */\n              tag_102\n              tag_31\n              jump\t// in\n            tag_102:\n                /* \"#utility.yul\":2279:2401   */\n            tag_101:\n                /* \"#utility.yul\":2437:2443   */\n              dup2\n                /* \"#utility.yul\":2424:2444   */\n              calldataload\n                /* \"#utility.yul\":2462:2541   */\n              tag_103\n                /* \"#utility.yul\":2537:2540   */\n              dup5\n                /* \"#utility.yul\":2529:2535   */\n              dup3\n                /* \"#utility.yul\":2522:2526   */\n              0x20\n                /* \"#utility.yul\":2514:2520   */\n              dup7\n                /* \"#utility.yul\":2510:2527   */\n              add\n                /* \"#utility.yul\":2462:2541   */\n              tag_39\n              jump\t// in\n            tag_103:\n                /* \"#utility.yul\":2453:2541   */\n              swap2\n              pop\n                /* \"#utility.yul\":2269:2547   */\n              pop\n                /* \"#utility.yul\":2207:2547   */\n              swap3\n              swap2\n              pop\n              pop\n              jump\t// out\n                /* \"#utility.yul\":2553:2643   */\n            tag_41:\n                /* \"#utility.yul\":2587:2594   */\n              0x00\n                /* \"#utility.yul\":2630:2635   */\n              dup2\n                /* \"#utility.yul\":2623:2636   */\n              iszero\n                /* \"#utility.yul\":2616:2637   */\n              iszero\n                /* \"#utility.yul\":2605:2637   */\n              swap1\n              pop\n                /* \"#utility.yul\":2553:2643   */\n              swap2\n              swap1\n              pop\n              jump\t// out\n                /* \"#utility.yul\":2649:2765   */\n            tag_42:\n                /* \"#utility.yul\":2719:2740   */\n              tag_106\n                /* \"#utility.yul\":2734:2739   */\n              dup2\n                /* \"#utility.yul\":2719:2740   */\n              tag_41\n              jump\t// in\n            tag_106:\n                /* \"#utility.yul\":2712:2717   */\n              dup2\n                /* \"#utility.yul\":2709:2741   */\n              eq\n                /* \"#utility.yul\":2699:2759   */\n              tag_107\n              jumpi\n                /* \"#utility.yul\":2755:2756   */\n              0x00\n                /* \"#utility.yul\":2752:2753   */\n              dup1\n                /* \"#utility.yul\":2745:2757   */\n              revert\n                /* \"#utility.yul\":2699:2759   */\n            tag_107:\n                /* \"#utility.yul\":2649:2765   */\n              pop\n              jump\t// out\n                /* \"#utility.yul\":2771:2904   */\n            tag_43:\n                /* \"#utility.yul\":2814:2819   */\n              0x00\n                /* \"#utility.yul\":2852:2858   */\n              dup2\n                /* \"#utility.yul\":2839:2859   */\n              calldataload\n                /* \"#utility.yul\":2830:2859   */\n              swap1\n              pop\n                /* \"#utility.yul\":2868:2898   */\n              tag_109\n                /* \"#utility.yul\":2892:2897   */\n              dup2\n                /* \"#utility.yul\":2868:2898   */\n              tag_42\n              jump\t// in\n            tag_109:\n                /* \"#utility.yul\":2771:2904   */\n              swap3\n              swap2\n              pop\n              pop\n              jump\t// out\n                /* \"#utility.yul\":2910:3883   */\n            tag_8:\n                /* \"#utility.yul\":3004:3010   */\n              0x00\n                /* \"#utility.yul\":3012:3018   */\n              dup1\n                /* \"#utility.yul\":3020:3026   */\n              0x00\n                /* \"#utility.yul\":3069:3071   */\n              0x60\n                /* \"#utility.yul\":3057:3066   */\n              dup5\n                /* \"#utility.yul\":3048:3055   */\n              dup7\n                /* \"#utility.yul\":3044:3067   */\n              sub\n                /* \"#utility.yul\":3040:3072   */\n              slt\n                /* \"#utility.yul\":3037:3156   */\n              iszero\n              tag_111\n              jumpi\n                /* \"#utility.yul\":3075:3154   */\n              tag_112\n              tag_29\n              jump\t// in\n            tag_112:\n                /* \"#utility.yul\":3037:3156   */\n            tag_111:\n                /* \"#utility.yul\":3223:3224   */\n              0x00\n                /* \"#utility.yul\":3212:3221   */\n              dup5\n                /* \"#utility.yul\":3208:3225   */\n              add\n                /* \"#utility.yul\":3195:3226   */\n              calldataload\n                /* \"#utility.yul\":3253:3271   */\n              0xffffffffffffffff\n                /* \"#utility.yul\":3245:3251   */\n              dup2\n                /* \"#utility.yul\":3242:3272   */\n              gt\n                /* \"#utility.yul\":3239:3356   */\n              iszero\n              tag_113\n              jumpi\n                /* \"#utility.yul\":3275:3354   */\n              tag_114\n              tag_30\n              jump\t// in\n            tag_114:\n                /* \"#utility.yul\":3239:3356   */\n            tag_113:\n                /* \"#utility.yul\":3380:3443   */\n              tag_115\n                /* \"#utility.yul\":3435:3442   */\n              dup7\n                /* \"#utility.yul\":3426:3432   */\n              dup3\n                /* \"#utility.yul\":3415:3424   */\n              dup8\n                /* \"#utility.yul\":3411:3433   */\n              add\n                /* \"#utility.yul\":3380:3443   */\n              tag_40\n              jump\t// in\n            tag_115:\n                /* \"#utility.yul\":3370:3443   */\n              swap4\n              pop\n                /* \"#utility.yul\":3166:3453   */\n              pop\n                /* \"#utility.yul\":3492:3494   */\n              0x20\n                /* \"#utility.yul\":3518:3568   */\n              tag_116\n                /* \"#utility.yul\":3560:3567   */\n              dup7\n                /* \"#utility.yul\":3551:3557   */\n              dup3\n                /* \"#utility.yul\":3540:3549   */\n              dup8\n                /* \"#utility.yul\":3536:3558   */\n              add\n                /* \"#utility.yul\":3518:3568   */\n              tag_43\n              jump\t// in\n            tag_116:\n                /* \"#utility.yul\":3508:3568   */\n              swap3\n              pop\n                /* \"#utility.yul\":3463:3578   */\n              pop\n                /* \"#utility.yul\":3645:3647   */\n              0x40\n                /* \"#utility.yul\":3634:3643   */\n              dup5\n                /* \"#utility.yul\":3630:3648   */\n              add\n                /* \"#utility.yul\":3617:3649   */\n              calldataload\n                /* \"#utility.yul\":3676:3694   */\n              0xffffffffffffffff\n                /* \"#utility.yul\":3668:3674   */\n              dup2\n                /* \"#utility.yul\":3665:3695   */\n              gt\n                /* \"#utility.yul\":3662:3779   */\n              iszero\n              tag_117\n              jumpi\n                /* \"#utility.yul\":3698:3777   */\n              tag_118\n              tag_30\n              jump\t// in\n            tag_118:\n                /* \"#utility.yul\":3662:3779   */\n            tag_117:\n                /* \"#utility.yul\":3803:3866   */\n              tag_119\n                /* \"#utility.yul\":3858:3865   */\n              dup7\n                /* \"#utility.yul\":3849:3855   */\n              dup3\n                /* \"#utility.yul\":3838:3847   */\n              dup8\n                /* \"#utility.yul\":3834:3856   */\n              add\n                /* \"#utility.yul\":3803:3866   */\n              tag_40\n              jump\t// in\n            tag_119:\n                /* \"#utility.yul\":3793:3866   */\n              swap2\n              pop\n                /* \"#utility.yul\":3588:3876   */\n              pop\n                /* \"#utility.yul\":2910:3883   */\n              swap3\n              pop\n              swap3\n              pop\n              swap3\n              jump\t// out\n                /* \"#utility.yul\":3889:4015   */\n            tag_44:\n                /* \"#utility.yul\":3926:3933   */\n              0x00\n                /* \"#utility.yul\":3966:4008   */\n              0xffffffffffffffffffffffffffffffffffffffff\n                /* \"#utility.yul\":3959:3964   */\n              dup3\n                /* \"#utility.yul\":3955:4009   */\n              and\n                /* \"#utility.yul\":3944:4009   */\n              swap1\n              pop\n                /* \"#utility.yul\":3889:4015   */\n              swap2\n              swap1\n              pop\n              jump\t// out\n                /* \"#utility.yul\":4021:4117   */\n            tag_45:\n                /* \"#utility.yul\":4058:4065   */\n              0x00\n                /* \"#utility.yul\":4087:4111   */\n              tag_122\n                /* \"#utility.yul\":4105:4110   */\n              dup3\n                /* \"#utility.yul\":4087:4111   */\n              tag_44\n              jump\t// in\n            tag_122:\n                /* \"#utility.yul\":4076:4111   */\n              swap1\n              pop\n                /* \"#utility.yul\":4021:4117   */\n              swap2\n              swap1\n              pop\n              jump\t// out\n                /* \"#utility.yul\":4123:4241   */\n            tag_46:\n                /* \"#utility.yul\":4210:4234   */\n              tag_124\n                /* \"#utility.yul\":4228:4233   */\n              dup2\n                /* \"#utility.yul\":4210:4234   */\n              tag_45\n              jump\t// in\n            tag_124:\n                /* \"#utility.yul\":4205:4208   */\n              dup3\n                /* \"#utility.yul\":4198:4235   */\n              mstore\n                /* \"#utility.yul\":4123:4241   */\n              pop\n              pop\n              jump\t// out\n                /* \"#utility.yul\":4247:4469   */\n            tag_13:\n                /* \"#utility.yul\":4340:4344   */\n              0x00\n                /* \"#utility.yul\":4378:4380   */\n              0x20\n                /* \"#utility.yul\":4367:4376   */\n              dup3\n                /* \"#utility.yul\":4363:4381   */\n              add\n                /* \"#utility.yul\":4355:4381   */\n              swap1\n              pop\n                /* \"#utility.yul\":4391:4462   */\n              tag_126\n                /* \"#utility.yul\":4459:4460   */\n              0x00\n                /* \"#utility.yul\":4448:4457   */\n              dup4\n                /* \"#utility.yul\":4444:4461   */\n              add\n                /* \"#utility.yul\":4435:4441   */\n              dup5\n                /* \"#utility.yul\":4391:4462   */\n              tag_46\n              jump\t// in\n            tag_126:\n                /* \"#utility.yul\":4247:4469   */\n              swap3\n              swap2\n              pop\n              pop\n              jump\t// out\n                /* \"#utility.yul\":4475:4644   */\n            tag_47:\n                /* \"#utility.yul\":4559:4570   */\n              0x00\n                /* \"#utility.yul\":4593:4599   */\n              dup3\n                /* \"#utility.yul\":4588:4591   */\n              dup3\n                /* \"#utility.yul\":4581:4600   */\n              mstore\n                /* \"#utility.yul\":4633:4637   */\n              0x20\n                /* \"#utility.yul\":4628:4631   */\n              dup3\n                /* \"#utility.yul\":4624:4638   */\n              add\n                /* \"#utility.yul\":4609:4638   */\n              swap1\n              pop\n                /* \"#utility.yul\":4475:4644   */\n              swap3\n              swap2\n              pop\n              pop\n              jump\t// out\n                /* \"#utility.yul\":4650:4826   */\n            tag_48:\n                /* \"#utility.yul\":4790:4818   */\n              0x596f7520646f6e27742068617665207065726d697373696f6e73000000000000\n                /* \"#utility.yul\":4786:4787   */\n              0x00\n                /* \"#utility.yul\":4778:4784   */\n              dup3\n                /* \"#utility.yul\":4774:4788   */\n              add\n                /* \"#utility.yul\":4767:4819   */\n              mstore\n                /* \"#utility.yul\":4650:4826   */\n              pop\n              jump\t// out\n                /* \"#utility.yul\":4832:5198   */\n            tag_49:\n                /* \"#utility.yul\":4974:4977   */\n              0x00\n                /* \"#utility.yul\":4995:5062   */\n              tag_130\n                /* \"#utility.yul\":5059:5061   */\n              0x1a\n                /* \"#utility.yul\":5054:5057   */\n              dup4\n                /* \"#utility.yul\":4995:5062   */\n              tag_47\n              jump\t// in\n            tag_130:\n                /* \"#utility.yul\":4988:5062   */\n              swap2\n              pop\n                /* \"#utility.yul\":5071:5164   */\n              tag_131\n                /* \"#utility.yul\":5160:5163   */\n              dup3\n                /* \"#utility.yul\":5071:5164   */\n              tag_48\n              jump\t// in\n            tag_131:\n                /* \"#utility.yul\":5189:5191   */\n              0x20\n                /* \"#utility.yul\":5184:5187   */\n              dup3\n                /* \"#utility.yul\":5180:5192   */\n              add\n                /* \"#utility.yul\":5173:5192   */\n              swap1\n              pop\n                /* \"#utility.yul\":4832:5198   */\n              swap2\n              swap1\n              pop\n              jump\t// out\n                /* \"#utility.yul\":5204:5623   */\n            tag_20:\n                /* \"#utility.yul\":5370:5374   */\n              0x00\n                /* \"#utility.yul\":5408:5410   */\n              0x20\n                /* \"#utility.yul\":5397:5406   */\n              dup3\n                /* \"#utility.yul\":5393:5411   */\n              add\n                /* \"#utility.yul\":5385:5411   */\n              swap1\n              pop\n                /* \"#utility.yul\":5457:5466   */\n              dup2\n                /* \"#utility.yul\":5451:5455   */\n              dup2\n                /* \"#utility.yul\":5447:5467   */\n              sub\n                /* \"#utility.yul\":5443:5444   */\n              0x00\n                /* \"#utility.yul\":5432:5441   */\n              dup4\n                /* \"#utility.yul\":5428:5445   */\n              add\n                /* \"#utility.yul\":5421:5468   */\n              mstore\n                /* \"#utility.yul\":5485:5616   */\n              tag_133\n                /* \"#utility.yul\":5611:5615   */\n              dup2\n                /* \"#utility.yul\":5485:5616   */\n              tag_49\n              jump\t// in\n            tag_133:\n                /* \"#utility.yul\":5477:5616   */\n              swap1\n              pop\n                /* \"#utility.yul\":5204:5623   */\n              swap2\n              swap1\n              pop\n              jump\t// out\n                /* \"#utility.yul\":5629:5728   */\n            tag_50:\n                /* \"#utility.yul\":5681:5687   */\n              0x00\n                /* \"#utility.yul\":5715:5720   */\n              dup2\n                /* \"#utility.yul\":5709:5721   */\n              mload\n                /* \"#utility.yul\":5699:5721   */\n              swap1\n              pop\n                /* \"#utility.yul\":5629:5728   */\n              swap2\n              swap1\n              pop\n              jump\t// out\n                /* \"#utility.yul\":5734:5882   */\n            tag_51:\n                /* \"#utility.yul\":5836:5847   */\n              0x00\n                /* \"#utility.yul\":5873:5876   */\n              dup2\n                /* \"#utility.yul\":5858:5876   */\n              swap1\n              pop\n                /* \"#utility.yul\":5734:5882   */\n              swap3\n              swap2\n              pop\n              pop\n              jump\t// out\n                /* \"#utility.yul\":5888:6134   */\n            tag_52:\n                /* \"#utility.yul\":5969:5970   */\n              0x00\n                /* \"#utility.yul\":5979:6092   */\n            tag_137:\n                /* \"#utility.yul\":5993:5999   */\n              dup4\n                /* \"#utility.yul\":5990:5991   */\n              dup2\n                /* \"#utility.yul\":5987:6000   */\n              lt\n                /* \"#utility.yul\":5979:6092   */\n              iszero\n              tag_139\n              jumpi\n                /* \"#utility.yul\":6078:6079   */\n              dup1\n                /* \"#utility.yul\":6073:6076   */\n              dup3\n                /* \"#utility.yul\":6069:6080   */\n              add\n                /* \"#utility.yul\":6063:6081   */\n              mload\n                /* \"#utility.yul\":6059:6060   */\n              dup2\n                /* \"#utility.yul\":6054:6057   */\n              dup5\n                /* \"#utility.yul\":6050:6061   */\n              add\n                /* \"#utility.yul\":6043:6082   */\n              mstore\n                /* \"#utility.yul\":6015:6017   */\n              0x20\n                /* \"#utility.yul\":6012:6013   */\n              dup2\n                /* \"#utility.yul\":6008:6018   */\n              add\n                /* \"#utility.yul\":6003:6018   */\n              swap1\n              pop\n                /* \"#utility.yul\":5979:6092   */\n              jump(tag_137)\n            tag_139:\n                /* \"#utility.yul\":6126:6127   */\n              0x00\n                /* \"#utility.yul\":6117:6123   */\n              dup5\n                /* \"#utility.yul\":6112:6115   */\n              dup5\n                /* \"#utility.yul\":6108:6124   */\n              add\n                /* \"#utility.yul\":6101:6128   */\n              mstore\n                /* \"#utility.yul\":5950:6134   */\n              pop\n                /* \"#utility.yul\":5888:6134   */\n              pop\n              pop\n              pop\n              jump\t// out\n                /* \"#utility.yul\":6140:6530   */\n            tag_53:\n                /* \"#utility.yul\":6246:6249   */\n              0x00\n                /* \"#utility.yul\":6274:6313   */\n              tag_141\n                /* \"#utility.yul\":6307:6312   */\n              dup3\n                /* \"#utility.yul\":6274:6313   */\n              tag_50\n              jump\t// in\n            tag_141:\n                /* \"#utility.yul\":6329:6418   */\n              tag_142\n                /* \"#utility.yul\":6411:6417   */\n              dup2\n                /* \"#utility.yul\":6406:6409   */\n              dup6\n                /* \"#utility.yul\":6329:6418   */\n              tag_51\n              jump\t// in\n            tag_142:\n                /* \"#utility.yul\":6322:6418   */\n              swap4\n              pop\n                /* \"#utility.yul\":6427:6492   */\n              tag_143\n                /* \"#utility.yul\":6485:6491   */\n              dup2\n                /* \"#utility.yul\":6480:6483   */\n              dup6\n                /* \"#utility.yul\":6473:6477   */\n              0x20\n                /* \"#utility.yul\":6466:6471   */\n              dup7\n                /* \"#utility.yul\":6462:6478   */\n              add\n                /* \"#utility.yul\":6427:6492   */\n              tag_52\n              jump\t// in\n            tag_143:\n                /* \"#utility.yul\":6517:6523   */\n              dup1\n                /* \"#utility.yul\":6512:6515   */\n              dup5\n                /* \"#utility.yul\":6508:6524   */\n              add\n                /* \"#utility.yul\":6501:6524   */\n              swap2\n              pop\n                /* \"#utility.yul\":6250:6530   */\n              pop\n                /* \"#utility.yul\":6140:6530   */\n              swap3\n              swap2\n              pop\n              pop\n              jump\t// out\n                /* \"#utility.yul\":6536:6811   */\n            tag_23:\n                /* \"#utility.yul\":6668:6671   */\n              0x00\n                /* \"#utility.yul\":6690:6785   */\n              tag_145\n                /* \"#utility.yul\":6781:6784   */\n              dup3\n                /* \"#utility.yul\":6772:6778   */\n              dup5\n                /* \"#utility.yul\":6690:6785   */\n              tag_53\n              jump\t// in\n            tag_145:\n                /* \"#utility.yul\":6683:6785   */\n              swap2\n              pop\n                /* \"#utility.yul\":6802:6805   */\n              dup2\n                /* \"#utility.yul\":6795:6805   */\n              swap1\n              pop\n                /* \"#utility.yul\":6536:6811   */\n              swap3\n              swap2\n              pop\n              pop\n              jump\t// out\n                /* \"#utility.yul\":6817:6997   */\n            tag_54:\n                /* \"#utility.yul\":6865:6942   */\n              0x4e487b7100000000000000000000000000000000000000000000000000000000\n                /* \"#utility.yul\":6862:6863   */\n              0x00\n                /* \"#utility.yul\":6855:6943   */\n              mstore\n                /* \"#utility.yul\":6962:6966   */\n              0x22\n                /* \"#utility.yul\":6959:6960   */\n              0x04\n                /* \"#utility.yul\":6952:6967   */\n              mstore\n                /* \"#utility.yul\":6986:6990   */\n              0x24\n                /* \"#utility.yul\":6983:6984   */\n              0x00\n                /* \"#utility.yul\":6976:6991   */\n              revert\n                /* \"#utility.yul\":7003:7323   */\n            tag_55:\n                /* \"#utility.yul\":7047:7053   */\n              0x00\n                /* \"#utility.yul\":7084:7085   */\n              0x02\n                /* \"#utility.yul\":7078:7082   */\n              dup3\n                /* \"#utility.yul\":7074:7086   */\n              div\n                /* \"#utility.yul\":7064:7086   */\n              swap1\n              pop\n                /* \"#utility.yul\":7131:7132   */\n              0x01\n                /* \"#utility.yul\":7125:7129   */\n              dup3\n                /* \"#utility.yul\":7121:7133   */\n              and\n                /* \"#utility.yul\":7152:7170   */\n              dup1\n                /* \"#utility.yul\":7142:7223   */\n              tag_148\n              jumpi\n                /* \"#utility.yul\":7208:7212   */\n              0x7f\n                /* \"#utility.yul\":7200:7206   */\n              dup3\n                /* \"#utility.yul\":7196:7213   */\n              and\n                /* \"#utility.yul\":7186:7213   */\n              swap2\n              pop\n                /* \"#utility.yul\":7142:7223   */\n            tag_148:\n                /* \"#utility.yul\":7270:7272   */\n              0x20\n                /* \"#utility.yul\":7262:7268   */\n              dup3\n                /* \"#utility.yul\":7259:7273   */\n              lt\n                /* \"#utility.yul\":7239:7257   */\n              dup2\n                /* \"#utility.yul\":7236:7274   */\n              sub\n                /* \"#utility.yul\":7233:7317   */\n              tag_149\n              jumpi\n                /* \"#utility.yul\":7289:7307   */\n              tag_150\n              tag_54\n              jump\t// in\n            tag_150:\n                /* \"#utility.yul\":7233:7317   */\n            tag_149:\n                /* \"#utility.yul\":7054:7323   */\n              pop\n                /* \"#utility.yul\":7003:7323   */\n              swap2\n              swap1\n              pop\n              jump\t// out\n                /* \"#utility.yul\":7329:7470   */\n            tag_56:\n                /* \"#utility.yul\":7378:7382   */\n              0x00\n                /* \"#utility.yul\":7401:7404   */\n              dup2\n                /* \"#utility.yul\":7393:7404   */\n              swap1\n              pop\n                /* \"#utility.yul\":7424:7427   */\n              dup2\n                /* \"#utility.yul\":7421:7422   */\n              0x00\n                /* \"#utility.yul\":7414:7428   */\n              mstore\n                /* \"#utility.yul\":7458:7462   */\n              0x20\n                /* \"#utility.yul\":7455:7456   */\n              0x00\n                /* \"#utility.yul\":7445:7463   */\n              keccak256\n                /* \"#utility.yul\":7437:7463   */\n              swap1\n              pop\n                /* \"#utility.yul\":7329:7470   */\n              swap2\n              swap1\n              pop\n              jump\t// out\n                /* \"#utility.yul\":7476:7569   */\n            tag_57:\n                /* \"#utility.yul\":7513:7519   */\n              0x00\n                /* \"#utility.yul\":7560:7562   */\n              0x20\n                /* \"#utility.yul\":7555:7557   */\n              0x1f\n                /* \"#utility.yul\":7548:7553   */\n              dup4\n                /* \"#utility.yul\":7544:7558   */\n              add\n                /* \"#utility.yul\":7540:7563   */\n              div\n                /* \"#utility.yul\":7530:7563   */\n              swap1\n              pop\n                /* \"#utility.yul\":7476:7569   */\n              swap2\n              swap1\n              pop\n              jump\t// out\n                /* \"#utility.yul\":7575:7682   */\n            tag_58:\n                /* \"#utility.yul\":7619:7627   */\n              0x00\n                /* \"#utility.yul\":7669:7674   */\n              dup3\n                /* \"#utility.yul\":7663:7667   */\n              dup3\n                /* \"#utility.yul\":7659:7675   */\n              shl\n                /* \"#utility.yul\":7638:7675   */\n              swap1\n              pop\n                /* \"#utility.yul\":7575:7682   */\n              swap3\n              swap2\n              pop\n              pop\n              jump\t// out\n                /* \"#utility.yul\":7688:8081   */\n            tag_59:\n                /* \"#utility.yul\":7757:7763   */\n              0x00\n                /* \"#utility.yul\":7807:7808   */\n              0x08\n                /* \"#utility.yul\":7795:7805   */\n              dup4\n                /* \"#utility.yul\":7791:7809   */\n              mul\n                /* \"#utility.yul\":7830:7927   */\n              tag_155\n                /* \"#utility.yul\":7860:7926   */\n              0xffffffffffffffffffffffffffffffffffffffffffffffffffffffffffffffff\n                /* \"#utility.yul\":7849:7858   */\n              dup3\n                /* \"#utility.yul\":7830:7927   */\n              tag_58\n              jump\t// in\n            tag_155:\n                /* \"#utility.yul\":7948:7987   */\n              tag_156\n                /* \"#utility.yul\":7978:7986   */\n              dup7\n                /* \"#utility.yul\":7967:7976   */\n              dup4\n                /* \"#utility.yul\":7948:7987   */\n              tag_58\n              jump\t// in\n            tag_156:\n                /* \"#utility.yul\":7936:7987   */\n              swap6\n              pop\n                /* \"#utility.yul\":8020:8024   */\n              dup1\n                /* \"#utility.yul\":8016:8025   */\n              not\n                /* \"#utility.yul\":8009:8014   */\n              dup5\n                /* \"#utility.yul\":8005:8026   */\n              and\n                /* \"#utility.yul\":7996:8026   */\n              swap4\n              pop\n                /* \"#utility.yul\":8069:8073   */\n              dup1\n                /* \"#utility.yul\":8059:8067   */\n              dup7\n                /* \"#utility.yul\":8055:8074   */\n              and\n                /* \"#utility.yul\":8048:8053   */\n              dup5\n                /* \"#utility.yul\":8045:8075   */\n              or\n                /* \"#utility.yul\":8035:8075   */\n              swap3\n              pop\n                /* \"#utility.yul\":7764:8081   */\n              pop\n              pop\n                /* \"#utility.yul\":7688:8081   */\n              swap4\n              swap3\n              pop\n              pop\n              pop\n              jump\t// out\n                /* \"#utility.yul\":8087:8164   */\n            tag_60:\n                /* \"#utility.yul\":8124:8131   */\n              0x00\n                /* \"#utility.yul\":8153:8158   */\n              dup2\n                /* \"#utility.yul\":8142:8158   */\n              swap1\n              pop\n                /* \"#utility.yul\":8087:8164   */\n              swap2\n              swap1\n              pop\n              jump\t// out\n                /* \"#utility.yul\":8170:8230   */\n            tag_61:\n                /* \"#utility.yul\":8198:8201   */\n              0x00\n                /* \"#utility.yul\":8219:8224   */\n              dup2\n                /* \"#utility.yul\":8212:8224   */\n              swap1\n              pop\n                /* \"#utility.yul\":8170:8230   */\n              swap2\n              swap1\n              pop\n              jump\t// out\n                /* \"#utility.yul\":8236:8378   */\n            tag_62:\n                /* \"#utility.yul\":8286:8295   */\n              0x00\n                /* \"#utility.yul\":8319:8372   */\n              tag_160\n                /* \"#utility.yul\":8337:8371   */\n              tag_161\n                /* \"#utility.yul\":8346:8370   */\n              tag_162\n                /* \"#utility.yul\":8364:8369   */\n              dup5\n                /* \"#utility.yul\":8346:8370   */\n              tag_60\n              jump\t// in\n            tag_162:\n                /* \"#utility.yul\":8337:8371   */\n              tag_61\n              jump\t// in\n            tag_161:\n                /* \"#utility.yul\":8319:8372   */\n              tag_60\n              jump\t// in\n            tag_160:\n                /* \"#utility.yul\":8306:8372   */\n              swap1\n              pop\n                /* \"#utility.yul\":8236:8378   */\n              swap2\n              swap1\n              pop\n              jump\t// out\n                /* \"#utility.yul\":8384:8459   */\n            tag_63:\n                /* \"#utility.yul\":8427:8430   */\n              0x00\n                /* \"#utility.yul\":8448:8453   */\n              dup2\n                /* \"#utility.yul\":8441:8453   */\n              swap1\n              pop\n                /* \"#utility.yul\":8384:8459   */\n              swap2\n              swap1\n              pop\n              jump\t// out\n                /* \"#utility.yul\":8465:8734   */\n            tag_64:\n                /* \"#utility.yul\":8575:8614   */\n              tag_165\n                /* \"#utility.yul\":8606:8613   */\n              dup4\n                /* \"#utility.yul\":8575:8614   */\n              tag_62\n              jump\t// in\n            tag_165:\n                /* \"#utility.yul\":8636:8727   */\n              tag_166\n                /* \"#utility.yul\":8685:8726   */\n              tag_167\n                /* \"#utility.yul\":8709:8725   */\n              dup3\n                /* \"#utility.yul\":8685:8726   */\n              tag_63\n              jump\t// in\n            tag_167:\n                /* \"#utility.yul\":8677:8683   */\n              dup5\n                /* \"#utility.yul\":8670:8674   */\n              dup5\n                /* \"#utility.yul\":8664:8675   */\n              sload\n                /* \"#utility.yul\":8636:8727   */\n              tag_59\n              jump\t// in\n            tag_166:\n                /* \"#utility.yul\":8630:8634   */\n              dup3\n                /* \"#utility.yul\":8623:8728   */\n              sstore\n                /* \"#utility.yul\":8541:8734   */\n              pop\n                /* \"#utility.yul\":8465:8734   */\n              pop\n              pop\n              pop\n              jump\t// out\n                /* \"#utility.yul\":8740:8813   */\n            tag_65:\n                /* \"#utility.yul\":8785:8788   */\n              0x00\n                /* \"#utility.yul\":8740:8813   */\n              swap1\n              jump\t// out\n                /* \"#utility.yul\":8819:9008   */\n            tag_66:\n                /* \"#utility.yul\":8896:8928   */\n              tag_170\n              tag_65\n              jump\t// in\n            tag_170:\n                /* \"#utility.yul\":8937:9002   */\n              tag_171\n                /* \"#utility.yul\":8995:9001   */\n              dup2\n                /* \"#utility.yul\":8987:8993   */\n              dup5\n                /* \"#utility.yul\":8981:8985   */\n              dup5\n                /* \"#utility.yul\":8937:9002   */\n              tag_64\n              jump\t// in\n            tag_171:\n                /* \"#utility.yul\":8872:9008   */\n              pop\n                /* \"#utility.yul\":8819:9008   */\n              pop\n              pop\n              jump\t// out\n                /* \"#utility.yul\":9014:9200   */\n            tag_67:\n                /* \"#utility.yul\":9074:9194   */\n            tag_173:\n                /* \"#utility.yul\":9091:9094   */\n              dup2\n                /* \"#utility.yul\":9084:9089   */\n              dup2\n                /* \"#utility.yul\":9081:9095   */\n              lt\n                /* \"#utility.yul\":9074:9194   */\n              iszero\n              tag_175\n              jumpi\n                /* \"#utility.yul\":9145:9184   */\n              tag_176\n                /* \"#utility.yul\":9182:9183   */\n              0x00\n                /* \"#utility.yul\":9175:9180   */\n              dup3\n                /* \"#utility.yul\":9145:9184   */\n              tag_66\n              jump\t// in\n            tag_176:\n                /* \"#utility.yul\":9118:9119   */\n              0x01\n                /* \"#utility.yul\":9111:9116   */\n              dup2\n                /* \"#utility.yul\":9107:9120   */\n              add\n                /* \"#utility.yul\":9098:9120   */\n              swap1\n              pop\n                /* \"#utility.yul\":9074:9194   */\n              jump(tag_173)\n            tag_175:\n                /* \"#utility.yul\":9014:9200   */\n              pop\n              pop\n              jump\t// out\n                /* \"#utility.yul\":9206:9749   */\n            tag_68:\n                /* \"#utility.yul\":9307:9309   */\n              0x1f\n                /* \"#utility.yul\":9302:9305   */\n              dup3\n                /* \"#utility.yul\":9299:9310   */\n              gt\n                /* \"#utility.yul\":9296:9742   */\n              iszero\n              tag_178\n              jumpi\n                /* \"#utility.yul\":9341:9379   */\n              tag_179\n                /* \"#utility.yul\":9373:9378   */\n              dup2\n                /* \"#utility.yul\":9341:9379   */\n              tag_56\n              jump\t// in\n            tag_179:\n                /* \"#utility.yul\":9425:9454   */\n              tag_180\n                /* \"#utility.yul\":9443:9453   */\n              dup5\n                /* \"#utility.yul\":9425:9454   */\n              tag_57\n              jump\t// in\n            tag_180:\n                /* \"#utility.yul\":9415:9423   */\n              dup2\n                /* \"#utility.yul\":9411:9455   */\n              add\n                /* \"#utility.yul\":9608:9610   */\n              0x20\n                /* \"#utility.yul\":9596:9606   */\n              dup6\n                /* \"#utility.yul\":9593:9611   */\n              lt\n                /* \"#utility.yul\":9590:9639   */\n              iszero\n              tag_181\n              jumpi\n                /* \"#utility.yul\":9629:9637   */\n              dup2\n                /* \"#utility.yul\":9614:9637   */\n              swap1\n              pop\n                /* \"#utility.yul\":9590:9639   */\n            tag_181:\n                /* \"#utility.yul\":9652:9732   */\n              tag_182\n                /* \"#utility.yul\":9708:9730   */\n              tag_183\n                /* \"#utility.yul\":9726:9729   */\n              dup6\n                /* \"#utility.yul\":9708:9730   */\n              tag_57\n              jump\t// in\n            tag_183:\n                /* \"#utility.yul\":9698:9706   */\n              dup4\n                /* \"#utility.yul\":9694:9731   */\n              add\n                /* \"#utility.yul\":9681:9692   */\n              dup3\n                /* \"#utility.yul\":9652:9732   */\n              tag_67\n              jump\t// in\n            tag_182:\n                /* \"#utility.yul\":9311:9742   */\n              pop\n              pop\n                /* \"#utility.yul\":9296:9742   */\n            tag_178:\n                /* \"#utility.yul\":9206:9749   */\n              pop\n              pop\n              pop\n              jump\t// out\n                /* \"#utility.yul\":9755:9872   */\n            tag_69:\n                /* \"#utility.yul\":9809:9817   */\n              0x00\n                /* \"#utility.yul\":9859:9864   */\n              dup3\n                /* \"#utility.yul\":9853:9857   */\n              dup3\n                /* \"#utility.yul\":9849:9865   */\n              shr\n                /* \"#utility.yul\":9828:9865   */\n              swap1\n              pop\n                /* \"#utility.yul\":9755:9872   */\n              swap3\n              swap2\n              pop\n              pop\n              jump\t// out\n                /* \"#utility.yul\":9878:10047   */\n            tag_70:\n                /* \"#utility.yul\":9922:9928   */\n              0x00\n                /* \"#utility.yul\":9955:10006   */\n              tag_186\n                /* \"#utility.yul\":10003:10004   */\n              0x00\n                /* \"#utility.yul\":9999:10005   */\n              not\n                /* \"#utility.yul\":9991:9996   */\n              dup5\n                /* \"#utility.yul\":9988:9989   */\n              0x08\n                /* \"#utility.yul\":9984:9997   */\n              mul\n                /* \"#utility.yul\":9955:10006   */\n              tag_69\n              jump\t// in\n            tag_186:\n                /* \"#utility.yul\":9951:10007   */\n              not\n                /* \"#utility.yul\":10036:10040   */\n              dup1\n                /* \"#utility.yul\":10030:10034   */\n              dup4\n                /* \"#utility.yul\":10026:10041   */\n              and\n                /* \"#utility.yul\":10016:10041   */\n              swap2\n              pop\n                /* \"#utility.yul\":9929:10047   */\n              pop\n                /* \"#utility.yul\":9878:10047   */\n              swap3\n              swap2\n              pop\n              pop\n              jump\t// out\n                /* \"#utility.yul\":10052:10347   */\n            tag_71:\n                /* \"#utility.yul\":10128:10132   */\n              0x00\n                /* \"#utility.yul\":10274:10303   */\n              tag_188\n                /* \"#utility.yul\":10299:10302   */\n              dup4\n                /* \"#utility.yul\":10293:10297   */\n              dup4\n                /* \"#utility.yul\":10274:10303   */\n              tag_70\n              jump\t// in\n            tag_188:\n                /* \"#utility.yul\":10266:10303   */\n              swap2\n              pop\n                /* \"#utility.yul\":10336:10339   */\n              dup3\n                /* \"#utility.yul\":10333:10334   */\n              0x02\n                /* \"#utility.yul\":10329:10340   */\n              mul\n                /* \"#utility.yul\":10323:10327   */\n              dup3\n                /* \"#utility.yul\":10320:10341   */\n              or\n                /* \"#utility.yul\":10312:10341   */\n              swap1\n              pop\n                /* \"#utility.yul\":10052:10347   */\n              swap3\n              swap2\n              pop\n              pop\n              jump\t// out\n                /* \"#utility.yul\":10352:11747   */\n            tag_25:\n                /* \"#utility.yul\":10469:10506   */\n              tag_190\n                /* \"#utility.yul\":10502:10505   */\n              dup3\n                /* \"#utility.yul\":10469:10506   */\n              tag_50\n              jump\t// in\n            tag_190:\n                /* \"#utility.yul\":10571:10589   */\n              0xffffffffffffffff\n                /* \"#utility.yul\":10563:10569   */\n              dup2\n                /* \"#utility.yul\":10560:10590   */\n              gt\n                /* \"#utility.yul\":10557:10613   */\n              iszero\n              tag_191\n              jumpi\n                /* \"#utility.yul\":10593:10611   */\n              tag_192\n              tag_34\n              jump\t// in\n            tag_192:\n                /* \"#utility.yul\":10557:10613   */\n            tag_191:\n                /* \"#utility.yul\":10637:10675   */\n              tag_193\n                /* \"#utility.yul\":10669:10673   */\n              dup3\n                /* \"#utility.yul\":10663:10674   */\n              sload\n                /* \"#utility.yul\":10637:10675   */\n              tag_55\n              jump\t// in\n            tag_193:\n                /* \"#utility.yul\":10722:10789   */\n              tag_194\n                /* \"#utility.yul\":10782:10788   */\n              dup3\n                /* \"#utility.yul\":10774:10780   */\n              dup3\n                /* \"#utility.yul\":10768:10772   */\n              dup6\n                /* \"#utility.yul\":10722:10789   */\n              tag_68\n              jump\t// in\n            tag_194:\n                /* \"#utility.yul\":10816:10817   */\n              0x00\n                /* \"#utility.yul\":10840:10844   */\n              0x20\n                /* \"#utility.yul\":10827:10844   */\n              swap1\n              pop\n                /* \"#utility.yul\":10872:10874   */\n              0x1f\n                /* \"#utility.yul\":10864:10870   */\n              dup4\n                /* \"#utility.yul\":10861:10875   */\n              gt\n                /* \"#utility.yul\":10889:10890   */\n              0x01\n                /* \"#utility.yul\":10884:11502   */\n              dup2\n              eq\n              tag_196\n              jumpi\n                /* \"#utility.yul\":11546:11547   */\n              0x00\n                /* \"#utility.yul\":11563:11569   */\n              dup5\n                /* \"#utility.yul\":11560:11637   */\n              iszero\n              tag_197\n              jumpi\n                /* \"#utility.yul\":11612:11621   */\n              dup3\n                /* \"#utility.yul\":11607:11610   */\n              dup8\n                /* \"#utility.yul\":11603:11622   */\n              add\n                /* \"#utility.yul\":11597:11623   */\n              mload\n                /* \"#utility.yul\":11588:11623   */\n              swap1\n              pop\n                /* \"#utility.yul\":11560:11637   */\n            tag_197:\n                /* \"#utility.yul\":11663:11730   */\n              tag_198\n                /* \"#utility.yul\":11723:11729   */\n              dup6\n                /* \"#utility.yul\":11716:11721   */\n              dup3\n                /* \"#utility.yul\":11663:11730   */\n              tag_71\n              jump\t// in\n            tag_198:\n                /* \"#utility.yul\":11657:11661   */\n              dup7\n                /* \"#utility.yul\":11650:11731   */\n              sstore\n                /* \"#utility.yul\":11519:11741   */\n              pop\n                /* \"#utility.yul\":10854:11741   */\n              jump(tag_195)\n                /* \"#utility.yul\":10884:11502   */\n            tag_196:\n                /* \"#utility.yul\":10936:10940   */\n              0x1f\n                /* \"#utility.yul\":10932:10941   */\n              not\n                /* \"#utility.yul\":10924:10930   */\n              dup5\n                /* \"#utility.yul\":10920:10942   */\n              and\n                /* \"#utility.yul\":10970:11007   */\n              tag_199\n                /* \"#utility.yul\":11002:11006   */\n              dup7\n                /* \"#utility.yul\":10970:11007   */\n              tag_56\n              jump\t// in\n            tag_199:\n                /* \"#utility.yul\":11029:11030   */\n              0x00\n                /* \"#utility.yul\":11043:11251   */\n            tag_200:\n                /* \"#utility.yul\":11057:11064   */\n              dup3\n                /* \"#utility.yul\":11054:11055   */\n              dup2\n                /* \"#utility.yul\":11051:11065   */\n              lt\n                /* \"#utility.yul\":11043:11251   */\n              iszero\n              tag_202\n              jumpi\n                /* \"#utility.yul\":11136:11145   */\n              dup5\n                /* \"#utility.yul\":11131:11134   */\n              dup10\n                /* \"#utility.yul\":11127:11146   */\n              add\n                /* \"#utility.yul\":11121:11147   */\n              mload\n                /* \"#utility.yul\":11113:11119   */\n              dup3\n                /* \"#utility.yul\":11106:11148   */\n              sstore\n                /* \"#utility.yul\":11187:11188   */\n              0x01\n                /* \"#utility.yul\":11179:11185   */\n              dup3\n                /* \"#utility.yul\":11175:11189   */\n              add\n                /* \"#utility.yul\":11165:11189   */\n              swap2\n              pop\n                /* \"#utility.yul\":11234:11236   */\n              0x20\n                /* \"#utility.yul\":11223:11232   */\n              dup6\n                /* \"#utility.yul\":11219:11237   */\n              add\n                /* \"#utility.yul\":11206:11237   */\n              swap5\n              pop\n                /* \"#utility.yul\":11080:11084   */\n              0x20\n                /* \"#utility.yul\":11077:11078   */\n              dup2\n                /* \"#utility.yul\":11073:11085   */\n              add\n                /* \"#utility.yul\":11068:11085   */\n              swap1\n              pop\n                /* \"#utility.yul\":11043:11251   */\n              jump(tag_200)\n            tag_202:\n                /* \"#utility.yul\":11279:11285   */\n              dup7\n                /* \"#utility.yul\":11270:11277   */\n              dup4\n                /* \"#utility.yul\":11267:11286   */\n              lt\n                /* \"#utility.yul\":11264:11443   */\n              iszero\n              tag_203\n              jumpi\n                /* \"#utility.yul\":11337:11346   */\n              dup5\n                /* \"#utility.yul\":11332:11335   */\n              dup10\n                /* \"#utility.yul\":11328:11347   */\n              add\n                /* \"#utility.yul\":11322:11348   */\n              mload\n                /* \"#utility.yul\":11380:11428   */\n              tag_204\n                /* \"#utility.yul\":11422:11426   */\n              0x1f\n                /* \"#utility.yul\":11414:11420   */\n              dup10\n                /* \"#utility.yul\":11410:11427   */\n              and\n                /* \"#utility.yul\":11399:11408   */\n              dup3\n                /* \"#utility.yul\":11380:11428   */\n              tag_70\n              jump\t// in\n            tag_204:\n                /* \"#utility.yul\":11372:11378   */\n              dup4\n                /* \"#utility.yul\":11365:11429   */\n              sstore\n                /* \"#utility.yul\":11287:11443   */\n              pop\n                /* \"#utility.yul\":11264:11443   */\n            tag_203:\n                /* \"#utility.yul\":11489:11490   */\n              0x01\n                /* \"#utility.yul\":11485:11486   */\n              0x02\n                /* \"#utility.yul\":11477:11483   */\n              dup9\n                /* \"#utility.yul\":11473:11487   */\n              mul\n                /* \"#utility.yul\":11469:11491   */\n              add\n                /* \"#utility.yul\":11463:11467   */\n              dup9\n                /* \"#utility.yul\":11456:11492   */\n              sstore\n                /* \"#utility.yul\":10891:11502   */\n              pop\n              pop\n              pop\n                /* \"#utility.yul\":10854:11741   */\n            tag_195:\n              pop\n                /* \"#utility.yul\":10444:11747   */\n              pop\n              pop\n              pop\n                /* \"#utility.yul\":10352:11747   */\n              pop\n              pop\n              jump\t// out\n                /* \"#utility.yul\":11753:11862   */\n            tag_72:\n                /* \"#utility.yul\":11834:11855   */\n              tag_206\n                /* \"#utility.yul\":11849:11854   */\n              dup2\n                /* \"#utility.yul\":11834:11855   */\n              tag_41\n              jump\t// in\n            tag_206:\n                /* \"#utility.yul\":11829:11832   */\n              dup3\n                /* \"#utility.yul\":11822:11856   */\n              mstore\n                /* \"#utility.yul\":11753:11862   */\n              pop\n              pop\n              jump\t// out\n                /* \"#utility.yul\":11868:12245   */\n            tag_73:\n                /* \"#utility.yul\":11956:11959   */\n              0x00\n                /* \"#utility.yul\":11984:12023   */\n              tag_208\n                /* \"#utility.yul\":12017:12022   */\n              dup3\n                /* \"#utility.yul\":11984:12023   */\n              tag_50\n              jump\t// in\n            tag_208:\n                /* \"#utility.yul\":12039:12110   */\n              tag_209\n                /* \"#utility.yul\":12103:12109   */\n              dup2\n                /* \"#utility.yul\":12098:12101   */\n              dup6\n                /* \"#utility.yul\":12039:12110   */\n              tag_47\n              jump\t// in\n            tag_209:\n                /* \"#utility.yul\":12032:12110   */\n              swap4\n              pop\n                /* \"#utility.yul\":12119:12184   */\n              tag_210\n                /* \"#utility.yul\":12177:12183   */\n              dup2\n                /* \"#utility.yul\":12172:12175   */\n              dup6\n                /* \"#utility.yul\":12165:12169   */\n              0x20\n                /* \"#utility.yul\":12158:12163   */\n              dup7\n                /* \"#utility.yul\":12154:12170   */\n              add\n                /* \"#utility.yul\":12119:12184   */\n              tag_52\n              jump\t// in\n            tag_210:\n                /* \"#utility.yul\":12209:12238   */\n              tag_211\n                /* \"#utility.yul\":12231:12237   */\n              dup2\n                /* \"#utility.yul\":12209:12238   */\n              tag_33\n              jump\t// in\n            tag_211:\n                /* \"#utility.yul\":12204:12207   */\n              dup5\n                /* \"#utility.yul\":12200:12239   */\n              add\n                /* \"#utility.yul\":12193:12239   */\n              swap2\n              pop\n                /* \"#utility.yul\":11960:12245   */\n              pop\n                /* \"#utility.yul\":11868:12245   */\n              swap3\n              swap2\n              pop\n              pop\n              jump\t// out\n                /* \"#utility.yul\":12251:12662   */\n            tag_27:\n                /* \"#utility.yul\":12386:12390   */\n              0x00\n                /* \"#utility.yul\":12424:12426   */\n              0x40\n                /* \"#utility.yul\":12413:12422   */\n              dup3\n                /* \"#utility.yul\":12409:12427   */\n              add\n                /* \"#utility.yul\":12401:12427   */\n              swap1\n              pop\n                /* \"#utility.yul\":12437:12502   */\n              tag_213\n                /* \"#utility.yul\":12499:12500   */\n              0x00\n                /* \"#utility.yul\":12488:12497   */\n              dup4\n                /* \"#utility.yul\":12484:12501   */\n              add\n                /* \"#utility.yul\":12475:12481   */\n              dup6\n                /* \"#utility.yul\":12437:12502   */\n              tag_72\n              jump\t// in\n            tag_213:\n                /* \"#utility.yul\":12549:12558   */\n              dup2\n                /* \"#utility.yul\":12543:12547   */\n              dup2\n                /* \"#utility.yul\":12539:12559   */\n              sub\n                /* \"#utility.yul\":12534:12536   */\n              0x20\n                /* \"#utility.yul\":12523:12532   */\n              dup4\n                /* \"#utility.yul\":12519:12537   */\n              add\n                /* \"#utility.yul\":12512:12560   */\n              mstore\n                /* \"#utility.yul\":12577:12655   */\n              tag_214\n                /* \"#utility.yul\":12650:12654   */\n              dup2\n                /* \"#utility.yul\":12641:12647   */\n              dup5\n                /* \"#utility.yul\":12577:12655   */\n              tag_73\n              jump\t// in\n            tag_214:\n                /* \"#utility.yul\":12569:12655   */\n              swap1\n              pop\n                /* \"#utility.yul\":12251:12662   */\n              swap4\n              swap3\n              pop\n              pop\n              pop\n              jump\t// out\n\n            auxdata: 0xa264697066735822122059fa1de268a3ef9e93b01ec2f8507eb6d3306f08bd18acaf6a3b837537d605d464736f6c63430008160033\n        }\n    }\n\n    auxdata: 0xa26469706673582212206838fa7f94c4f4c038973e12f3f54636b1e0522febc354cd6c535386039115cb64736f6c63430008160033\n}\n",
				"bytecode": {
					"linkReferences": {},
					"object": "608060405234801561000f575f80fd5b50335f806101000a81548173ffffffffffffffffffffffffffffffffffffffff021916908373ffffffffffffffffffffffffffffffffffffffff1602179055506113c78061005c5f395ff3fe608060405234801561000f575f80fd5b5060043610610086575f3560e01c80636fdc01b6116100595780636fdc01b61461012457806396964d9a1461012e578063aa80de8b1461015e578063eb2f48171461017c57610086565b8063036885e11461008a5780633785908a146100a85780634e7d4b35146100d857806366a3844514610108575b5f80fd5b610092610186565b60405161009f9190610762565b60405180910390f35b6100c260048036038101906100bd91906107b0565b610269565b6040516100cf91906107f5565b60405180910390f35b6100f260048036038101906100ed91906107b0565b610286565b6040516100ff919061081d565b60405180910390f35b610122600480360381019061011d91906107b0565b6102b6565b005b61012c61039c565b005b61014860048036038101906101439190610869565b610577565b604051610155919061081d565b60405180910390f35b6101666105b2565b604051610173919061081d565b60405180910390f35b6101846105d5565b005b6060335f8054906101000a900473ffffffffffffffffffffffffffffffffffffffff1673ffffffffffffffffffffffffffffffffffffffff168173ffffffffffffffffffffffffffffffffffffffff16146101df575f80fd5b600480548060200260200160405190810160405280929190818152602001828054801561025e57602002820191905f5260205f20905b815f9054906101000a900473ffffffffffffffffffffffffffffffffffffffff1673ffffffffffffffffffffffffffffffffffffffff1681526020019060010190808311610215575b505050505091505090565b6001602052805f5260405f205f915054906101000a900460ff1681565b6002602052805f5260405f205f915054906101000a900473ffffffffffffffffffffffffffffffffffffffff1681565b335f8054906101000a900473ffffffffffffffffffffffffffffffffffffffff1673ffffffffffffffffffffffffffffffffffffffff168173ffffffffffffffffffffffffffffffffffffffff161461030d575f80fd5b6001805f8473ffffffffffffffffffffffffffffffffffffffff1673ffffffffffffffffffffffffffffffffffffffff1681526020019081526020015f205f6101000a81548160ff0219169083151502179055507f222f67762c6a537b69ebb90489194eae646a8d956513f9996242e80d646b146582604051610390919061081d565b60405180910390a15050565b6001151560015f3373ffffffffffffffffffffffffffffffffffffffff1673ffffffffffffffffffffffffffffffffffffffff1681526020019081526020015f205f9054906101000a900460ff1615151461042c576040517f08c379a0000000000000000000000000000000000000000000000000000000008152600401610423906108ee565b60405180910390fd5b5f3360405161043a9061066e565b610444919061081d565b604051809103905ff08015801561045d573d5f803e3d5ffd5b509050600381908060018154018082558091505060019003905f5260205f20015f9091909190916101000a81548173ffffffffffffffffffffffffffffffffffffffff021916908373ffffffffffffffffffffffffffffffffffffffff1602179055508060025f3373ffffffffffffffffffffffffffffffffffffffff1673ffffffffffffffffffffffffffffffffffffffff1681526020019081526020015f205f6101000a81548173ffffffffffffffffffffffffffffffffffffffff021916908373ffffffffffffffffffffffffffffffffffffffff1602179055507f17182ea1a6748f7923ea0bfb4bf8bc76cc894e662541ad1ea15797322d541db8813360405161056c92919061090c565b60405180910390a150565b60038181548110610586575f80fd5b905f5260205f20015f915054906101000a900473ffffffffffffffffffffffffffffffffffffffff1681565b5f8054906101000a900473ffffffffffffffffffffffffffffffffffffffff1681565b600433908060018154018082558091505060019003905f5260205f20015f9091909190916101000a81548173ffffffffffffffffffffffffffffffffffffffff021916908373ffffffffffffffffffffffffffffffffffffffff1602179055507fe39c2af3376743a85a8d833c7be5dbd94b1791e3e655c91b5e972362e4c5d90a33604051610664919061081d565b60405180910390a1565b610a5e8061093483390190565b5f81519050919050565b5f82825260208201905092915050565b5f819050602082019050919050565b5f73ffffffffffffffffffffffffffffffffffffffff82169050919050565b5f6106cd826106a4565b9050919050565b6106dd816106c3565b82525050565b5f6106ee83836106d4565b60208301905092915050565b5f602082019050919050565b5f6107108261067b565b61071a8185610685565b935061072583610695565b805f5b8381101561075557815161073c88826106e3565b9750610747836106fa565b925050600181019050610728565b5085935050505092915050565b5f6020820190508181035f83015261077a8184610706565b905092915050565b5f80fd5b61078f816106c3565b8114610799575f80fd5b50565b5f813590506107aa81610786565b92915050565b5f602082840312156107c5576107c4610782565b5b5f6107d28482850161079c565b91505092915050565b5f8115159050919050565b6107ef816107db565b82525050565b5f6020820190506108085f8301846107e6565b92915050565b610817816106c3565b82525050565b5f6020820190506108305f83018461080e565b92915050565b5f819050919050565b61084881610836565b8114610852575f80fd5b50565b5f813590506108638161083f565b92915050565b5f6020828403121561087e5761087d610782565b5b5f61088b84828501610855565b91505092915050565b5f82825260208201905092915050565b7f596f7520646f6e27742068617665207065726d697373696f6e730000000000005f82015250565b5f6108d8601a83610894565b91506108e3826108a4565b602082019050919050565b5f6020820190508181035f830152610905816108cc565b9050919050565b5f60408201905061091f5f83018561080e565b61092c602083018461080e565b939250505056fe608060405234801561000f575f80fd5b50604051610a5e380380610a5e83398181016040528101906100319190610114565b805f806101000a81548173ffffffffffffffffffffffffffffffffffffffff021916908373ffffffffffffffffffffffffffffffffffffffff1602179055503060015f6101000a81548173ffffffffffffffffffffffffffffffffffffffff021916908373ffffffffffffffffffffffffffffffffffffffff1602179055505061013f565b5f80fd5b5f73ffffffffffffffffffffffffffffffffffffffff82169050919050565b5f6100e3826100ba565b9050919050565b6100f3816100d9565b81146100fd575f80fd5b50565b5f8151905061010e816100ea565b92915050565b5f60208284031215610129576101286100b6565b5b5f61013684828501610100565b91505092915050565b6109128061014c5f395ff3fe608060405234801561000f575f80fd5b506004361061003f575f3560e01c80630cd5662c146100435780638f13c4041461005f578063f6b4dfb41461007d575b5f80fd5b61005d600480360381019061005891906103bb565b61009b565b005b6100676101f1565b6040516100749190610482565b60405180910390f35b610085610214565b6040516100929190610482565b60405180910390f35b335f8054906101000a900473ffffffffffffffffffffffffffffffffffffffff1673ffffffffffffffffffffffffffffffffffffffff168173ffffffffffffffffffffffffffffffffffffffff1614610129576040517f08c379a0000000000000000000000000000000000000000000000000000000008152600401610120906104f5565b60405180910390fd5b5f8460405160200161013b919061057f565b604051602081830303815290604052805190602001209050604051806040016040528085151581526020018481525060025f8381526020019081526020015f205f820151815f015f6101000a81548160ff02191690831515021790555060208201518160010190816101ad9190610798565b509050507f1ca780be614113b3e639b9c4bba4f21cb45139ef8d48f54ca3f8d9852db387b084846040516101e29291906108ae565b60405180910390a15050505050565b5f8054906101000a900473ffffffffffffffffffffffffffffffffffffffff1681565b60015f9054906101000a900473ffffffffffffffffffffffffffffffffffffffff1681565b5f604051905090565b5f80fd5b5f80fd5b5f80fd5b5f80fd5b5f601f19601f8301169050919050565b7f4e487b71000000000000000000000000000000000000000000000000000000005f52604160045260245ffd5b61029882610252565b810181811067ffffffffffffffff821117156102b7576102b6610262565b5b80604052505050565b5f6102c9610239565b90506102d5828261028f565b919050565b5f67ffffffffffffffff8211156102f4576102f3610262565b5b6102fd82610252565b9050602081019050919050565b828183375f83830152505050565b5f61032a610325846102da565b6102c0565b9050828152602081018484840111156103465761034561024e565b5b61035184828561030a565b509392505050565b5f82601f83011261036d5761036c61024a565b5b813561037d848260208601610318565b91505092915050565b5f8115159050919050565b61039a81610386565b81146103a4575f80fd5b50565b5f813590506103b581610391565b92915050565b5f805f606084860312156103d2576103d1610242565b5b5f84013567ffffffffffffffff8111156103ef576103ee610246565b5b6103fb86828701610359565b935050602061040c868287016103a7565b925050604084013567ffffffffffffffff81111561042d5761042c610246565b5b61043986828701610359565b9150509250925092565b5f73ffffffffffffffffffffffffffffffffffffffff82169050919050565b5f61046c82610443565b9050919050565b61047c81610462565b82525050565b5f6020820190506104955f830184610473565b92915050565b5f82825260208201905092915050565b7f596f7520646f6e27742068617665207065726d697373696f6e730000000000005f82015250565b5f6104df601a8361049b565b91506104ea826104ab565b602082019050919050565b5f6020820190508181035f83015261050c816104d3565b9050919050565b5f81519050919050565b5f81905092915050565b5f5b83811015610544578082015181840152602081019050610529565b5f8484015250505050565b5f61055982610513565b610563818561051d565b9350610573818560208601610527565b80840191505092915050565b5f61058a828461054f565b915081905092915050565b7f4e487b71000000000000000000000000000000000000000000000000000000005f52602260045260245ffd5b5f60028204905060018216806105d957607f821691505b6020821081036105ec576105eb610595565b5b50919050565b5f819050815f5260205f209050919050565b5f6020601f8301049050919050565b5f82821b905092915050565b5f6008830261064e7fffffffffffffffffffffffffffffffffffffffffffffffffffffffffffffffff82610613565b6106588683610613565b95508019841693508086168417925050509392505050565b5f819050919050565b5f819050919050565b5f61069c61069761069284610670565b610679565b610670565b9050919050565b5f819050919050565b6106b583610682565b6106c96106c1826106a3565b84845461061f565b825550505050565b5f90565b6106dd6106d1565b6106e88184846106ac565b505050565b5b8181101561070b576107005f826106d5565b6001810190506106ee565b5050565b601f82111561075057610721816105f2565b61072a84610604565b81016020851015610739578190505b61074d61074585610604565b8301826106ed565b50505b505050565b5f82821c905092915050565b5f6107705f1984600802610755565b1980831691505092915050565b5f6107888383610761565b9150826002028217905092915050565b6107a182610513565b67ffffffffffffffff8111156107ba576107b9610262565b5b6107c482546105c2565b6107cf82828561070f565b5f60209050601f831160018114610800575f84156107ee578287015190505b6107f8858261077d565b86555061085f565b601f19841661080e866105f2565b5f5b8281101561083557848901518255600182019150602085019450602081019050610810565b86831015610852578489015161084e601f891682610761565b8355505b6001600288020188555050505b505050505050565b61087081610386565b82525050565b5f61088082610513565b61088a818561049b565b935061089a818560208601610527565b6108a381610252565b840191505092915050565b5f6040820190506108c15f830185610867565b81810360208301526108d38184610876565b9050939250505056fea264697066735822122059fa1de268a3ef9e93b01ec2f8507eb6d3306f08bd18acaf6a3b837537d605d464736f6c63430008160033a26469706673582212206838fa7f94c4f4c038973e12f3f54636b1e0522febc354cd6c535386039115cb64736f6c63430008160033",
					"opcodes": "PUSH1 0x80 PUSH1 0x40 MSTORE CALLVALUE DUP1 ISZERO PUSH2 0xF JUMPI PUSH0 DUP1 REVERT JUMPDEST POP CALLER PUSH0 DUP1 PUSH2 0x100 EXP DUP2 SLOAD DUP2 PUSH20 0xFFFFFFFFFFFFFFFFFFFFFFFFFFFFFFFFFFFFFFFF MUL NOT AND SWAP1 DUP4 PUSH20 0xFFFFFFFFFFFFFFFFFFFFFFFFFFFFFFFFFFFFFFFF AND MUL OR SWAP1 SSTORE POP PUSH2 0x13C7 DUP1 PUSH2 0x5C PUSH0 CODECOPY PUSH0 RETURN INVALID PUSH1 0x80 PUSH1 0x40 MSTORE CALLVALUE DUP1 ISZERO PUSH2 0xF JUMPI PUSH0 DUP1 REVERT JUMPDEST POP PUSH1 0x4 CALLDATASIZE LT PUSH2 0x86 JUMPI PUSH0 CALLDATALOAD PUSH1 0xE0 SHR DUP1 PUSH4 0x6FDC01B6 GT PUSH2 0x59 JUMPI DUP1 PUSH4 0x6FDC01B6 EQ PUSH2 0x124 JUMPI DUP1 PUSH4 0x96964D9A EQ PUSH2 0x12E JUMPI DUP1 PUSH4 0xAA80DE8B EQ PUSH2 0x15E JUMPI DUP1 PUSH4 0xEB2F4817 EQ PUSH2 0x17C JUMPI PUSH2 0x86 JUMP JUMPDEST DUP1 PUSH4 0x36885E1 EQ PUSH2 0x8A JUMPI DUP1 PUSH4 0x3785908A EQ PUSH2 0xA8 JUMPI DUP1 PUSH4 0x4E7D4B35 EQ PUSH2 0xD8 JUMPI DUP1 PUSH4 0x66A38445 EQ PUSH2 0x108 JUMPI JUMPDEST PUSH0 DUP1 REVERT JUMPDEST PUSH2 0x92 PUSH2 0x186 JUMP JUMPDEST PUSH1 0x40 MLOAD PUSH2 0x9F SWAP2 SWAP1 PUSH2 0x762 JUMP JUMPDEST PUSH1 0x40 MLOAD DUP1 SWAP2 SUB SWAP1 RETURN JUMPDEST PUSH2 0xC2 PUSH1 0x4 DUP1 CALLDATASIZE SUB DUP2 ADD SWAP1 PUSH2 0xBD SWAP2 SWAP1 PUSH2 0x7B0 JUMP JUMPDEST PUSH2 0x269 JUMP JUMPDEST PUSH1 0x40 MLOAD PUSH2 0xCF SWAP2 SWAP1 PUSH2 0x7F5 JUMP JUMPDEST PUSH1 0x40 MLOAD DUP1 SWAP2 SUB SWAP1 RETURN JUMPDEST PUSH2 0xF2 PUSH1 0x4 DUP1 CALLDATASIZE SUB DUP2 ADD SWAP1 PUSH2 0xED SWAP2 SWAP1 PUSH2 0x7B0 JUMP JUMPDEST PUSH2 0x286 JUMP JUMPDEST PUSH1 0x40 MLOAD PUSH2 0xFF SWAP2 SWAP1 PUSH2 0x81D JUMP JUMPDEST PUSH1 0x40 MLOAD DUP1 SWAP2 SUB SWAP1 RETURN JUMPDEST PUSH2 0x122 PUSH1 0x4 DUP1 CALLDATASIZE SUB DUP2 ADD SWAP1 PUSH2 0x11D SWAP2 SWAP1 PUSH2 0x7B0 JUMP JUMPDEST PUSH2 0x2B6 JUMP JUMPDEST STOP JUMPDEST PUSH2 0x12C PUSH2 0x39C JUMP JUMPDEST STOP JUMPDEST PUSH2 0x148 PUSH1 0x4 DUP1 CALLDATASIZE SUB DUP2 ADD SWAP1 PUSH2 0x143 SWAP2 SWAP1 PUSH2 0x869 JUMP JUMPDEST PUSH2 0x577 JUMP JUMPDEST PUSH1 0x40 MLOAD PUSH2 0x155 SWAP2 SWAP1 PUSH2 0x81D JUMP JUMPDEST PUSH1 0x40 MLOAD DUP1 SWAP2 SUB SWAP1 RETURN JUMPDEST PUSH2 0x166 PUSH2 0x5B2 JUMP JUMPDEST PUSH1 0x40 MLOAD PUSH2 0x173 SWAP2 SWAP1 PUSH2 0x81D JUMP JUMPDEST PUSH1 0x40 MLOAD DUP1 SWAP2 SUB SWAP1 RETURN JUMPDEST PUSH2 0x184 PUSH2 0x5D5 JUMP JUMPDEST STOP JUMPDEST PUSH1 0x60 CALLER PUSH0 DUP1 SLOAD SWAP1 PUSH2 0x100 EXP SWAP1 DIV PUSH20 0xFFFFFFFFFFFFFFFFFFFFFFFFFFFFFFFFFFFFFFFF AND PUSH20 0xFFFFFFFFFFFFFFFFFFFFFFFFFFFFFFFFFFFFFFFF AND DUP2 PUSH20 0xFFFFFFFFFFFFFFFFFFFFFFFFFFFFFFFFFFFFFFFF AND EQ PUSH2 0x1DF JUMPI PUSH0 DUP1 REVERT JUMPDEST PUSH1 0x4 DUP1 SLOAD DUP1 PUSH1 0x20 MUL PUSH1 0x20 ADD PUSH1 0x40 MLOAD SWAP1 DUP2 ADD PUSH1 0x40 MSTORE DUP1 SWAP3 SWAP2 SWAP1 DUP2 DUP2 MSTORE PUSH1 0x20 ADD DUP3 DUP1 SLOAD DUP1 ISZERO PUSH2 0x25E JUMPI PUSH1 0x20 MUL DUP3 ADD SWAP2 SWAP1 PUSH0 MSTORE PUSH1 0x20 PUSH0 KECCAK256 SWAP1 JUMPDEST DUP2 PUSH0 SWAP1 SLOAD SWAP1 PUSH2 0x100 EXP SWAP1 DIV PUSH20 0xFFFFFFFFFFFFFFFFFFFFFFFFFFFFFFFFFFFFFFFF AND PUSH20 0xFFFFFFFFFFFFFFFFFFFFFFFFFFFFFFFFFFFFFFFF AND DUP2 MSTORE PUSH1 0x20 ADD SWAP1 PUSH1 0x1 ADD SWAP1 DUP1 DUP4 GT PUSH2 0x215 JUMPI JUMPDEST POP POP POP POP POP SWAP2 POP POP SWAP1 JUMP JUMPDEST PUSH1 0x1 PUSH1 0x20 MSTORE DUP1 PUSH0 MSTORE PUSH1 0x40 PUSH0 KECCAK256 PUSH0 SWAP2 POP SLOAD SWAP1 PUSH2 0x100 EXP SWAP1 DIV PUSH1 0xFF AND DUP2 JUMP JUMPDEST PUSH1 0x2 PUSH1 0x20 MSTORE DUP1 PUSH0 MSTORE PUSH1 0x40 PUSH0 KECCAK256 PUSH0 SWAP2 POP SLOAD SWAP1 PUSH2 0x100 EXP SWAP1 DIV PUSH20 0xFFFFFFFFFFFFFFFFFFFFFFFFFFFFFFFFFFFFFFFF AND DUP2 JUMP JUMPDEST CALLER PUSH0 DUP1 SLOAD SWAP1 PUSH2 0x100 EXP SWAP1 DIV PUSH20 0xFFFFFFFFFFFFFFFFFFFFFFFFFFFFFFFFFFFFFFFF AND PUSH20 0xFFFFFFFFFFFFFFFFFFFFFFFFFFFFFFFFFFFFFFFF AND DUP2 PUSH20 0xFFFFFFFFFFFFFFFFFFFFFFFFFFFFFFFFFFFFFFFF AND EQ PUSH2 0x30D JUMPI PUSH0 DUP1 REVERT JUMPDEST PUSH1 0x1 DUP1 PUSH0 DUP5 PUSH20 0xFFFFFFFFFFFFFFFFFFFFFFFFFFFFFFFFFFFFFFFF AND PUSH20 0xFFFFFFFFFFFFFFFFFFFFFFFFFFFFFFFFFFFFFFFF AND DUP2 MSTORE PUSH1 0x20 ADD SWAP1 DUP2 MSTORE PUSH1 0x20 ADD PUSH0 KECCAK256 PUSH0 PUSH2 0x100 EXP DUP2 SLOAD DUP2 PUSH1 0xFF MUL NOT AND SWAP1 DUP4 ISZERO ISZERO MUL OR SWAP1 SSTORE POP PUSH32 0x222F67762C6A537B69EBB90489194EAE646A8D956513F9996242E80D646B1465 DUP3 PUSH1 0x40 MLOAD PUSH2 0x390 SWAP2 SWAP1 PUSH2 0x81D JUMP JUMPDEST PUSH1 0x40 MLOAD DUP1 SWAP2 SUB SWAP1 LOG1 POP POP JUMP JUMPDEST PUSH1 0x1 ISZERO ISZERO PUSH1 0x1 PUSH0 CALLER PUSH20 0xFFFFFFFFFFFFFFFFFFFFFFFFFFFFFFFFFFFFFFFF AND PUSH20 0xFFFFFFFFFFFFFFFFFFFFFFFFFFFFFFFFFFFFFFFF AND DUP2 MSTORE PUSH1 0x20 ADD SWAP1 DUP2 MSTORE PUSH1 0x20 ADD PUSH0 KECCAK256 PUSH0 SWAP1 SLOAD SWAP1 PUSH2 0x100 EXP SWAP1 DIV PUSH1 0xFF AND ISZERO ISZERO EQ PUSH2 0x42C JUMPI PUSH1 0x40 MLOAD PUSH32 0x8C379A000000000000000000000000000000000000000000000000000000000 DUP2 MSTORE PUSH1 0x4 ADD PUSH2 0x423 SWAP1 PUSH2 0x8EE JUMP JUMPDEST PUSH1 0x40 MLOAD DUP1 SWAP2 SUB SWAP1 REVERT JUMPDEST PUSH0 CALLER PUSH1 0x40 MLOAD PUSH2 0x43A SWAP1 PUSH2 0x66E JUMP JUMPDEST PUSH2 0x444 SWAP2 SWAP1 PUSH2 0x81D JUMP JUMPDEST PUSH1 0x40 MLOAD DUP1 SWAP2 SUB SWAP1 PUSH0 CREATE DUP1 ISZERO DUP1 ISZERO PUSH2 0x45D JUMPI RETURNDATASIZE PUSH0 DUP1 RETURNDATACOPY RETURNDATASIZE PUSH0 REVERT JUMPDEST POP SWAP1 POP PUSH1 0x3 DUP2 SWAP1 DUP1 PUSH1 0x1 DUP2 SLOAD ADD DUP1 DUP3 SSTORE DUP1 SWAP2 POP POP PUSH1 0x1 SWAP1 SUB SWAP1 PUSH0 MSTORE PUSH1 0x20 PUSH0 KECCAK256 ADD PUSH0 SWAP1 SWAP2 SWAP1 SWAP2 SWAP1 SWAP2 PUSH2 0x100 EXP DUP2 SLOAD DUP2 PUSH20 0xFFFFFFFFFFFFFFFFFFFFFFFFFFFFFFFFFFFFFFFF MUL NOT AND SWAP1 DUP4 PUSH20 0xFFFFFFFFFFFFFFFFFFFFFFFFFFFFFFFFFFFFFFFF AND MUL OR SWAP1 SSTORE POP DUP1 PUSH1 0x2 PUSH0 CALLER PUSH20 0xFFFFFFFFFFFFFFFFFFFFFFFFFFFFFFFFFFFFFFFF AND PUSH20 0xFFFFFFFFFFFFFFFFFFFFFFFFFFFFFFFFFFFFFFFF AND DUP2 MSTORE PUSH1 0x20 ADD SWAP1 DUP2 MSTORE PUSH1 0x20 ADD PUSH0 KECCAK256 PUSH0 PUSH2 0x100 EXP DUP2 SLOAD DUP2 PUSH20 0xFFFFFFFFFFFFFFFFFFFFFFFFFFFFFFFFFFFFFFFF MUL NOT AND SWAP1 DUP4 PUSH20 0xFFFFFFFFFFFFFFFFFFFFFFFFFFFFFFFFFFFFFFFF AND MUL OR SWAP1 SSTORE POP PUSH32 0x17182EA1A6748F7923EA0BFB4BF8BC76CC894E662541AD1EA15797322D541DB8 DUP2 CALLER PUSH1 0x40 MLOAD PUSH2 0x56C SWAP3 SWAP2 SWAP1 PUSH2 0x90C JUMP JUMPDEST PUSH1 0x40 MLOAD DUP1 SWAP2 SUB SWAP1 LOG1 POP JUMP JUMPDEST PUSH1 0x3 DUP2 DUP2 SLOAD DUP2 LT PUSH2 0x586 JUMPI PUSH0 DUP1 REVERT JUMPDEST SWAP1 PUSH0 MSTORE PUSH1 0x20 PUSH0 KECCAK256 ADD PUSH0 SWAP2 POP SLOAD SWAP1 PUSH2 0x100 EXP SWAP1 DIV PUSH20 0xFFFFFFFFFFFFFFFFFFFFFFFFFFFFFFFFFFFFFFFF AND DUP2 JUMP JUMPDEST PUSH0 DUP1 SLOAD SWAP1 PUSH2 0x100 EXP SWAP1 DIV PUSH20 0xFFFFFFFFFFFFFFFFFFFFFFFFFFFFFFFFFFFFFFFF AND DUP2 JUMP JUMPDEST PUSH1 0x4 CALLER SWAP1 DUP1 PUSH1 0x1 DUP2 SLOAD ADD DUP1 DUP3 SSTORE DUP1 SWAP2 POP POP PUSH1 0x1 SWAP1 SUB SWAP1 PUSH0 MSTORE PUSH1 0x20 PUSH0 KECCAK256 ADD PUSH0 SWAP1 SWAP2 SWAP1 SWAP2 SWAP1 SWAP2 PUSH2 0x100 EXP DUP2 SLOAD DUP2 PUSH20 0xFFFFFFFFFFFFFFFFFFFFFFFFFFFFFFFFFFFFFFFF MUL NOT AND SWAP1 DUP4 PUSH20 0xFFFFFFFFFFFFFFFFFFFFFFFFFFFFFFFFFFFFFFFF AND MUL OR SWAP1 SSTORE POP PUSH32 0xE39C2AF3376743A85A8D833C7BE5DBD94B1791E3E655C91B5E972362E4C5D90A CALLER PUSH1 0x40 MLOAD PUSH2 0x664 SWAP2 SWAP1 PUSH2 0x81D JUMP JUMPDEST PUSH1 0x40 MLOAD DUP1 SWAP2 SUB SWAP1 LOG1 JUMP JUMPDEST PUSH2 0xA5E DUP1 PUSH2 0x934 DUP4 CODECOPY ADD SWAP1 JUMP JUMPDEST PUSH0 DUP2 MLOAD SWAP1 POP SWAP2 SWAP1 POP JUMP JUMPDEST PUSH0 DUP3 DUP3 MSTORE PUSH1 0x20 DUP3 ADD SWAP1 POP SWAP3 SWAP2 POP POP JUMP JUMPDEST PUSH0 DUP2 SWAP1 POP PUSH1 0x20 DUP3 ADD SWAP1 POP SWAP2 SWAP1 POP JUMP JUMPDEST PUSH0 PUSH20 0xFFFFFFFFFFFFFFFFFFFFFFFFFFFFFFFFFFFFFFFF DUP3 AND SWAP1 POP SWAP2 SWAP1 POP JUMP JUMPDEST PUSH0 PUSH2 0x6CD DUP3 PUSH2 0x6A4 JUMP JUMPDEST SWAP1 POP SWAP2 SWAP1 POP JUMP JUMPDEST PUSH2 0x6DD DUP2 PUSH2 0x6C3 JUMP JUMPDEST DUP3 MSTORE POP POP JUMP JUMPDEST PUSH0 PUSH2 0x6EE DUP4 DUP4 PUSH2 0x6D4 JUMP JUMPDEST PUSH1 0x20 DUP4 ADD SWAP1 POP SWAP3 SWAP2 POP POP JUMP JUMPDEST PUSH0 PUSH1 0x20 DUP3 ADD SWAP1 POP SWAP2 SWAP1 POP JUMP JUMPDEST PUSH0 PUSH2 0x710 DUP3 PUSH2 0x67B JUMP JUMPDEST PUSH2 0x71A DUP2 DUP6 PUSH2 0x685 JUMP JUMPDEST SWAP4 POP PUSH2 0x725 DUP4 PUSH2 0x695 JUMP JUMPDEST DUP1 PUSH0 JUMPDEST DUP4 DUP2 LT ISZERO PUSH2 0x755 JUMPI DUP2 MLOAD PUSH2 0x73C DUP9 DUP3 PUSH2 0x6E3 JUMP JUMPDEST SWAP8 POP PUSH2 0x747 DUP4 PUSH2 0x6FA JUMP JUMPDEST SWAP3 POP POP PUSH1 0x1 DUP2 ADD SWAP1 POP PUSH2 0x728 JUMP JUMPDEST POP DUP6 SWAP4 POP POP POP POP SWAP3 SWAP2 POP POP JUMP JUMPDEST PUSH0 PUSH1 0x20 DUP3 ADD SWAP1 POP DUP2 DUP2 SUB PUSH0 DUP4 ADD MSTORE PUSH2 0x77A DUP2 DUP5 PUSH2 0x706 JUMP JUMPDEST SWAP1 POP SWAP3 SWAP2 POP POP JUMP JUMPDEST PUSH0 DUP1 REVERT JUMPDEST PUSH2 0x78F DUP2 PUSH2 0x6C3 JUMP JUMPDEST DUP2 EQ PUSH2 0x799 JUMPI PUSH0 DUP1 REVERT JUMPDEST POP JUMP JUMPDEST PUSH0 DUP2 CALLDATALOAD SWAP1 POP PUSH2 0x7AA DUP2 PUSH2 0x786 JUMP JUMPDEST SWAP3 SWAP2 POP POP JUMP JUMPDEST PUSH0 PUSH1 0x20 DUP3 DUP5 SUB SLT ISZERO PUSH2 0x7C5 JUMPI PUSH2 0x7C4 PUSH2 0x782 JUMP JUMPDEST JUMPDEST PUSH0 PUSH2 0x7D2 DUP5 DUP3 DUP6 ADD PUSH2 0x79C JUMP JUMPDEST SWAP2 POP POP SWAP3 SWAP2 POP POP JUMP JUMPDEST PUSH0 DUP2 ISZERO ISZERO SWAP1 POP SWAP2 SWAP1 POP JUMP JUMPDEST PUSH2 0x7EF DUP2 PUSH2 0x7DB JUMP JUMPDEST DUP3 MSTORE POP POP JUMP JUMPDEST PUSH0 PUSH1 0x20 DUP3 ADD SWAP1 POP PUSH2 0x808 PUSH0 DUP4 ADD DUP5 PUSH2 0x7E6 JUMP JUMPDEST SWAP3 SWAP2 POP POP JUMP JUMPDEST PUSH2 0x817 DUP2 PUSH2 0x6C3 JUMP JUMPDEST DUP3 MSTORE POP POP JUMP JUMPDEST PUSH0 PUSH1 0x20 DUP3 ADD SWAP1 POP PUSH2 0x830 PUSH0 DUP4 ADD DUP5 PUSH2 0x80E JUMP JUMPDEST SWAP3 SWAP2 POP POP JUMP JUMPDEST PUSH0 DUP2 SWAP1 POP SWAP2 SWAP1 POP JUMP JUMPDEST PUSH2 0x848 DUP2 PUSH2 0x836 JUMP JUMPDEST DUP2 EQ PUSH2 0x852 JUMPI PUSH0 DUP1 REVERT JUMPDEST POP JUMP JUMPDEST PUSH0 DUP2 CALLDATALOAD SWAP1 POP PUSH2 0x863 DUP2 PUSH2 0x83F JUMP JUMPDEST SWAP3 SWAP2 POP POP JUMP JUMPDEST PUSH0 PUSH1 0x20 DUP3 DUP5 SUB SLT ISZERO PUSH2 0x87E JUMPI PUSH2 0x87D PUSH2 0x782 JUMP JUMPDEST JUMPDEST PUSH0 PUSH2 0x88B DUP5 DUP3 DUP6 ADD PUSH2 0x855 JUMP JUMPDEST SWAP2 POP POP SWAP3 SWAP2 POP POP JUMP JUMPDEST PUSH0 DUP3 DUP3 MSTORE PUSH1 0x20 DUP3 ADD SWAP1 POP SWAP3 SWAP2 POP POP JUMP JUMPDEST PUSH32 0x596F7520646F6E27742068617665207065726D697373696F6E73000000000000 PUSH0 DUP3 ADD MSTORE POP JUMP JUMPDEST PUSH0 PUSH2 0x8D8 PUSH1 0x1A DUP4 PUSH2 0x894 JUMP JUMPDEST SWAP2 POP PUSH2 0x8E3 DUP3 PUSH2 0x8A4 JUMP JUMPDEST PUSH1 0x20 DUP3 ADD SWAP1 POP SWAP2 SWAP1 POP JUMP JUMPDEST PUSH0 PUSH1 0x20 DUP3 ADD SWAP1 POP DUP2 DUP2 SUB PUSH0 DUP4 ADD MSTORE PUSH2 0x905 DUP2 PUSH2 0x8CC JUMP JUMPDEST SWAP1 POP SWAP2 SWAP1 POP JUMP JUMPDEST PUSH0 PUSH1 0x40 DUP3 ADD SWAP1 POP PUSH2 0x91F PUSH0 DUP4 ADD DUP6 PUSH2 0x80E JUMP JUMPDEST PUSH2 0x92C PUSH1 0x20 DUP4 ADD DUP5 PUSH2 0x80E JUMP JUMPDEST SWAP4 SWAP3 POP POP POP JUMP INVALID PUSH1 0x80 PUSH1 0x40 MSTORE CALLVALUE DUP1 ISZERO PUSH2 0xF JUMPI PUSH0 DUP1 REVERT JUMPDEST POP PUSH1 0x40 MLOAD PUSH2 0xA5E CODESIZE SUB DUP1 PUSH2 0xA5E DUP4 CODECOPY DUP2 DUP2 ADD PUSH1 0x40 MSTORE DUP2 ADD SWAP1 PUSH2 0x31 SWAP2 SWAP1 PUSH2 0x114 JUMP JUMPDEST DUP1 PUSH0 DUP1 PUSH2 0x100 EXP DUP2 SLOAD DUP2 PUSH20 0xFFFFFFFFFFFFFFFFFFFFFFFFFFFFFFFFFFFFFFFF MUL NOT AND SWAP1 DUP4 PUSH20 0xFFFFFFFFFFFFFFFFFFFFFFFFFFFFFFFFFFFFFFFF AND MUL OR SWAP1 SSTORE POP ADDRESS PUSH1 0x1 PUSH0 PUSH2 0x100 EXP DUP2 SLOAD DUP2 PUSH20 0xFFFFFFFFFFFFFFFFFFFFFFFFFFFFFFFFFFFFFFFF MUL NOT AND SWAP1 DUP4 PUSH20 0xFFFFFFFFFFFFFFFFFFFFFFFFFFFFFFFFFFFFFFFF AND MUL OR SWAP1 SSTORE POP POP PUSH2 0x13F JUMP JUMPDEST PUSH0 DUP1 REVERT JUMPDEST PUSH0 PUSH20 0xFFFFFFFFFFFFFFFFFFFFFFFFFFFFFFFFFFFFFFFF DUP3 AND SWAP1 POP SWAP2 SWAP1 POP JUMP JUMPDEST PUSH0 PUSH2 0xE3 DUP3 PUSH2 0xBA JUMP JUMPDEST SWAP1 POP SWAP2 SWAP1 POP JUMP JUMPDEST PUSH2 0xF3 DUP2 PUSH2 0xD9 JUMP JUMPDEST DUP2 EQ PUSH2 0xFD JUMPI PUSH0 DUP1 REVERT JUMPDEST POP JUMP JUMPDEST PUSH0 DUP2 MLOAD SWAP1 POP PUSH2 0x10E DUP2 PUSH2 0xEA JUMP JUMPDEST SWAP3 SWAP2 POP POP JUMP JUMPDEST PUSH0 PUSH1 0x20 DUP3 DUP5 SUB SLT ISZERO PUSH2 0x129 JUMPI PUSH2 0x128 PUSH2 0xB6 JUMP JUMPDEST JUMPDEST PUSH0 PUSH2 0x136 DUP5 DUP3 DUP6 ADD PUSH2 0x100 JUMP JUMPDEST SWAP2 POP POP SWAP3 SWAP2 POP POP JUMP JUMPDEST PUSH2 0x912 DUP1 PUSH2 0x14C PUSH0 CODECOPY PUSH0 RETURN INVALID PUSH1 0x80 PUSH1 0x40 MSTORE CALLVALUE DUP1 ISZERO PUSH2 0xF JUMPI PUSH0 DUP1 REVERT JUMPDEST POP PUSH1 0x4 CALLDATASIZE LT PUSH2 0x3F JUMPI PUSH0 CALLDATALOAD PUSH1 0xE0 SHR DUP1 PUSH4 0xCD5662C EQ PUSH2 0x43 JUMPI DUP1 PUSH4 0x8F13C404 EQ PUSH2 0x5F JUMPI DUP1 PUSH4 0xF6B4DFB4 EQ PUSH2 0x7D JUMPI JUMPDEST PUSH0 DUP1 REVERT JUMPDEST PUSH2 0x5D PUSH1 0x4 DUP1 CALLDATASIZE SUB DUP2 ADD SWAP1 PUSH2 0x58 SWAP2 SWAP1 PUSH2 0x3BB JUMP JUMPDEST PUSH2 0x9B JUMP JUMPDEST STOP JUMPDEST PUSH2 0x67 PUSH2 0x1F1 JUMP JUMPDEST PUSH1 0x40 MLOAD PUSH2 0x74 SWAP2 SWAP1 PUSH2 0x482 JUMP JUMPDEST PUSH1 0x40 MLOAD DUP1 SWAP2 SUB SWAP1 RETURN JUMPDEST PUSH2 0x85 PUSH2 0x214 JUMP JUMPDEST PUSH1 0x40 MLOAD PUSH2 0x92 SWAP2 SWAP1 PUSH2 0x482 JUMP JUMPDEST PUSH1 0x40 MLOAD DUP1 SWAP2 SUB SWAP1 RETURN JUMPDEST CALLER PUSH0 DUP1 SLOAD SWAP1 PUSH2 0x100 EXP SWAP1 DIV PUSH20 0xFFFFFFFFFFFFFFFFFFFFFFFFFFFFFFFFFFFFFFFF AND PUSH20 0xFFFFFFFFFFFFFFFFFFFFFFFFFFFFFFFFFFFFFFFF AND DUP2 PUSH20 0xFFFFFFFFFFFFFFFFFFFFFFFFFFFFFFFFFFFFFFFF AND EQ PUSH2 0x129 JUMPI PUSH1 0x40 MLOAD PUSH32 0x8C379A000000000000000000000000000000000000000000000000000000000 DUP2 MSTORE PUSH1 0x4 ADD PUSH2 0x120 SWAP1 PUSH2 0x4F5 JUMP JUMPDEST PUSH1 0x40 MLOAD DUP1 SWAP2 SUB SWAP1 REVERT JUMPDEST PUSH0 DUP5 PUSH1 0x40 MLOAD PUSH1 0x20 ADD PUSH2 0x13B SWAP2 SWAP1 PUSH2 0x57F JUMP JUMPDEST PUSH1 0x40 MLOAD PUSH1 0x20 DUP2 DUP4 SUB SUB DUP2 MSTORE SWAP1 PUSH1 0x40 MSTORE DUP1 MLOAD SWAP1 PUSH1 0x20 ADD KECCAK256 SWAP1 POP PUSH1 0x40 MLOAD DUP1 PUSH1 0x40 ADD PUSH1 0x40 MSTORE DUP1 DUP6 ISZERO ISZERO DUP2 MSTORE PUSH1 0x20 ADD DUP5 DUP2 MSTORE POP PUSH1 0x2 PUSH0 DUP4 DUP2 MSTORE PUSH1 0x20 ADD SWAP1 DUP2 MSTORE PUSH1 0x20 ADD PUSH0 KECCAK256 PUSH0 DUP3 ADD MLOAD DUP2 PUSH0 ADD PUSH0 PUSH2 0x100 EXP DUP2 SLOAD DUP2 PUSH1 0xFF MUL NOT AND SWAP1 DUP4 ISZERO ISZERO MUL OR SWAP1 SSTORE POP PUSH1 0x20 DUP3 ADD MLOAD DUP2 PUSH1 0x1 ADD SWAP1 DUP2 PUSH2 0x1AD SWAP2 SWAP1 PUSH2 0x798 JUMP JUMPDEST POP SWAP1 POP POP PUSH32 0x1CA780BE614113B3E639B9C4BBA4F21CB45139EF8D48F54CA3F8D9852DB387B0 DUP5 DUP5 PUSH1 0x40 MLOAD PUSH2 0x1E2 SWAP3 SWAP2 SWAP1 PUSH2 0x8AE JUMP JUMPDEST PUSH1 0x40 MLOAD DUP1 SWAP2 SUB SWAP1 LOG1 POP POP POP POP POP JUMP JUMPDEST PUSH0 DUP1 SLOAD SWAP1 PUSH2 0x100 EXP SWAP1 DIV PUSH20 0xFFFFFFFFFFFFFFFFFFFFFFFFFFFFFFFFFFFFFFFF AND DUP2 JUMP JUMPDEST PUSH1 0x1 PUSH0 SWAP1 SLOAD SWAP1 PUSH2 0x100 EXP SWAP1 DIV PUSH20 0xFFFFFFFFFFFFFFFFFFFFFFFFFFFFFFFFFFFFFFFF AND DUP2 JUMP JUMPDEST PUSH0 PUSH1 0x40 MLOAD SWAP1 POP SWAP1 JUMP JUMPDEST PUSH0 DUP1 REVERT JUMPDEST PUSH0 DUP1 REVERT JUMPDEST PUSH0 DUP1 REVERT JUMPDEST PUSH0 DUP1 REVERT JUMPDEST PUSH0 PUSH1 0x1F NOT PUSH1 0x1F DUP4 ADD AND SWAP1 POP SWAP2 SWAP1 POP JUMP JUMPDEST PUSH32 0x4E487B7100000000000000000000000000000000000000000000000000000000 PUSH0 MSTORE PUSH1 0x41 PUSH1 0x4 MSTORE PUSH1 0x24 PUSH0 REVERT JUMPDEST PUSH2 0x298 DUP3 PUSH2 0x252 JUMP JUMPDEST DUP2 ADD DUP2 DUP2 LT PUSH8 0xFFFFFFFFFFFFFFFF DUP3 GT OR ISZERO PUSH2 0x2B7 JUMPI PUSH2 0x2B6 PUSH2 0x262 JUMP JUMPDEST JUMPDEST DUP1 PUSH1 0x40 MSTORE POP POP POP JUMP JUMPDEST PUSH0 PUSH2 0x2C9 PUSH2 0x239 JUMP JUMPDEST SWAP1 POP PUSH2 0x2D5 DUP3 DUP3 PUSH2 0x28F JUMP JUMPDEST SWAP2 SWAP1 POP JUMP JUMPDEST PUSH0 PUSH8 0xFFFFFFFFFFFFFFFF DUP3 GT ISZERO PUSH2 0x2F4 JUMPI PUSH2 0x2F3 PUSH2 0x262 JUMP JUMPDEST JUMPDEST PUSH2 0x2FD DUP3 PUSH2 0x252 JUMP JUMPDEST SWAP1 POP PUSH1 0x20 DUP2 ADD SWAP1 POP SWAP2 SWAP1 POP JUMP JUMPDEST DUP3 DUP2 DUP4 CALLDATACOPY PUSH0 DUP4 DUP4 ADD MSTORE POP POP POP JUMP JUMPDEST PUSH0 PUSH2 0x32A PUSH2 0x325 DUP5 PUSH2 0x2DA JUMP JUMPDEST PUSH2 0x2C0 JUMP JUMPDEST SWAP1 POP DUP3 DUP2 MSTORE PUSH1 0x20 DUP2 ADD DUP5 DUP5 DUP5 ADD GT ISZERO PUSH2 0x346 JUMPI PUSH2 0x345 PUSH2 0x24E JUMP JUMPDEST JUMPDEST PUSH2 0x351 DUP5 DUP3 DUP6 PUSH2 0x30A JUMP JUMPDEST POP SWAP4 SWAP3 POP POP POP JUMP JUMPDEST PUSH0 DUP3 PUSH1 0x1F DUP4 ADD SLT PUSH2 0x36D JUMPI PUSH2 0x36C PUSH2 0x24A JUMP JUMPDEST JUMPDEST DUP2 CALLDATALOAD PUSH2 0x37D DUP5 DUP3 PUSH1 0x20 DUP7 ADD PUSH2 0x318 JUMP JUMPDEST SWAP2 POP POP SWAP3 SWAP2 POP POP JUMP JUMPDEST PUSH0 DUP2 ISZERO ISZERO SWAP1 POP SWAP2 SWAP1 POP JUMP JUMPDEST PUSH2 0x39A DUP2 PUSH2 0x386 JUMP JUMPDEST DUP2 EQ PUSH2 0x3A4 JUMPI PUSH0 DUP1 REVERT JUMPDEST POP JUMP JUMPDEST PUSH0 DUP2 CALLDATALOAD SWAP1 POP PUSH2 0x3B5 DUP2 PUSH2 0x391 JUMP JUMPDEST SWAP3 SWAP2 POP POP JUMP JUMPDEST PUSH0 DUP1 PUSH0 PUSH1 0x60 DUP5 DUP7 SUB SLT ISZERO PUSH2 0x3D2 JUMPI PUSH2 0x3D1 PUSH2 0x242 JUMP JUMPDEST JUMPDEST PUSH0 DUP5 ADD CALLDATALOAD PUSH8 0xFFFFFFFFFFFFFFFF DUP2 GT ISZERO PUSH2 0x3EF JUMPI PUSH2 0x3EE PUSH2 0x246 JUMP JUMPDEST JUMPDEST PUSH2 0x3FB DUP7 DUP3 DUP8 ADD PUSH2 0x359 JUMP JUMPDEST SWAP4 POP POP PUSH1 0x20 PUSH2 0x40C DUP7 DUP3 DUP8 ADD PUSH2 0x3A7 JUMP JUMPDEST SWAP3 POP POP PUSH1 0x40 DUP5 ADD CALLDATALOAD PUSH8 0xFFFFFFFFFFFFFFFF DUP2 GT ISZERO PUSH2 0x42D JUMPI PUSH2 0x42C PUSH2 0x246 JUMP JUMPDEST JUMPDEST PUSH2 0x439 DUP7 DUP3 DUP8 ADD PUSH2 0x359 JUMP JUMPDEST SWAP2 POP POP SWAP3 POP SWAP3 POP SWAP3 JUMP JUMPDEST PUSH0 PUSH20 0xFFFFFFFFFFFFFFFFFFFFFFFFFFFFFFFFFFFFFFFF DUP3 AND SWAP1 POP SWAP2 SWAP1 POP JUMP JUMPDEST PUSH0 PUSH2 0x46C DUP3 PUSH2 0x443 JUMP JUMPDEST SWAP1 POP SWAP2 SWAP1 POP JUMP JUMPDEST PUSH2 0x47C DUP2 PUSH2 0x462 JUMP JUMPDEST DUP3 MSTORE POP POP JUMP JUMPDEST PUSH0 PUSH1 0x20 DUP3 ADD SWAP1 POP PUSH2 0x495 PUSH0 DUP4 ADD DUP5 PUSH2 0x473 JUMP JUMPDEST SWAP3 SWAP2 POP POP JUMP JUMPDEST PUSH0 DUP3 DUP3 MSTORE PUSH1 0x20 DUP3 ADD SWAP1 POP SWAP3 SWAP2 POP POP JUMP JUMPDEST PUSH32 0x596F7520646F6E27742068617665207065726D697373696F6E73000000000000 PUSH0 DUP3 ADD MSTORE POP JUMP JUMPDEST PUSH0 PUSH2 0x4DF PUSH1 0x1A DUP4 PUSH2 0x49B JUMP JUMPDEST SWAP2 POP PUSH2 0x4EA DUP3 PUSH2 0x4AB JUMP JUMPDEST PUSH1 0x20 DUP3 ADD SWAP1 POP SWAP2 SWAP1 POP JUMP JUMPDEST PUSH0 PUSH1 0x20 DUP3 ADD SWAP1 POP DUP2 DUP2 SUB PUSH0 DUP4 ADD MSTORE PUSH2 0x50C DUP2 PUSH2 0x4D3 JUMP JUMPDEST SWAP1 POP SWAP2 SWAP1 POP JUMP JUMPDEST PUSH0 DUP2 MLOAD SWAP1 POP SWAP2 SWAP1 POP JUMP JUMPDEST PUSH0 DUP2 SWAP1 POP SWAP3 SWAP2 POP POP JUMP JUMPDEST PUSH0 JUMPDEST DUP4 DUP2 LT ISZERO PUSH2 0x544 JUMPI DUP1 DUP3 ADD MLOAD DUP2 DUP5 ADD MSTORE PUSH1 0x20 DUP2 ADD SWAP1 POP PUSH2 0x529 JUMP JUMPDEST PUSH0 DUP5 DUP5 ADD MSTORE POP POP POP POP JUMP JUMPDEST PUSH0 PUSH2 0x559 DUP3 PUSH2 0x513 JUMP JUMPDEST PUSH2 0x563 DUP2 DUP6 PUSH2 0x51D JUMP JUMPDEST SWAP4 POP PUSH2 0x573 DUP2 DUP6 PUSH1 0x20 DUP7 ADD PUSH2 0x527 JUMP JUMPDEST DUP1 DUP5 ADD SWAP2 POP POP SWAP3 SWAP2 POP POP JUMP JUMPDEST PUSH0 PUSH2 0x58A DUP3 DUP5 PUSH2 0x54F JUMP JUMPDEST SWAP2 POP DUP2 SWAP1 POP SWAP3 SWAP2 POP POP JUMP JUMPDEST PUSH32 0x4E487B7100000000000000000000000000000000000000000000000000000000 PUSH0 MSTORE PUSH1 0x22 PUSH1 0x4 MSTORE PUSH1 0x24 PUSH0 REVERT JUMPDEST PUSH0 PUSH1 0x2 DUP3 DIV SWAP1 POP PUSH1 0x1 DUP3 AND DUP1 PUSH2 0x5D9 JUMPI PUSH1 0x7F DUP3 AND SWAP2 POP JUMPDEST PUSH1 0x20 DUP3 LT DUP2 SUB PUSH2 0x5EC JUMPI PUSH2 0x5EB PUSH2 0x595 JUMP JUMPDEST JUMPDEST POP SWAP2 SWAP1 POP JUMP JUMPDEST PUSH0 DUP2 SWAP1 POP DUP2 PUSH0 MSTORE PUSH1 0x20 PUSH0 KECCAK256 SWAP1 POP SWAP2 SWAP1 POP JUMP JUMPDEST PUSH0 PUSH1 0x20 PUSH1 0x1F DUP4 ADD DIV SWAP1 POP SWAP2 SWAP1 POP JUMP JUMPDEST PUSH0 DUP3 DUP3 SHL SWAP1 POP SWAP3 SWAP2 POP POP JUMP JUMPDEST PUSH0 PUSH1 0x8 DUP4 MUL PUSH2 0x64E PUSH32 0xFFFFFFFFFFFFFFFFFFFFFFFFFFFFFFFFFFFFFFFFFFFFFFFFFFFFFFFFFFFFFFFF DUP3 PUSH2 0x613 JUMP JUMPDEST PUSH2 0x658 DUP7 DUP4 PUSH2 0x613 JUMP JUMPDEST SWAP6 POP DUP1 NOT DUP5 AND SWAP4 POP DUP1 DUP7 AND DUP5 OR SWAP3 POP POP POP SWAP4 SWAP3 POP POP POP JUMP JUMPDEST PUSH0 DUP2 SWAP1 POP SWAP2 SWAP1 POP JUMP JUMPDEST PUSH0 DUP2 SWAP1 POP SWAP2 SWAP1 POP JUMP JUMPDEST PUSH0 PUSH2 0x69C PUSH2 0x697 PUSH2 0x692 DUP5 PUSH2 0x670 JUMP JUMPDEST PUSH2 0x679 JUMP JUMPDEST PUSH2 0x670 JUMP JUMPDEST SWAP1 POP SWAP2 SWAP1 POP JUMP JUMPDEST PUSH0 DUP2 SWAP1 POP SWAP2 SWAP1 POP JUMP JUMPDEST PUSH2 0x6B5 DUP4 PUSH2 0x682 JUMP JUMPDEST PUSH2 0x6C9 PUSH2 0x6C1 DUP3 PUSH2 0x6A3 JUMP JUMPDEST DUP5 DUP5 SLOAD PUSH2 0x61F JUMP JUMPDEST DUP3 SSTORE POP POP POP POP JUMP JUMPDEST PUSH0 SWAP1 JUMP JUMPDEST PUSH2 0x6DD PUSH2 0x6D1 JUMP JUMPDEST PUSH2 0x6E8 DUP2 DUP5 DUP5 PUSH2 0x6AC JUMP JUMPDEST POP POP POP JUMP JUMPDEST JUMPDEST DUP2 DUP2 LT ISZERO PUSH2 0x70B JUMPI PUSH2 0x700 PUSH0 DUP3 PUSH2 0x6D5 JUMP JUMPDEST PUSH1 0x1 DUP2 ADD SWAP1 POP PUSH2 0x6EE JUMP JUMPDEST POP POP JUMP JUMPDEST PUSH1 0x1F DUP3 GT ISZERO PUSH2 0x750 JUMPI PUSH2 0x721 DUP2 PUSH2 0x5F2 JUMP JUMPDEST PUSH2 0x72A DUP5 PUSH2 0x604 JUMP JUMPDEST DUP2 ADD PUSH1 0x20 DUP6 LT ISZERO PUSH2 0x739 JUMPI DUP2 SWAP1 POP JUMPDEST PUSH2 0x74D PUSH2 0x745 DUP6 PUSH2 0x604 JUMP JUMPDEST DUP4 ADD DUP3 PUSH2 0x6ED JUMP JUMPDEST POP POP JUMPDEST POP POP POP JUMP JUMPDEST PUSH0 DUP3 DUP3 SHR SWAP1 POP SWAP3 SWAP2 POP POP JUMP JUMPDEST PUSH0 PUSH2 0x770 PUSH0 NOT DUP5 PUSH1 0x8 MUL PUSH2 0x755 JUMP JUMPDEST NOT DUP1 DUP4 AND SWAP2 POP POP SWAP3 SWAP2 POP POP JUMP JUMPDEST PUSH0 PUSH2 0x788 DUP4 DUP4 PUSH2 0x761 JUMP JUMPDEST SWAP2 POP DUP3 PUSH1 0x2 MUL DUP3 OR SWAP1 POP SWAP3 SWAP2 POP POP JUMP JUMPDEST PUSH2 0x7A1 DUP3 PUSH2 0x513 JUMP JUMPDEST PUSH8 0xFFFFFFFFFFFFFFFF DUP2 GT ISZERO PUSH2 0x7BA JUMPI PUSH2 0x7B9 PUSH2 0x262 JUMP JUMPDEST JUMPDEST PUSH2 0x7C4 DUP3 SLOAD PUSH2 0x5C2 JUMP JUMPDEST PUSH2 0x7CF DUP3 DUP3 DUP6 PUSH2 0x70F JUMP JUMPDEST PUSH0 PUSH1 0x20 SWAP1 POP PUSH1 0x1F DUP4 GT PUSH1 0x1 DUP2 EQ PUSH2 0x800 JUMPI PUSH0 DUP5 ISZERO PUSH2 0x7EE JUMPI DUP3 DUP8 ADD MLOAD SWAP1 POP JUMPDEST PUSH2 0x7F8 DUP6 DUP3 PUSH2 0x77D JUMP JUMPDEST DUP7 SSTORE POP PUSH2 0x85F JUMP JUMPDEST PUSH1 0x1F NOT DUP5 AND PUSH2 0x80E DUP7 PUSH2 0x5F2 JUMP JUMPDEST PUSH0 JUMPDEST DUP3 DUP2 LT ISZERO PUSH2 0x835 JUMPI DUP5 DUP10 ADD MLOAD DUP3 SSTORE PUSH1 0x1 DUP3 ADD SWAP2 POP PUSH1 0x20 DUP6 ADD SWAP5 POP PUSH1 0x20 DUP2 ADD SWAP1 POP PUSH2 0x810 JUMP JUMPDEST DUP7 DUP4 LT ISZERO PUSH2 0x852 JUMPI DUP5 DUP10 ADD MLOAD PUSH2 0x84E PUSH1 0x1F DUP10 AND DUP3 PUSH2 0x761 JUMP JUMPDEST DUP4 SSTORE POP JUMPDEST PUSH1 0x1 PUSH1 0x2 DUP9 MUL ADD DUP9 SSTORE POP POP POP JUMPDEST POP POP POP POP POP POP JUMP JUMPDEST PUSH2 0x870 DUP2 PUSH2 0x386 JUMP JUMPDEST DUP3 MSTORE POP POP JUMP JUMPDEST PUSH0 PUSH2 0x880 DUP3 PUSH2 0x513 JUMP JUMPDEST PUSH2 0x88A DUP2 DUP6 PUSH2 0x49B JUMP JUMPDEST SWAP4 POP PUSH2 0x89A DUP2 DUP6 PUSH1 0x20 DUP7 ADD PUSH2 0x527 JUMP JUMPDEST PUSH2 0x8A3 DUP2 PUSH2 0x252 JUMP JUMPDEST DUP5 ADD SWAP2 POP POP SWAP3 SWAP2 POP POP JUMP JUMPDEST PUSH0 PUSH1 0x40 DUP3 ADD SWAP1 POP PUSH2 0x8C1 PUSH0 DUP4 ADD DUP6 PUSH2 0x867 JUMP JUMPDEST DUP2 DUP2 SUB PUSH1 0x20 DUP4 ADD MSTORE PUSH2 0x8D3 DUP2 DUP5 PUSH2 0x876 JUMP JUMPDEST SWAP1 POP SWAP4 SWAP3 POP POP POP JUMP INVALID LOG2 PUSH5 0x6970667358 0x22 SLT KECCAK256 MSIZE STATICCALL SAR 0xE2 PUSH9 0xA3EF9E93B01EC2F850 PUSH31 0xB6D3306F08BD18ACAF6A3B837537D605D464736F6C63430008160033A26469 PUSH17 0x6673582212206838FA7F94C4F4C038973E SLT RETURN CREATE2 CHAINID CALLDATASIZE 0xB1 0xE0 MSTORE 0x2F 0xEB 0xC3 SLOAD 0xCD PUSH13 0x535386039115CB64736F6C6343 STOP ADDMOD AND STOP CALLER "
				},
				"gasEstimates": {
					"creation": {
						"codeDepositCost": "1012600",
						"executionCost": "25317",
						"totalCost": "1037917"
					},
					"external": {
						"FactoryHealthCenter()": "infinite",
						"HealthCenter(address)": "infinite",
						"HealthCenter_Contract(address)": "infinite",
						"WHO()": "2549",
						"health_centers_addresses(uint256)": "4966",
						"requestAccess()": "50019",
						"showRequests()": "infinite",
						"validity_HealthCenters(address)": "2856"
					}
				},
				"methodIdentifiers": {
					"FactoryHealthCenter()": "6fdc01b6",
					"HealthCenter(address)": "66a38445",
					"HealthCenter_Contract(address)": "4e7d4b35",
					"WHO()": "aa80de8b",
					"health_centers_addresses(uint256)": "96964d9a",
					"requestAccess()": "eb2f4817",
					"showRequests()": "036885e1",
					"validity_HealthCenters(address)": "3785908a"
				}
			},
			"storageLayout": {
				"storage": [
					{
						"astId": 3,
						"contract": "WHO/who.sol:WHO_COVID",
						"label": "WHO",
						"offset": 0,
						"slot": "0",
						"type": "t_address"
					},
					{
						"astId": 16,
						"contract": "WHO/who.sol:WHO_COVID",
						"label": "validity_HealthCenters",
						"offset": 0,
						"slot": "1",
						"type": "t_mapping(t_address,t_bool)"
					},
					{
						"astId": 20,
						"contract": "WHO/who.sol:WHO_COVID",
						"label": "HealthCenter_Contract",
						"offset": 0,
						"slot": "2",
						"type": "t_mapping(t_address,t_address)"
					},
					{
						"astId": 23,
						"contract": "WHO/who.sol:WHO_COVID",
						"label": "health_centers_addresses",
						"offset": 0,
						"slot": "3",
						"type": "t_array(t_address)dyn_storage"
					},
					{
						"astId": 26,
						"contract": "WHO/who.sol:WHO_COVID",
						"label": "requests",
						"offset": 0,
						"slot": "4",
						"type": "t_array(t_address)dyn_storage"
					}
				],
				"types": {
					"t_address": {
						"encoding": "inplace",
						"label": "address",
						"numberOfBytes": "20"
					},
					"t_array(t_address)dyn_storage": {
						"base": "t_address",
						"encoding": "dynamic_array",
						"label": "address[]",
						"numberOfBytes": "32"
					},
					"t_bool": {
						"encoding": "inplace",
						"label": "bool",
						"numberOfBytes": "1"
					},
					"t_mapping(t_address,t_address)": {
						"encoding": "mapping",
						"key": "t_address",
						"label": "mapping(address => address)",
						"numberOfBytes": "32",
						"value": "t_address"
					},
					"t_mapping(t_address,t_bool)": {
						"encoding": "mapping",
						"key": "t_address",
						"label": "mapping(address => bool)",
						"numberOfBytes": "32",
						"value": "t_bool"
					}
				}
			},
			"userdoc": {
				"kind": "user",
				"methods": {},
				"version": 1
			}
		}
	}
}